{
  "_format": "hh-sol-artifact-1",
  "contractName": "FantosiView",
  "sourceName": "src/FantosiView.sol",
  "abi": [
    {
      "anonymous": false,
      "inputs": [
        {
          "indexed": false,
          "internalType": "uint8",
          "name": "version",
          "type": "uint8"
        }
      ],
      "name": "Initialized",
      "type": "event"
    },
    {
      "inputs": [
        {
          "internalType": "contract IFantosiToken",
          "name": "",
          "type": "address"
        }
      ],
      "name": "auctionMap",
      "outputs": [
        {
          "internalType": "contract IFantosiAuctionHouse",
          "name": "",
          "type": "address"
        }
      ],
      "stateMutability": "view",
      "type": "function"
    },
    {
      "inputs": [
        {
          "internalType": "string",
          "name": "",
          "type": "string"
        }
      ],
      "name": "fantosiTokenList",
      "outputs": [
        {
          "internalType": "contract IFantosiToken",
          "name": "",
          "type": "address"
        }
      ],
      "stateMutability": "view",
      "type": "function"
    },
    {
      "inputs": [
        {
          "internalType": "uint256",
          "name": "",
          "type": "uint256"
        }
      ],
      "name": "fantosiTokens",
      "outputs": [
        {
          "internalType": "contract IFantosiToken",
          "name": "",
          "type": "address"
        }
      ],
      "stateMutability": "view",
      "type": "function"
    },
    {
      "inputs": [],
      "name": "getAllPhotoCardInfo",
      "outputs": [
        {
          "components": [
            {
              "internalType": "string",
              "name": "metadataURI",
              "type": "string"
            },
            {
              "components": [
                {
                  "internalType": "uint256",
                  "name": "photoCardId",
                  "type": "uint256"
                },
                {
                  "internalType": "uint256",
                  "name": "amount",
                  "type": "uint256"
                },
                {
                  "internalType": "uint256",
                  "name": "startTime",
                  "type": "uint256"
                },
                {
                  "internalType": "uint256",
                  "name": "finalAuctionTime",
                  "type": "uint256"
                },
                {
                  "internalType": "uint256",
                  "name": "endTime",
                  "type": "uint256"
                },
                {
                  "internalType": "address payable",
                  "name": "bidder",
                  "type": "address"
                },
                {
                  "internalType": "bool",
                  "name": "isFinalBid",
                  "type": "bool"
                },
                {
                  "internalType": "bool",
                  "name": "settled",
                  "type": "bool"
                }
              ],
              "internalType": "struct IFantosiAuctionHouse.Auction",
              "name": "currentAuction",
              "type": "tuple"
            }
          ],
          "internalType": "struct FantosiView.PhotoCardInfo[]",
          "name": "allPhotoCardInfo",
          "type": "tuple[]"
        }
      ],
      "stateMutability": "view",
      "type": "function"
    },
    {
      "inputs": [
        {
          "internalType": "string",
          "name": "key",
          "type": "string"
        }
      ],
      "name": "getArtistPhotoCardHistoryInfo",
      "outputs": [
        {
          "components": [
            {
              "internalType": "string",
              "name": "metadataURI",
              "type": "string"
            },
            {
              "components": [
                {
                  "internalType": "uint256",
                  "name": "photoCardId",
                  "type": "uint256"
                },
                {
                  "internalType": "uint256",
                  "name": "amount",
                  "type": "uint256"
                },
                {
                  "internalType": "uint256",
                  "name": "startTime",
                  "type": "uint256"
                },
                {
                  "internalType": "uint256",
                  "name": "finalAuctionTime",
                  "type": "uint256"
                },
                {
                  "internalType": "uint256",
                  "name": "endTime",
                  "type": "uint256"
                },
                {
                  "internalType": "address payable",
                  "name": "bidder",
                  "type": "address"
                },
                {
                  "internalType": "bool",
                  "name": "isFinalBid",
                  "type": "bool"
                },
                {
                  "internalType": "bool",
                  "name": "settled",
                  "type": "bool"
                }
              ],
              "internalType": "struct IFantosiAuctionHouse.Auction",
              "name": "currentAuction",
              "type": "tuple"
            }
          ],
          "internalType": "struct FantosiView.PhotoCardInfo[]",
          "name": "allPhotoCardInfo",
          "type": "tuple[]"
        }
      ],
      "stateMutability": "view",
      "type": "function"
    },
    {
      "inputs": [
        {
          "internalType": "string",
          "name": "key",
          "type": "string"
        }
      ],
      "name": "getArtistPhotoCardInfo",
      "outputs": [
        {
          "components": [
            {
              "internalType": "string",
              "name": "metadataURI",
              "type": "string"
            },
            {
              "components": [
                {
                  "internalType": "uint256",
                  "name": "photoCardId",
                  "type": "uint256"
                },
                {
                  "internalType": "uint256",
                  "name": "amount",
                  "type": "uint256"
                },
                {
                  "internalType": "uint256",
                  "name": "startTime",
                  "type": "uint256"
                },
                {
                  "internalType": "uint256",
                  "name": "finalAuctionTime",
                  "type": "uint256"
                },
                {
                  "internalType": "uint256",
                  "name": "endTime",
                  "type": "uint256"
                },
                {
                  "internalType": "address payable",
                  "name": "bidder",
                  "type": "address"
                },
                {
                  "internalType": "bool",
                  "name": "isFinalBid",
                  "type": "bool"
                },
                {
                  "internalType": "bool",
                  "name": "settled",
                  "type": "bool"
                }
              ],
              "internalType": "struct IFantosiAuctionHouse.Auction",
              "name": "currentAuction",
              "type": "tuple"
            }
          ],
          "internalType": "struct FantosiView.PhotoCardInfo",
          "name": "photoCardInfo",
          "type": "tuple"
        }
      ],
      "stateMutability": "view",
      "type": "function"
    },
    {
      "inputs": [
        {
          "internalType": "string",
          "name": "key",
          "type": "string"
        }
      ],
      "name": "getFantosiTokenAddress",
      "outputs": [
        {
          "internalType": "contract IFantosiToken",
          "name": "",
          "type": "address"
        }
      ],
      "stateMutability": "view",
      "type": "function"
    },
    {
      "inputs": [],
      "name": "initialize",
      "outputs": [],
      "stateMutability": "nonpayable",
      "type": "function"
    },
    {
      "inputs": [
        {
          "internalType": "string",
          "name": "key",
          "type": "string"
        },
        {
          "internalType": "contract IFantosiToken",
          "name": "fantosiToken",
          "type": "address"
        }
      ],
      "name": "setFantosiTokenAddress",
      "outputs": [],
      "stateMutability": "nonpayable",
      "type": "function"
    },
    {
      "inputs": [
        {
          "internalType": "contract IFantosiToken",
          "name": "fantosiToken",
          "type": "address"
        },
        {
          "internalType": "contract IFantosiAuctionHouse",
          "name": "fantosiAuctionHouse",
          "type": "address"
        }
      ],
      "name": "setFantosiTokenAuctionHouse",
      "outputs": [],
      "stateMutability": "nonpayable",
      "type": "function"
    }
  ],
  "bytecode": "0x608060405234801561001057600080fd5b50610f8a806100206000396000f3fe608060405234801561001057600080fd5b506004361061009e5760003560e01c8063b069828a11610066578063b069828a14610178578063b43132551461018b578063b50d521f1461019e578063ce69e9d3146101be578063db72d433146101d157600080fd5b80634093a876146100a35780635922eb9f146100f45780636d75d2911461011d5780638129fc1c1461015b578063939bdac314610163575b600080fd5b6100d76100b1366004610a25565b80516020818301810180516002825292820191909301209152546001600160a01b031681565b6040516001600160a01b0390911681526020015b60405180910390f35b6100d7610102366004610a77565b6003602052600090815260409020546001600160a01b031681565b61015961012b366004610a94565b6001600160a01b03918216600090815260036020526040902080546001600160a01b03191691909216179055565b005b6101596101e4565b61016b610251565b6040516100eb9190610b9b565b6100d7610186366004610bfd565b61036d565b61016b610199366004610a25565b610397565b6101b16101ac366004610a25565b610680565b6040516100eb9190610c16565b6101596101cc366004610c29565b6106a5565b6100d76101df366004610a25565b610724565b60006101f06001610755565b90508015610208576000805461ff0019166101001790555b801561024e576000805461ff0019169055604051600181527f7f26b83ff96e1f2b6a682f133852f6798a09c465da95921460cefb38474024989060200160405180910390a15b50565b6060600060018054806020026020016040519081016040528092919081815260200182805480156102ab57602002820191906000526020600020905b81546001600160a01b0316815260019091019060200180831161028d575b50508351939450839250505067ffffffffffffffff8111156102cf576102cf610960565b60405190808252806020026020018201604052801561030857816020015b6102f56108ef565b8152602001906001900390816102ed5790505b50925060005b818110156103675761033883828151811061032b5761032b610c70565b60200260200101516107eb565b84828151811061034a5761034a610c70565b6020908102919091010152610360600182610c9c565b905061030e565b50505090565b6001818154811061037d57600080fd5b6000918252602090912001546001600160a01b0316905081565b606060006103a483610724565b6001600160a01b038082166000908152600360209081526040808320548151639eafe29f60e01b815291519596509093169391928492639eafe29f926004808401939192918290030181865afa158015610402573d6000803e3d6000fd5b505050506040513d601f19601f820116820180604052508101906104269190610cb4565b905060008167ffffffffffffffff81111561044357610443610960565b60405190808252806020026020018201604052801561047c57816020015b61046961090e565b8152602001906001900390816104615790505b509050826001600160a01b031663acaff8776040518163ffffffff1660e01b8152600401600060405180830381865afa1580156104bd573d6000803e3d6000fd5b505050506040513d6000823e601f3d908101601f191682016040526104e59190810190610d87565b90506104f2826001610c9c565b67ffffffffffffffff81111561050a5761050a610960565b60405190808252806020026020018201604052801561054357816020015b6105306108ef565b8152602001906001900390816105285790505b50945060005b828110156106505781818151811061056357610563610c70565b602002602001015186828151811061057d5761057d610c70565b602002602001015160200181905250846001600160a01b0316633bb3a24d8783815181106105ad576105ad610c70565b602002602001015160200151600001516040518263ffffffff1660e01b81526004016105db91815260200190565b600060405180830381865afa1580156105f8573d6000803e3d6000fd5b505050506040513d6000823e601f3d908101601f191682016040526106209190810190610e3b565b86828151811061063257610632610c70565b6020908102919091010151528061064881610eb2565b915050610549565b5061065a846107eb565b85838151811061066c5761066c610c70565b602002602001018190525050505050919050565b6106886108ef565b600061069383610724565b905061069e816107eb565b9392505050565b806002836040516106b69190610ecd565b90815260405190819003602001902080546001600160a01b039283166001600160a01b0319918216179091556001805480820182556000919091527fb10e2d527612073b26eecdfd717e6a320cf44b4afac2b0732d9fcbe2b7fa0cf601805493909216921691909117905550565b60006002826040516107369190610ecd565b908152604051908190036020019020546001600160a01b031692915050565b60008054610100900460ff16156107a5578160ff1660011480156107785750303b155b61079d5760405162461bcd60e51b815260040161079490610ee9565b60405180910390fd5b506000919050565b60005460ff8084169116106107cc5760405162461bcd60e51b815260040161079490610ee9565b506000805460ff191660ff92909216919091179055600190565b919050565b6107f36108ef565b6001600160a01b0380831660009081526003602052604090819020548151636e5b378960e11b81529151921691829163dcb66f12916004808301926101009291908290030181865afa15801561084d573d6000803e3d6000fd5b505050506040513d601f19601f820116820180604052508101906108719190610f37565b6020830181905251604051633bb3a24d60e01b815260048101919091526001600160a01b03841690633bb3a24d90602401600060405180830381865afa1580156108bf573d6000803e3d6000fd5b505050506040513d6000823e601f3d908101601f191682016040526108e79190810190610e3b565b825250919050565b60405180604001604052806060815260200161090961090e565b905290565b604051806101000160405280600081526020016000815260200160008152602001600081526020016000815260200160006001600160a01b031681526020016000151581526020016000151581525090565b634e487b7160e01b600052604160045260246000fd5b604051601f8201601f1916810167ffffffffffffffff8111828210171561099f5761099f610960565b604052919050565b600067ffffffffffffffff8211156109c1576109c1610960565b50601f01601f191660200190565b600082601f8301126109e057600080fd5b81356109f36109ee826109a7565b610976565b818152846020838601011115610a0857600080fd5b816020850160208301376000918101602001919091529392505050565b600060208284031215610a3757600080fd5b813567ffffffffffffffff811115610a4e57600080fd5b610a5a848285016109cf565b949350505050565b6001600160a01b038116811461024e57600080fd5b600060208284031215610a8957600080fd5b813561069e81610a62565b60008060408385031215610aa757600080fd5b8235610ab281610a62565b91506020830135610ac281610a62565b809150509250929050565b60005b83811015610ae8578181015183820152602001610ad0565b83811115610af7576000848401525b50505050565b60006101208251818552805180838701526101409250610b238184880160208501610acd565b6020850151915081516020870152602082015160408701526040820151606087015260608201516080870152608082015160a087015260018060a01b0360a08301511660c087015260c0820151151560e087015260e0820151151561010087015282601f19601f830116870101935050505092915050565b6000602080830181845280855180835260408601915060408160051b870101925083870160005b82811015610bf057603f19888603018452610bde858351610afd565b94509285019290850190600101610bc2565b5092979650505050505050565b600060208284031215610c0f57600080fd5b5035919050565b60208152600061069e6020830184610afd565b60008060408385031215610c3c57600080fd5b823567ffffffffffffffff811115610c5357600080fd5b610c5f858286016109cf565b9250506020830135610ac281610a62565b634e487b7160e01b600052603260045260246000fd5b634e487b7160e01b600052601160045260246000fd5b60008219821115610caf57610caf610c86565b500190565b600060208284031215610cc657600080fd5b5051919050565b805180151581146107e657600080fd5b6000610100808385031215610cf157600080fd5b6040519081019067ffffffffffffffff82118183101715610d1457610d14610960565b81604052809250835181526020840151602082015260408401516040820152606084015160608201526080840151608082015260a08401519150610d5782610a62565b8160a0820152610d6960c08501610ccd565b60c0820152610d7a60e08501610ccd565b60e0820152505092915050565b60006020808385031215610d9a57600080fd5b825167ffffffffffffffff80821115610db257600080fd5b818501915085601f830112610dc657600080fd5b815181811115610dd857610dd8610960565b610de6848260051b01610976565b818152848101925060089190911b830184019087821115610e0657600080fd5b928401925b81841015610e3057610e1d8885610cdd565b8352848301925061010084019350610e0b565b979650505050505050565b600060208284031215610e4d57600080fd5b815167ffffffffffffffff811115610e6457600080fd5b8201601f81018413610e7557600080fd5b8051610e836109ee826109a7565b818152856020838501011115610e9857600080fd5b610ea9826020830160208601610acd565b95945050505050565b6000600019821415610ec657610ec6610c86565b5060010190565b60008251610edf818460208701610acd565b9190910192915050565b6020808252602e908201527f496e697469616c697a61626c653a20636f6e747261637420697320616c72656160408201526d191e481a5b9a5d1a585b1a5e995960921b606082015260800190565b60006101008284031215610f4a57600080fd5b61069e8383610cdd56fea2646970667358221220aca833892a2e627f4f87a1edde90e51adb61037298ab5e2966e45caec30e248164736f6c634300080b0033",
  "linkReferences": {},
  "deployedLinkReferences": {}
}