{
  "_format": "hh-sol-artifact-1",
  "contractName": "FantosiDAOLogic",
  "sourceName": "src/governance/FantosiDAOLogic.sol",
  "abi": [
    {
      "inputs": [
        {
          "internalType": "address",
          "name": "timelock_",
          "type": "address"
        },
        {
          "internalType": "address",
          "name": "fantosiToken_",
          "type": "address"
        },
        {
          "internalType": "address",
          "name": "vetoer_",
          "type": "address"
        },
        {
          "internalType": "address",
          "name": "admin_",
          "type": "address"
        },
        {
          "internalType": "uint256",
          "name": "votingPeriod_",
          "type": "uint256"
        },
        {
          "internalType": "uint256",
          "name": "votingDelay_",
          "type": "uint256"
        },
        {
          "internalType": "uint256",
          "name": "proposalThresholdBPS_",
          "type": "uint256"
        },
        {
          "components": [
            {
              "internalType": "uint16",
              "name": "minQuorumVotesBPS",
              "type": "uint16"
            },
            {
              "internalType": "uint16",
              "name": "maxQuorumVotesBPS",
              "type": "uint16"
            },
            {
              "internalType": "uint32",
              "name": "quorumCoefficient",
              "type": "uint32"
            }
          ],
          "internalType": "struct FantosiDAOStorageV2.DynamicQuorumParams",
          "name": "dynamicQuorumParams_",
          "type": "tuple"
        }
      ],
      "stateMutability": "nonpayable",
      "type": "constructor"
    },
    {
      "inputs": [],
      "name": "AdminOnly",
      "type": "error"
    },
    {
      "inputs": [],
      "name": "CantCancelExecutedProposal",
      "type": "error"
    },
    {
      "inputs": [],
      "name": "CantVetoExecutedProposal",
      "type": "error"
    },
    {
      "inputs": [],
      "name": "InvalidMaxQuorumVotesBPS",
      "type": "error"
    },
    {
      "inputs": [],
      "name": "InvalidMinQuorumVotesBPS",
      "type": "error"
    },
    {
      "inputs": [],
      "name": "MinQuorumBPSGreaterThanMaxQuorumBPS",
      "type": "error"
    },
    {
      "inputs": [],
      "name": "PendingVetoerOnly",
      "type": "error"
    },
    {
      "inputs": [],
      "name": "UnsafeUint16Cast",
      "type": "error"
    },
    {
      "inputs": [],
      "name": "VetoerBurned",
      "type": "error"
    },
    {
      "inputs": [],
      "name": "VetoerOnly",
      "type": "error"
    },
    {
      "anonymous": false,
      "inputs": [
        {
          "indexed": false,
          "internalType": "uint16",
          "name": "oldMaxQuorumVotesBPS",
          "type": "uint16"
        },
        {
          "indexed": false,
          "internalType": "uint16",
          "name": "newMaxQuorumVotesBPS",
          "type": "uint16"
        }
      ],
      "name": "MaxQuorumVotesBPSSet",
      "type": "event"
    },
    {
      "anonymous": false,
      "inputs": [
        {
          "indexed": false,
          "internalType": "uint16",
          "name": "oldMinQuorumVotesBPS",
          "type": "uint16"
        },
        {
          "indexed": false,
          "internalType": "uint16",
          "name": "newMinQuorumVotesBPS",
          "type": "uint16"
        }
      ],
      "name": "MinQuorumVotesBPSSet",
      "type": "event"
    },
    {
      "anonymous": false,
      "inputs": [
        {
          "indexed": false,
          "internalType": "address",
          "name": "oldAdmin",
          "type": "address"
        },
        {
          "indexed": false,
          "internalType": "address",
          "name": "newAdmin",
          "type": "address"
        }
      ],
      "name": "NewAdmin",
      "type": "event"
    },
    {
      "anonymous": false,
      "inputs": [
        {
          "indexed": false,
          "internalType": "address",
          "name": "oldImplementation",
          "type": "address"
        },
        {
          "indexed": false,
          "internalType": "address",
          "name": "newImplementation",
          "type": "address"
        }
      ],
      "name": "NewImplementation",
      "type": "event"
    },
    {
      "anonymous": false,
      "inputs": [
        {
          "indexed": false,
          "internalType": "address",
          "name": "oldPendingAdmin",
          "type": "address"
        },
        {
          "indexed": false,
          "internalType": "address",
          "name": "newPendingAdmin",
          "type": "address"
        }
      ],
      "name": "NewPendingAdmin",
      "type": "event"
    },
    {
      "anonymous": false,
      "inputs": [
        {
          "indexed": false,
          "internalType": "address",
          "name": "oldPendingVetoer",
          "type": "address"
        },
        {
          "indexed": false,
          "internalType": "address",
          "name": "newPendingVetoer",
          "type": "address"
        }
      ],
      "name": "NewPendingVetoer",
      "type": "event"
    },
    {
      "anonymous": false,
      "inputs": [
        {
          "indexed": false,
          "internalType": "address",
          "name": "oldVetoer",
          "type": "address"
        },
        {
          "indexed": false,
          "internalType": "address",
          "name": "newVetoer",
          "type": "address"
        }
      ],
      "name": "NewVetoer",
      "type": "event"
    },
    {
      "anonymous": false,
      "inputs": [
        {
          "indexed": false,
          "internalType": "uint256",
          "name": "id",
          "type": "uint256"
        }
      ],
      "name": "ProposalCanceled",
      "type": "event"
    },
    {
      "anonymous": false,
      "inputs": [
        {
          "indexed": false,
          "internalType": "uint256",
          "name": "id",
          "type": "uint256"
        },
        {
          "indexed": false,
          "internalType": "address",
          "name": "proposer",
          "type": "address"
        },
        {
          "indexed": false,
          "internalType": "address[]",
          "name": "targets",
          "type": "address[]"
        },
        {
          "indexed": false,
          "internalType": "uint256[]",
          "name": "values",
          "type": "uint256[]"
        },
        {
          "indexed": false,
          "internalType": "string[]",
          "name": "signatures",
          "type": "string[]"
        },
        {
          "indexed": false,
          "internalType": "bytes[]",
          "name": "calldatas",
          "type": "bytes[]"
        },
        {
          "indexed": false,
          "internalType": "uint256",
          "name": "startBlock",
          "type": "uint256"
        },
        {
          "indexed": false,
          "internalType": "uint256",
          "name": "endBlock",
          "type": "uint256"
        },
        {
          "indexed": false,
          "internalType": "string",
          "name": "description",
          "type": "string"
        }
      ],
      "name": "ProposalCreated",
      "type": "event"
    },
    {
      "anonymous": false,
      "inputs": [
        {
          "indexed": false,
          "internalType": "uint256",
          "name": "id",
          "type": "uint256"
        },
        {
          "indexed": false,
          "internalType": "address",
          "name": "proposer",
          "type": "address"
        },
        {
          "indexed": false,
          "internalType": "address[]",
          "name": "targets",
          "type": "address[]"
        },
        {
          "indexed": false,
          "internalType": "uint256[]",
          "name": "values",
          "type": "uint256[]"
        },
        {
          "indexed": false,
          "internalType": "string[]",
          "name": "signatures",
          "type": "string[]"
        },
        {
          "indexed": false,
          "internalType": "bytes[]",
          "name": "calldatas",
          "type": "bytes[]"
        },
        {
          "indexed": false,
          "internalType": "uint256",
          "name": "startBlock",
          "type": "uint256"
        },
        {
          "indexed": false,
          "internalType": "uint256",
          "name": "endBlock",
          "type": "uint256"
        },
        {
          "indexed": false,
          "internalType": "uint256",
          "name": "proposalThreshold",
          "type": "uint256"
        },
        {
          "indexed": false,
          "internalType": "uint256",
          "name": "quorumVotes",
          "type": "uint256"
        },
        {
          "indexed": false,
          "internalType": "string",
          "name": "description",
          "type": "string"
        }
      ],
      "name": "ProposalCreatedWithRequirements",
      "type": "event"
    },
    {
      "anonymous": false,
      "inputs": [
        {
          "indexed": false,
          "internalType": "uint256",
          "name": "id",
          "type": "uint256"
        }
      ],
      "name": "ProposalExecuted",
      "type": "event"
    },
    {
      "anonymous": false,
      "inputs": [
        {
          "indexed": false,
          "internalType": "uint256",
          "name": "id",
          "type": "uint256"
        },
        {
          "indexed": false,
          "internalType": "uint256",
          "name": "eta",
          "type": "uint256"
        }
      ],
      "name": "ProposalQueued",
      "type": "event"
    },
    {
      "anonymous": false,
      "inputs": [
        {
          "indexed": false,
          "internalType": "uint256",
          "name": "oldProposalThresholdBPS",
          "type": "uint256"
        },
        {
          "indexed": false,
          "internalType": "uint256",
          "name": "newProposalThresholdBPS",
          "type": "uint256"
        }
      ],
      "name": "ProposalThresholdBPSSet",
      "type": "event"
    },
    {
      "anonymous": false,
      "inputs": [
        {
          "indexed": false,
          "internalType": "uint256",
          "name": "id",
          "type": "uint256"
        }
      ],
      "name": "ProposalVetoed",
      "type": "event"
    },
    {
      "anonymous": false,
      "inputs": [
        {
          "indexed": false,
          "internalType": "uint32",
          "name": "oldQuorumCoefficient",
          "type": "uint32"
        },
        {
          "indexed": false,
          "internalType": "uint32",
          "name": "newQuorumCoefficient",
          "type": "uint32"
        }
      ],
      "name": "QuorumCoefficientSet",
      "type": "event"
    },
    {
      "anonymous": false,
      "inputs": [
        {
          "indexed": false,
          "internalType": "uint256",
          "name": "oldQuorumVotesBPS",
          "type": "uint256"
        },
        {
          "indexed": false,
          "internalType": "uint256",
          "name": "newQuorumVotesBPS",
          "type": "uint256"
        }
      ],
      "name": "QuorumVotesBPSSet",
      "type": "event"
    },
    {
      "anonymous": false,
      "inputs": [
        {
          "indexed": true,
          "internalType": "address",
          "name": "voter",
          "type": "address"
        },
        {
          "indexed": false,
          "internalType": "uint256",
          "name": "refundAmount",
          "type": "uint256"
        },
        {
          "indexed": false,
          "internalType": "bool",
          "name": "refundSent",
          "type": "bool"
        }
      ],
      "name": "RefundableVote",
      "type": "event"
    },
    {
      "anonymous": false,
      "inputs": [
        {
          "indexed": true,
          "internalType": "address",
          "name": "voter",
          "type": "address"
        },
        {
          "indexed": false,
          "internalType": "uint256",
          "name": "proposalId",
          "type": "uint256"
        },
        {
          "indexed": false,
          "internalType": "uint8",
          "name": "support",
          "type": "uint8"
        },
        {
          "indexed": false,
          "internalType": "uint256",
          "name": "votes",
          "type": "uint256"
        },
        {
          "indexed": false,
          "internalType": "string",
          "name": "reason",
          "type": "string"
        }
      ],
      "name": "VoteCast",
      "type": "event"
    },
    {
      "anonymous": false,
      "inputs": [
        {
          "indexed": false,
          "internalType": "uint256",
          "name": "oldVotingDelay",
          "type": "uint256"
        },
        {
          "indexed": false,
          "internalType": "uint256",
          "name": "newVotingDelay",
          "type": "uint256"
        }
      ],
      "name": "VotingDelaySet",
      "type": "event"
    },
    {
      "anonymous": false,
      "inputs": [
        {
          "indexed": false,
          "internalType": "uint256",
          "name": "oldVotingPeriod",
          "type": "uint256"
        },
        {
          "indexed": false,
          "internalType": "uint256",
          "name": "newVotingPeriod",
          "type": "uint256"
        }
      ],
      "name": "VotingPeriodSet",
      "type": "event"
    },
    {
      "anonymous": false,
      "inputs": [
        {
          "indexed": false,
          "internalType": "uint256",
          "name": "amount",
          "type": "uint256"
        },
        {
          "indexed": false,
          "internalType": "bool",
          "name": "sent",
          "type": "bool"
        }
      ],
      "name": "Withdraw",
      "type": "event"
    },
    {
      "inputs": [],
      "name": "BALLOT_TYPEHASH",
      "outputs": [
        {
          "internalType": "bytes32",
          "name": "",
          "type": "bytes32"
        }
      ],
      "stateMutability": "view",
      "type": "function"
    },
    {
      "inputs": [],
      "name": "DOMAIN_TYPEHASH",
      "outputs": [
        {
          "internalType": "bytes32",
          "name": "",
          "type": "bytes32"
        }
      ],
      "stateMutability": "view",
      "type": "function"
    },
    {
      "inputs": [],
      "name": "MAX_PROPOSAL_THRESHOLD_BPS",
      "outputs": [
        {
          "internalType": "uint256",
          "name": "",
          "type": "uint256"
        }
      ],
      "stateMutability": "view",
      "type": "function"
    },
    {
      "inputs": [],
      "name": "MAX_QUORUM_VOTES_BPS",
      "outputs": [
        {
          "internalType": "uint256",
          "name": "",
          "type": "uint256"
        }
      ],
      "stateMutability": "view",
      "type": "function"
    },
    {
      "inputs": [],
      "name": "MAX_QUORUM_VOTES_BPS_UPPER_BOUND",
      "outputs": [
        {
          "internalType": "uint256",
          "name": "",
          "type": "uint256"
        }
      ],
      "stateMutability": "view",
      "type": "function"
    },
    {
      "inputs": [],
      "name": "MAX_REFUND_BASE_FEE",
      "outputs": [
        {
          "internalType": "uint256",
          "name": "",
          "type": "uint256"
        }
      ],
      "stateMutability": "view",
      "type": "function"
    },
    {
      "inputs": [],
      "name": "MAX_REFUND_GAS_USED",
      "outputs": [
        {
          "internalType": "uint256",
          "name": "",
          "type": "uint256"
        }
      ],
      "stateMutability": "view",
      "type": "function"
    },
    {
      "inputs": [],
      "name": "MAX_REFUND_PRIORITY_FEE",
      "outputs": [
        {
          "internalType": "uint256",
          "name": "",
          "type": "uint256"
        }
      ],
      "stateMutability": "view",
      "type": "function"
    },
    {
      "inputs": [],
      "name": "MAX_VOTING_DELAY",
      "outputs": [
        {
          "internalType": "uint256",
          "name": "",
          "type": "uint256"
        }
      ],
      "stateMutability": "view",
      "type": "function"
    },
    {
      "inputs": [],
      "name": "MAX_VOTING_PERIOD",
      "outputs": [
        {
          "internalType": "uint256",
          "name": "",
          "type": "uint256"
        }
      ],
      "stateMutability": "view",
      "type": "function"
    },
    {
      "inputs": [],
      "name": "MIN_PROPOSAL_THRESHOLD_BPS",
      "outputs": [
        {
          "internalType": "uint256",
          "name": "",
          "type": "uint256"
        }
      ],
      "stateMutability": "view",
      "type": "function"
    },
    {
      "inputs": [],
      "name": "MIN_QUORUM_VOTES_BPS_LOWER_BOUND",
      "outputs": [
        {
          "internalType": "uint256",
          "name": "",
          "type": "uint256"
        }
      ],
      "stateMutability": "view",
      "type": "function"
    },
    {
      "inputs": [],
      "name": "MIN_QUORUM_VOTES_BPS_UPPER_BOUND",
      "outputs": [
        {
          "internalType": "uint256",
          "name": "",
          "type": "uint256"
        }
      ],
      "stateMutability": "view",
      "type": "function"
    },
    {
      "inputs": [],
      "name": "MIN_VOTING_DELAY",
      "outputs": [
        {
          "internalType": "uint256",
          "name": "",
          "type": "uint256"
        }
      ],
      "stateMutability": "view",
      "type": "function"
    },
    {
      "inputs": [],
      "name": "MIN_VOTING_PERIOD",
      "outputs": [
        {
          "internalType": "uint256",
          "name": "",
          "type": "uint256"
        }
      ],
      "stateMutability": "view",
      "type": "function"
    },
    {
      "inputs": [],
      "name": "REFUND_BASE_GAS",
      "outputs": [
        {
          "internalType": "uint256",
          "name": "",
          "type": "uint256"
        }
      ],
      "stateMutability": "view",
      "type": "function"
    },
    {
      "inputs": [],
      "name": "_acceptAdmin",
      "outputs": [],
      "stateMutability": "nonpayable",
      "type": "function"
    },
    {
      "inputs": [],
      "name": "_acceptVetoer",
      "outputs": [],
      "stateMutability": "nonpayable",
      "type": "function"
    },
    {
      "inputs": [],
      "name": "_burnVetoPower",
      "outputs": [],
      "stateMutability": "nonpayable",
      "type": "function"
    },
    {
      "inputs": [
        {
          "internalType": "uint16",
          "name": "newMinQuorumVotesBPS",
          "type": "uint16"
        },
        {
          "internalType": "uint16",
          "name": "newMaxQuorumVotesBPS",
          "type": "uint16"
        },
        {
          "internalType": "uint32",
          "name": "newQuorumCoefficient",
          "type": "uint32"
        }
      ],
      "name": "_setDynamicQuorumParams",
      "outputs": [],
      "stateMutability": "nonpayable",
      "type": "function"
    },
    {
      "inputs": [
        {
          "internalType": "uint16",
          "name": "newMaxQuorumVotesBPS",
          "type": "uint16"
        }
      ],
      "name": "_setMaxQuorumVotesBPS",
      "outputs": [],
      "stateMutability": "nonpayable",
      "type": "function"
    },
    {
      "inputs": [
        {
          "internalType": "uint16",
          "name": "newMinQuorumVotesBPS",
          "type": "uint16"
        }
      ],
      "name": "_setMinQuorumVotesBPS",
      "outputs": [],
      "stateMutability": "nonpayable",
      "type": "function"
    },
    {
      "inputs": [
        {
          "internalType": "address",
          "name": "newPendingAdmin",
          "type": "address"
        }
      ],
      "name": "_setPendingAdmin",
      "outputs": [],
      "stateMutability": "nonpayable",
      "type": "function"
    },
    {
      "inputs": [
        {
          "internalType": "address",
          "name": "newPendingVetoer",
          "type": "address"
        }
      ],
      "name": "_setPendingVetoer",
      "outputs": [],
      "stateMutability": "nonpayable",
      "type": "function"
    },
    {
      "inputs": [
        {
          "internalType": "uint256",
          "name": "newProposalThresholdBPS",
          "type": "uint256"
        }
      ],
      "name": "_setProposalThresholdBPS",
      "outputs": [],
      "stateMutability": "nonpayable",
      "type": "function"
    },
    {
      "inputs": [
        {
          "internalType": "uint32",
          "name": "newQuorumCoefficient",
          "type": "uint32"
        }
      ],
      "name": "_setQuorumCoefficient",
      "outputs": [],
      "stateMutability": "nonpayable",
      "type": "function"
    },
    {
      "inputs": [
        {
          "internalType": "uint256",
          "name": "newVotingDelay",
          "type": "uint256"
        }
      ],
      "name": "_setVotingDelay",
      "outputs": [],
      "stateMutability": "nonpayable",
      "type": "function"
    },
    {
      "inputs": [
        {
          "internalType": "uint256",
          "name": "newVotingPeriod",
          "type": "uint256"
        }
      ],
      "name": "_setVotingPeriod",
      "outputs": [],
      "stateMutability": "nonpayable",
      "type": "function"
    },
    {
      "inputs": [],
      "name": "_withdraw",
      "outputs": [
        {
          "internalType": "uint256",
          "name": "",
          "type": "uint256"
        },
        {
          "internalType": "bool",
          "name": "",
          "type": "bool"
        }
      ],
      "stateMutability": "nonpayable",
      "type": "function"
    },
    {
      "inputs": [],
      "name": "admin",
      "outputs": [
        {
          "internalType": "address",
          "name": "",
          "type": "address"
        }
      ],
      "stateMutability": "view",
      "type": "function"
    },
    {
      "inputs": [
        {
          "internalType": "uint256",
          "name": "proposalId",
          "type": "uint256"
        }
      ],
      "name": "cancel",
      "outputs": [],
      "stateMutability": "nonpayable",
      "type": "function"
    },
    {
      "inputs": [
        {
          "internalType": "uint256",
          "name": "proposalId",
          "type": "uint256"
        },
        {
          "internalType": "uint8",
          "name": "support",
          "type": "uint8"
        }
      ],
      "name": "castRefundableVote",
      "outputs": [],
      "stateMutability": "nonpayable",
      "type": "function"
    },
    {
      "inputs": [
        {
          "internalType": "uint256",
          "name": "proposalId",
          "type": "uint256"
        },
        {
          "internalType": "uint8",
          "name": "support",
          "type": "uint8"
        },
        {
          "internalType": "string",
          "name": "reason",
          "type": "string"
        }
      ],
      "name": "castRefundableVoteWithReason",
      "outputs": [],
      "stateMutability": "nonpayable",
      "type": "function"
    },
    {
      "inputs": [
        {
          "internalType": "uint256",
          "name": "proposalId",
          "type": "uint256"
        },
        {
          "internalType": "uint8",
          "name": "support",
          "type": "uint8"
        }
      ],
      "name": "castVote",
      "outputs": [],
      "stateMutability": "nonpayable",
      "type": "function"
    },
    {
      "inputs": [
        {
          "internalType": "uint256",
          "name": "proposalId",
          "type": "uint256"
        },
        {
          "internalType": "uint8",
          "name": "support",
          "type": "uint8"
        },
        {
          "internalType": "uint8",
          "name": "v",
          "type": "uint8"
        },
        {
          "internalType": "bytes32",
          "name": "r",
          "type": "bytes32"
        },
        {
          "internalType": "bytes32",
          "name": "s",
          "type": "bytes32"
        }
      ],
      "name": "castVoteBySig",
      "outputs": [],
      "stateMutability": "nonpayable",
      "type": "function"
    },
    {
      "inputs": [
        {
          "internalType": "uint256",
          "name": "proposalId",
          "type": "uint256"
        },
        {
          "internalType": "uint8",
          "name": "support",
          "type": "uint8"
        },
        {
          "internalType": "string",
          "name": "reason",
          "type": "string"
        }
      ],
      "name": "castVoteWithReason",
      "outputs": [],
      "stateMutability": "nonpayable",
      "type": "function"
    },
    {
      "inputs": [
        {
          "internalType": "uint256",
          "name": "againstVotes",
          "type": "uint256"
        },
        {
          "internalType": "uint256",
          "name": "totalSupply",
          "type": "uint256"
        },
        {
          "components": [
            {
              "internalType": "uint16",
              "name": "minQuorumVotesBPS",
              "type": "uint16"
            },
            {
              "internalType": "uint16",
              "name": "maxQuorumVotesBPS",
              "type": "uint16"
            },
            {
              "internalType": "uint32",
              "name": "quorumCoefficient",
              "type": "uint32"
            }
          ],
          "internalType": "struct FantosiDAOStorageV2.DynamicQuorumParams",
          "name": "params",
          "type": "tuple"
        }
      ],
      "name": "dynamicQuorumVotes",
      "outputs": [
        {
          "internalType": "uint256",
          "name": "",
          "type": "uint256"
        }
      ],
      "stateMutability": "pure",
      "type": "function"
    },
    {
      "inputs": [
        {
          "internalType": "uint256",
          "name": "proposalId",
          "type": "uint256"
        }
      ],
      "name": "execute",
      "outputs": [],
      "stateMutability": "nonpayable",
      "type": "function"
    },
    {
      "inputs": [],
      "name": "fantosiToken",
      "outputs": [
        {
          "internalType": "contract FantosiTokenLike",
          "name": "",
          "type": "address"
        }
      ],
      "stateMutability": "view",
      "type": "function"
    },
    {
      "inputs": [
        {
          "internalType": "uint256",
          "name": "proposalId",
          "type": "uint256"
        }
      ],
      "name": "getActions",
      "outputs": [
        {
          "internalType": "address[]",
          "name": "targets",
          "type": "address[]"
        },
        {
          "internalType": "uint256[]",
          "name": "values",
          "type": "uint256[]"
        },
        {
          "internalType": "string[]",
          "name": "signatures",
          "type": "string[]"
        },
        {
          "internalType": "bytes[]",
          "name": "calldatas",
          "type": "bytes[]"
        }
      ],
      "stateMutability": "view",
      "type": "function"
    },
    {
      "inputs": [
        {
          "internalType": "uint256",
          "name": "blockNumber_",
          "type": "uint256"
        }
      ],
      "name": "getDynamicQuorumParamsAt",
      "outputs": [
        {
          "components": [
            {
              "internalType": "uint16",
              "name": "minQuorumVotesBPS",
              "type": "uint16"
            },
            {
              "internalType": "uint16",
              "name": "maxQuorumVotesBPS",
              "type": "uint16"
            },
            {
              "internalType": "uint32",
              "name": "quorumCoefficient",
              "type": "uint32"
            }
          ],
          "internalType": "struct FantosiDAOStorageV2.DynamicQuorumParams",
          "name": "",
          "type": "tuple"
        }
      ],
      "stateMutability": "view",
      "type": "function"
    },
    {
      "inputs": [],
      "name": "getProposalCount",
      "outputs": [
        {
          "internalType": "uint256",
          "name": "",
          "type": "uint256"
        }
      ],
      "stateMutability": "view",
      "type": "function"
    },
    {
      "inputs": [
        {
          "internalType": "uint256",
          "name": "proposalId",
          "type": "uint256"
        },
        {
          "internalType": "address",
          "name": "voter",
          "type": "address"
        }
      ],
      "name": "getReceipt",
      "outputs": [
        {
          "components": [
            {
              "internalType": "bool",
              "name": "hasVoted",
              "type": "bool"
            },
            {
              "internalType": "uint8",
              "name": "support",
              "type": "uint8"
            },
            {
              "internalType": "uint96",
              "name": "votes",
              "type": "uint96"
            }
          ],
          "internalType": "struct FantosiDAOStorageV1Adjusted.Receipt",
          "name": "",
          "type": "tuple"
        }
      ],
      "stateMutability": "view",
      "type": "function"
    },
    {
      "inputs": [],
      "name": "implementation",
      "outputs": [
        {
          "internalType": "address",
          "name": "",
          "type": "address"
        }
      ],
      "stateMutability": "view",
      "type": "function"
    },
    {
      "inputs": [
        {
          "internalType": "address",
          "name": "",
          "type": "address"
        }
      ],
      "name": "latestProposalIds",
      "outputs": [
        {
          "internalType": "uint256",
          "name": "",
          "type": "uint256"
        }
      ],
      "stateMutability": "view",
      "type": "function"
    },
    {
      "inputs": [],
      "name": "maxQuorumVotes",
      "outputs": [
        {
          "internalType": "uint256",
          "name": "",
          "type": "uint256"
        }
      ],
      "stateMutability": "view",
      "type": "function"
    },
    {
      "inputs": [],
      "name": "minQuorumVotes",
      "outputs": [
        {
          "internalType": "uint256",
          "name": "",
          "type": "uint256"
        }
      ],
      "stateMutability": "view",
      "type": "function"
    },
    {
      "inputs": [],
      "name": "name",
      "outputs": [
        {
          "internalType": "string",
          "name": "",
          "type": "string"
        }
      ],
      "stateMutability": "view",
      "type": "function"
    },
    {
      "inputs": [],
      "name": "pendingAdmin",
      "outputs": [
        {
          "internalType": "address",
          "name": "",
          "type": "address"
        }
      ],
      "stateMutability": "view",
      "type": "function"
    },
    {
      "inputs": [],
      "name": "pendingVetoer",
      "outputs": [
        {
          "internalType": "address",
          "name": "",
          "type": "address"
        }
      ],
      "stateMutability": "view",
      "type": "function"
    },
    {
      "inputs": [],
      "name": "proposalCount",
      "outputs": [
        {
          "internalType": "uint256",
          "name": "",
          "type": "uint256"
        }
      ],
      "stateMutability": "view",
      "type": "function"
    },
    {
      "inputs": [],
      "name": "proposalMaxOperations",
      "outputs": [
        {
          "internalType": "uint256",
          "name": "",
          "type": "uint256"
        }
      ],
      "stateMutability": "view",
      "type": "function"
    },
    {
      "inputs": [],
      "name": "proposalThreshold",
      "outputs": [
        {
          "internalType": "uint256",
          "name": "",
          "type": "uint256"
        }
      ],
      "stateMutability": "view",
      "type": "function"
    },
    {
      "inputs": [],
      "name": "proposalThresholdBPS",
      "outputs": [
        {
          "internalType": "uint256",
          "name": "",
          "type": "uint256"
        }
      ],
      "stateMutability": "view",
      "type": "function"
    },
    {
      "inputs": [
        {
          "internalType": "uint256",
          "name": "proposalId",
          "type": "uint256"
        }
      ],
      "name": "proposals",
      "outputs": [
        {
          "components": [
            {
              "internalType": "uint256",
              "name": "id",
              "type": "uint256"
            },
            {
              "internalType": "address",
              "name": "proposer",
              "type": "address"
            },
            {
              "internalType": "uint256",
              "name": "proposalThreshold",
              "type": "uint256"
            },
            {
              "internalType": "uint256",
              "name": "quorumVotes",
              "type": "uint256"
            },
            {
              "internalType": "uint256",
              "name": "eta",
              "type": "uint256"
            },
            {
              "internalType": "uint256",
              "name": "startBlock",
              "type": "uint256"
            },
            {
              "internalType": "uint256",
              "name": "endBlock",
              "type": "uint256"
            },
            {
              "internalType": "uint256",
              "name": "forVotes",
              "type": "uint256"
            },
            {
              "internalType": "uint256",
              "name": "againstVotes",
              "type": "uint256"
            },
            {
              "internalType": "uint256",
              "name": "abstainVotes",
              "type": "uint256"
            },
            {
              "internalType": "bool",
              "name": "canceled",
              "type": "bool"
            },
            {
              "internalType": "bool",
              "name": "vetoed",
              "type": "bool"
            },
            {
              "internalType": "bool",
              "name": "executed",
              "type": "bool"
            },
            {
              "internalType": "uint256",
              "name": "totalSupply",
              "type": "uint256"
            },
            {
              "internalType": "uint256",
              "name": "creationBlock",
              "type": "uint256"
            },
            {
              "internalType": "address[]",
              "name": "targets",
              "type": "address[]"
            },
            {
              "internalType": "uint256[]",
              "name": "values",
              "type": "uint256[]"
            }
          ],
          "internalType": "struct FantosiDAOStorageV2.ProposalCondensed",
          "name": "",
          "type": "tuple"
        }
      ],
      "stateMutability": "view",
      "type": "function"
    },
    {
      "inputs": [
        {
          "internalType": "address[]",
          "name": "targets",
          "type": "address[]"
        },
        {
          "internalType": "uint256[]",
          "name": "values",
          "type": "uint256[]"
        },
        {
          "internalType": "string[]",
          "name": "signatures",
          "type": "string[]"
        },
        {
          "internalType": "bytes[]",
          "name": "calldatas",
          "type": "bytes[]"
        },
        {
          "internalType": "string",
          "name": "description",
          "type": "string"
        }
      ],
      "name": "propose",
      "outputs": [
        {
          "internalType": "uint256",
          "name": "",
          "type": "uint256"
        }
      ],
      "stateMutability": "nonpayable",
      "type": "function"
    },
    {
      "inputs": [
        {
          "internalType": "uint256",
          "name": "proposalId",
          "type": "uint256"
        }
      ],
      "name": "queue",
      "outputs": [],
      "stateMutability": "nonpayable",
      "type": "function"
    },
    {
      "inputs": [
        {
          "internalType": "uint256",
          "name": "",
          "type": "uint256"
        }
      ],
      "name": "quorumParamsCheckpoints",
      "outputs": [
        {
          "internalType": "uint32",
          "name": "fromBlock",
          "type": "uint32"
        },
        {
          "components": [
            {
              "internalType": "uint16",
              "name": "minQuorumVotesBPS",
              "type": "uint16"
            },
            {
              "internalType": "uint16",
              "name": "maxQuorumVotesBPS",
              "type": "uint16"
            },
            {
              "internalType": "uint32",
              "name": "quorumCoefficient",
              "type": "uint32"
            }
          ],
          "internalType": "struct FantosiDAOStorageV2.DynamicQuorumParams",
          "name": "params",
          "type": "tuple"
        }
      ],
      "stateMutability": "view",
      "type": "function"
    },
    {
      "inputs": [
        {
          "internalType": "uint256",
          "name": "proposalId",
          "type": "uint256"
        }
      ],
      "name": "quorumVotes",
      "outputs": [
        {
          "internalType": "uint256",
          "name": "",
          "type": "uint256"
        }
      ],
      "stateMutability": "view",
      "type": "function"
    },
    {
      "inputs": [],
      "name": "quorumVotesBPS",
      "outputs": [
        {
          "internalType": "uint256",
          "name": "",
          "type": "uint256"
        }
      ],
      "stateMutability": "view",
      "type": "function"
    },
    {
      "inputs": [
        {
          "internalType": "uint256",
          "name": "proposalId",
          "type": "uint256"
        }
      ],
      "name": "state",
      "outputs": [
        {
          "internalType": "enum FantosiDAOStorageV1Adjusted.ProposalState",
          "name": "",
          "type": "uint8"
        }
      ],
      "stateMutability": "view",
      "type": "function"
    },
    {
      "inputs": [],
      "name": "timelock",
      "outputs": [
        {
          "internalType": "contract IFantosiDAOExecutor",
          "name": "",
          "type": "address"
        }
      ],
      "stateMutability": "view",
      "type": "function"
    },
    {
      "inputs": [
        {
          "internalType": "uint256",
          "name": "proposalId",
          "type": "uint256"
        }
      ],
      "name": "veto",
      "outputs": [],
      "stateMutability": "nonpayable",
      "type": "function"
    },
    {
      "inputs": [],
      "name": "vetoer",
      "outputs": [
        {
          "internalType": "address",
          "name": "",
          "type": "address"
        }
      ],
      "stateMutability": "view",
      "type": "function"
    },
    {
      "inputs": [],
      "name": "votingDelay",
      "outputs": [
        {
          "internalType": "uint256",
          "name": "",
          "type": "uint256"
        }
      ],
      "stateMutability": "view",
      "type": "function"
    },
    {
      "inputs": [],
      "name": "votingPeriod",
      "outputs": [
        {
          "internalType": "uint256",
          "name": "",
          "type": "uint256"
        }
      ],
      "stateMutability": "view",
      "type": "function"
    },
    {
      "stateMutability": "payable",
      "type": "receive"
    }
  ],
  "bytecode": "0x60806040523480156200001157600080fd5b50604051620061ca380380620061ca833981016040819052620000349162000baa565b6009546001600160a01b031615620000ac5760405162461bcd60e51b815260206004820152603060248201527f46616e746f736944414f3a3a696e697469616c697a653a2063616e206f6e6c7960448201526f20696e697469616c697a65206f6e636560801b60648201526084015b60405180910390fd5b600080546001600160a01b031916331790556001600160a01b0388166200011e5760405162461bcd60e51b815260206004820152603060248201526000805160206200616883398151915260448201526f74696d656c6f636b206164647265737360801b6064820152608401620000a3565b6001600160a01b0387166200017b5760405162461bcd60e51b815260206004820152602d60248201526000805160206200616883398151915260448201526c6e6f756e73206164647265737360981b6064820152608401620000a3565b611680841015801562000191575062013b008411155b620001e45760405162461bcd60e51b815260206004820152602d60248201526000805160206200616883398151915260448201526c1d9bdd1a5b99c81c195c9a5bd9609a1b6064820152608401620000a3565b60018310158015620001f85750619d808311155b6200024a5760405162461bcd60e51b815260206004820152602c60248201526000805160206200616883398151915260448201526b766f74696e672064656c617960a01b6064820152608401620000a3565b600182101580156200025e57506103e88211155b620002c15760405162461bcd60e51b815260206004820152603660248201526000805160206200616883398151915260448201527f70726f706f73616c207468726573686f6c6420627073000000000000000000006064820152608401620000a3565b60055460408051918252602082018690527f7e3f7f0708a84de9203036abaa450dccc85ad5ff52f78c170f3edb55cf5e8828910160405180910390a160045460408051918252602082018590527fc565b045403dc03c2eea82b81a0465edad9e2e7fc4d97e11421c209da93d7a93910160405180910390a160065460408051918252602082018490527ffc216faa269bf440fb06aa490693f409461bde9cdcb949c7b9f2cb79589e7a58910160405180910390a1600980546001600160a01b03808b166001600160a01b031992831617909255600a80548a84169083161790556003805492891692909116919091179055600584905560048390556006829055805160208201516040830151620003da92919062000409565b5050600080546001600160a01b0319166001600160a01b0394909416939093179092555062000d6d9350505050565b6000546001600160a01b031633146200043557604051633057182d60e21b815260040160405180910390fd5b60c88361ffff1610806200044e57506107d08361ffff16115b156200046d5760405163db8a74af60e01b815260040160405180910390fd5b6117708261ffff161115620004955760405163143abf4360e21b815260040160405180910390fd5b8161ffff168361ffff161115620004bf576040516362c564d560e11b815260040160405180910390fd5b6000620004cc43620005e6565b6040805160608101825261ffff80881682528616602082015263ffffffff85169181019190915290915062000501816200091f565b815181516040805161ffff93841681529290911660208301527ffaeebe30d875e399189096ea49fea81bd41fe6dfc86ad3550639063219e60778910160405180910390a17f4bfb1235074b38f02e5cf8ba90f535905417c196a12654f65ee0584512d70642826020015182602001516040516200058f92919061ffff92831681529116602082015260400190565b60405180910390a160408083015182820151825163ffffffff9283168152911660208201527f5e3adb1066359dafa23c629f245d93543856115700821dcb4debc416f393c469910160405180910390a15050505050565b604080516060810182526000808252602082018190529181019190915260006200062a83604051806080016040528060428152602001620061886042913962000b1d565b600d5490915080620006865760405180606001604052806200065460075462000b5060201b60201c565b61ffff1681526020016200067060075462000b5060201b60201c565b61ffff1681526000602090910152949350505050565b63ffffffff8216600d6200069c60018462000cb6565b81548110620006af57620006af62000cdc565b600091825260209091206002909102015463ffffffff16116200074457600d620006db60018362000cb6565b81548110620006ee57620006ee62000cdc565b6000918252602091829020604080516060810182526002939093029091016001015461ffff8082168452620100008204169383019390935264010000000090920463ffffffff1691810191909152949350505050565b8163ffffffff16600d60008154811062000762576200076262000cdc565b600091825260209091206002909102015463ffffffff1611156200079e5760405180606001604052806200065460075462000b5060201b60201c565b600080620007ae60018462000cb6565b90505b81811115620008b15760006002620007ca848462000cb6565b620007d6919062000cf2565b620007e2908362000cb6565b90506000600d8281548110620007fc57620007fc62000cdc565b60009182526020918290206040805180820182526002909302909101805463ffffffff9081168452825160608101845260019092015461ffff808216845262010000820416838701526401000000009004811692820192909252928201929092528051909250811690871614156200087d5760200151979650505050505050565b805163ffffffff808816911610156200089957819350620008a9565b620008a660018362000cb6565b92505b5050620007b1565b600d8281548110620008c757620008c762000cdc565b6000918252602091829020604080516060810182526002939093029091016001015461ffff8082168452620100008204169383019390935264010000000090920463ffffffff16918101919091529695505050505050565b600062000968436040518060400160405280601c81526020017f626c6f636b206e756d626572206578636565647320333220626974730000000081525062000b1d60201b60201c565b600d549091508015801590620009bb575063ffffffff8216600d6200098f60018462000cb6565b81548110620009a257620009a262000cdc565b600091825260209091206002909102015463ffffffff16145b1562000a4d5782600d620009d160018462000cb6565b81548110620009e457620009e462000cdc565b60009182526020918290208351600160029093029091019190910180549284015160409094015163ffffffff166401000000000263ffffffff60201b1961ffff958616620100000263ffffffff1990951695909316949094179290921716919091179055505050565b60408051808201825263ffffffff80851682526020808301878152600d8054600181018255600091909152935160029094027fd7b6990105719101dabeb77144f2a3385c8033acd3af97e9423a695e81ad1eb58101805495851663ffffffff19968716179055905180517fd7b6990105719101dabeb77144f2a3385c8033acd3af97e9423a695e81ad1eb690920180549382015191909601519093166401000000000263ffffffff60201b1961ffff94851662010000029390951693909116929092171791909116179055505050565b60008163ffffffff84111562000b485760405162461bcd60e51b8152600401620000a3919062000d15565b509192915050565b600061ffff82111562000b765760405163555abf0160e11b815260040160405180910390fd5b5090565b80516001600160a01b038116811462000b9257600080fd5b919050565b805161ffff8116811462000b9257600080fd5b600080600080600080600080888a0361014081121562000bc957600080fd5b62000bd48a62000b7a565b985062000be460208b0162000b7a565b975062000bf460408b0162000b7a565b965062000c0460608b0162000b7a565b955060808a0151945060a08a0151935060c08a01519250606060df198201121562000c2e57600080fd5b50604051606081016001600160401b038111828210171562000c6057634e487b7160e01b600052604160045260246000fd5b60405262000c7160e08b0162000b97565b815262000c826101008b0162000b97565b60208201526101208a015163ffffffff8116811462000ca057600080fd5b6040820152979a96995094975092959194909350565b60008282101562000cd757634e487b7160e01b600052601160045260246000fd5b500390565b634e487b7160e01b600052603260045260246000fd5b60008262000d1057634e487b7160e01b600052601260045260246000fd5b500490565b600060208083528351808285015260005b8181101562000d445785810183015185820160400152820162000d26565b8181111562000d57576000604083870101525b50601f01601f1916929092016040019392505050565b6153eb8062000d7d6000396000f3fe6080604052600436106103dc5760003560e01c80637bdbe4d0116101fd578063c82fbd0811610118578063deaaa7cc116100ab578063e9c714f21161007a578063e9c714f214610b6d578063ec91deda14610b82578063f851a44014610ba2578063fbfee87614610bc2578063fe0d94c114610bda57600080fd5b8063deaaa7cc14610ae9578063e23a9a5214610b1d578063e48083fe14610a09578063e7951bb91461098657600080fd5b8063d8bff440116100e7578063d8bff44014610a73578063da35c66414610a93578063da95691a14610aa9578063ddf0b00914610ac957600080fd5b8063c82fbd0814610a09578063ccfa51c914610a1e578063d33219b414610a33578063d3f662e114610a5357600080fd5b8063b112626311610190578063bc4cd0841161015f578063bc4cd0841461099c578063bf7a2963146109b5578063c08cc02d146109ca578063c10eb14d146109df57600080fd5b8063b11262631461093b578063b58131b014610951578063b71d1a0c14610966578063bb6775821461098657600080fd5b80639a0dfb53116101cc5780639a0dfb53146108b6578063a64e024a146108d6578063a67d0635146108ed578063abb308b21461090d57600080fd5b80637bdbe4d0146108565780637fa230bd1461086b57806383cce0e11461088057806397d048e51461089657600080fd5b80632b5ca189116102f857806340e58ee51161028b578063567813881161025a57806356781388146107b65780635c60da1b146107d657806364c05995146107f65780637a3da691146108165780637b3c71d31461083657600080fd5b806340e58ee51461072957806344fac8f61461074957806347f4a0771461076957806350196db31461079657600080fd5b80633bccf4fd116102c75780633bccf4fd146106b15780633be8ef3f146106d15780633e273334146106e75780633e4f49e6146106fc57600080fd5b80632b5ca189146106365780632cfc81c614610656578063328dd9821461066b5780633932abb11461069b57600080fd5b806317977c611161037057806320606b701161033f57806320606b70146105b6578063215809ca146105ea578063267822471461060057806326e6dcb01461062057600080fd5b806317977c61146105335780631d28dec7146105605780631dfb1b5a146105805780631e7b5d3a146105a057600080fd5b806306fdde03116103ac57806306fdde031461048d5780630ea2d98c146104db5780630f7b1f08146104fd57806314a67ea41461051d57600080fd5b80623d21d6146103e8578063013cf08b1461042557806302a251a314610452578063042bc3de1461047657600080fd5b366103e357005b600080fd5b3480156103f457600080fd5b50600a54610408906001600160a01b031681565b6040516001600160a01b0390911681526020015b60405180910390f35b34801561043157600080fd5b506104456104403660046144d0565b610bfa565b60405161041c919061455d565b34801561045e57600080fd5b5061046860055481565b60405190815260200161041c565b34801561048257600080fd5b5061046862030d4081565b34801561049957600080fd5b506104ce6040518060400160405280601581526020017446414e544f53492046414e20434f4d4d554e49545960581b81525081565b60405161041c91906146dc565b3480156104e757600080fd5b506104fb6104f63660046144d0565b610e2e565b005b34801561050957600080fd5b506104686105183660046144d0565b610f21565b34801561052957600080fd5b5061046860065481565b34801561053f57600080fd5b5061046861054e36600461470b565b600c6020526000908152604090205481565b34801561056c57600080fd5b506104fb61057b3660046144d0565b610f63565b34801561058c57600080fd5b506104fb61059b3660046144d0565b61115d565b3480156105ac57600080fd5b506104686103e881565b3480156105c257600080fd5b506104687f8cad95687ba82c2ce50e74f7b754645e5117c3a5bec8151c0726d5857980a86681565b3480156105f657600080fd5b5061046861168081565b34801561060c57600080fd5b50600154610408906001600160a01b031681565b34801561062c57600080fd5b5061046861177081565b34801561064257600080fd5b506104fb61065136600461473a565b61123f565b34801561066257600080fd5b506104fb6112d7565b34801561067757600080fd5b5061068b6106863660046144d0565b6113b9565b60405161041c94939291906147aa565b3480156106a757600080fd5b5061046860045481565b3480156106bd57600080fd5b506104fb6106cc366004614813565b61164a565b3480156106dd57600080fd5b50610468618ca081565b3480156106f357600080fd5b506104686118b0565b34801561070857600080fd5b5061071c6107173660046144d0565b611947565b60405161041c9190614877565b34801561073557600080fd5b506104fb6107443660046144d0565b611b15565b34801561075557600080fd5b506104fb61076436600461489f565b611dd7565b34801561077557600080fd5b506107896107843660046144d0565b611df5565b60405161041c91906148cb565b3480156107a257600080fd5b506104fb6107b136600461490d565b6120ee565b3480156107c257600080fd5b506104fb6107d136600461489f565b612283565b3480156107e257600080fd5b50600254610408906001600160a01b031681565b34801561080257600080fd5b506104fb610811366004614928565b6122dc565b34801561082257600080fd5b506104fb61083136600461490d565b612323565b34801561084257600080fd5b506104fb610851366004614928565b6124c8565b34801561086257600080fd5b50610468600a81565b34801561087757600080fd5b50610468612506565b34801561088c57600080fd5b5061046860075481565b3480156108a257600080fd5b506104fb6108b13660046144d0565b61256f565b3480156108c257600080fd5b506104686108d13660046149f6565b612667565b3480156108e257600080fd5b5061046862013b0081565b3480156108f957600080fd5b50600e54610408906001600160a01b031681565b34801561091957600080fd5b5061092d6109283660046144d0565b6126ef565b60405161041c929190614a8d565b34801561094757600080fd5b50610468619d8081565b34801561095d57600080fd5b50610468612756565b34801561097257600080fd5b506104fb61098136600461470b565b6127b1565b34801561099257600080fd5b506104686107d081565b3480156109a857600080fd5b50610468642e90edd00081565b3480156109c157600080fd5b506104fb61286f565b3480156109d657600080fd5b50600854610468565b3480156109eb57600080fd5b506109f4612971565b6040805192835290151560208301520161041c565b348015610a1557600080fd5b50610468600181565b348015610a2a57600080fd5b5061046860c881565b348015610a3f57600080fd5b50600954610408906001600160a01b031681565b348015610a5f57600080fd5b506104fb610a6e36600461470b565b612a30565b348015610a7f57600080fd5b50600354610408906001600160a01b031681565b348015610a9f57600080fd5b5061046860085481565b348015610ab557600080fd5b50610468610ac4366004614d53565b612ac4565b348015610ad557600080fd5b506104fb610ae43660046144d0565b613152565b348015610af557600080fd5b506104687f150214d74d59b7d1e90c73fc22ef3d991dd0a76b046543d4d80ab92d2a50328f81565b348015610b2957600080fd5b50610b3d610b38366004614e25565b613478565b6040805182511515815260208084015160ff1690820152918101516001600160601b03169082015260600161041c565b348015610b7957600080fd5b506104fb6134f0565b348015610b8e57600080fd5b506104fb610b9d366004614e48565b613610565b348015610bae57600080fd5b50600054610408906001600160a01b031681565b348015610bce57600080fd5b50610468637735940081565b348015610be657600080fd5b506104fb610bf53660046144d0565b6137e8565b610c906040518061022001604052806000815260200160006001600160a01b031681526020016000815260200160008152602001600081526020016000815260200160008152602001600081526020016000815260200160008152602001600015158152602001600015158152602001600015158152602001600081526020016000815260200160608152602001606081525090565b6000828152600b6020908152604091829020825161022081018452815480825260018301546001600160a01b03169382019390935260028201549381019390935291906060820190610ce190610f21565b815260048301546020808301919091526009840154604080840191909152600a8501546060840152600b8501546080840152600c85015460a0840152600d85015460c0840152600e85015460ff808216151560e086015261010080830482161515908601526201000090910416151561012084015260108501546101408401526011850154610160840152600585018054825181850281018501909352808352610180909401939192909190830182828015610dc657602002820191906000526020600020905b81546001600160a01b03168152600190910190602001808311610da8575b5050505050815260200182600601805480602002602001604051908101604052809291908181526020018280548015610e1e57602002820191906000526020600020905b815481526020019060010190808311610e0a575b5050505050815250915050919050565b6000546001600160a01b03163314610e5957604051633057182d60e21b815260040160405180910390fd5b6116808110158015610e6e575062013b008111155b610edb5760405162461bcd60e51b815260206004820152603360248201527f46616e746f736944414f3a3a5f736574566f74696e67506572696f643a20696e6044820152721d985b1a59081d9bdd1a5b99c81c195c9a5bd9606a1b60648201526084015b60405180910390fd5b600580549082905560408051828152602081018490527f7e3f7f0708a84de9203036abaa450dccc85ad5ff52f78c170f3edb55cf5e882891015b60405180910390a15050565b6000818152600b602052604081206010810154610f42576003015492915050565b610f5c81600c015482601001546108d18460110154611df5565b9392505050565b6003546001600160a01b0316610f8c57604051631efc808d60e31b815260040160405180910390fd5b6003546001600160a01b03163314610fb757604051631387214760e01b815260040160405180910390fd5b6007610fc282611947565b6008811115610fd357610fd3614861565b1415610ff257604051636c0a12d560e01b815260040160405180910390fd5b6000818152600b60205260408120600e8101805461ff001916610100179055905b600582015481101561112c576009546005830180546001600160a01b039092169163591fcdfe91908490811061104b5761104b614e8b565b6000918252602090912001546006850180546001600160a01b03909216918590811061107957611079614e8b565b906000526020600020015485600701858154811061109957611099614e8b565b906000526020600020018660080186815481106110b8576110b8614e8b565b9060005260206000200187600401546040518663ffffffff1660e01b81526004016110e7959493929190614f77565b600060405180830381600087803b15801561110157600080fd5b505af1158015611115573d6000803e3d6000fd5b50505050808061112490614fd9565b915050611013565b506040518281527fde0cea2a3a0097cc3d981d40c375407760e85bc9c5e69aea449ac3885f8615c690602001610f15565b6000546001600160a01b0316331461118857604051633057182d60e21b815260040160405180910390fd5b6001811015801561119b5750619d808111155b6112015760405162461bcd60e51b815260206004820152603160248201527f46616e746f736944414f3a3a5f736574566f74696e6744656c61793a20696e76604482015270616c696420766f74696e672064656c617960781b6064820152608401610ed2565b600480549082905560408051828152602081018490527fc565b045403dc03c2eea82b81a0465edad9e2e7fc4d97e11421c209da93d7a939101610f15565b6000546001600160a01b0316331461126a57604051633057182d60e21b815260040160405180910390fd5b600061127543611df5565b60408101805163ffffffff851690915290915061129182613a04565b6040805163ffffffff8084168252851660208201527f5e3adb1066359dafa23c629f245d93543856115700821dcb4debc416f393c46991015b60405180910390a1505050565b600e546001600160a01b0316331461130257604051631bd9bb1b60e31b815260040160405180910390fd5b600354600e546040517fc5644f3588a066b15dcf6b636b74aadca57cfaccf608d9de7d8786364b7a8d0292611345926001600160a01b0391821692911690614ff4565b60405180910390a1600e54600380546001600160a01b0319166001600160a01b0390921691821790556040517f7ad92e57a52c4e3e83ba624622b14e3a5efa0160dd6f9a7975c43ea66bad79ea9161139f91600090614ff4565b60405180910390a1600e80546001600160a01b0319169055565b6060806060806000600b60008781526020019081526020016000209050806005018160060182600701836008018380548060200260200160405190810160405280929190818152602001828054801561143b57602002820191906000526020600020905b81546001600160a01b0316815260019091019060200180831161141d575b505050505093508280548060200260200160405190810160405280929190818152602001828054801561148d57602002820191906000526020600020905b815481526020019060010190808311611479575b5050505050925081805480602002602001604051908101604052809291908181526020016000905b828210156115615783829060005260206000200180546114d490614ea1565b80601f016020809104026020016040519081016040528092919081815260200182805461150090614ea1565b801561154d5780601f106115225761010080835404028352916020019161154d565b820191906000526020600020905b81548152906001019060200180831161153057829003601f168201915b5050505050815260200190600101906114b5565b50505050915080805480602002602001604051908101604052809291908181526020016000905b828210156116345783829060005260206000200180546115a790614ea1565b80601f01602080910402602001604051908101604052809291908181526020018280546115d390614ea1565b80156116205780601f106115f557610100808354040283529160200191611620565b820191906000526020600020905b81548152906001019060200180831161160357829003601f168201915b505050505081526020019060010190611588565b5050505090509450945094509450509193509193565b604080518082018252601581527446414e544f53492046414e20434f4d4d554e49545960581b60209182015281517f8cad95687ba82c2ce50e74f7b754645e5117c3a5bec8151c0726d5857980a866818301527f478d7bfab396900811ca9de79ac4502f20a9d94e70e2525cc990aec96a333fe081840152466060820152306080808301919091528351808303909101815260a0820184528051908301207f150214d74d59b7d1e90c73fc22ef3d991dd0a76b046543d4d80ab92d2a50328f60c083015260e0820189905260ff8816610100808401919091528451808403909101815261012083019094528351939092019290922061190160f01b6101408401526101428301829052610162830181905290916000906101820160408051601f198184030181528282528051602091820120600080855291840180845281905260ff8a169284019290925260608301889052608083018790529092509060019060a0016020604051602081039080840390855afa1580156117cf573d6000803e3d6000fd5b5050604051601f1901519150506001600160a01b0381166118475760405162461bcd60e51b815260206004820152602c60248201527f46616e746f736944414f3a3a63617374566f746542795369673a20696e76616c60448201526b6964207369676e617475726560a01b6064820152608401610ed2565b806001600160a01b03166000805160206153968339815191528a8a61186d858e8e613bf0565b6040805193845260ff90921660208401526001600160601b03169082015260806060820181905260009082015260a00160405180910390a2505050505050505050565b60006119426118be43611df5565b6000015161ffff16600a60009054906101000a90046001600160a01b03166001600160a01b03166318160ddd6040518163ffffffff1660e01b8152600401602060405180830381865afa158015611919573d6000803e3d6000fd5b505050506040513d601f19601f8201168201806040525081019061193d919061500e565b613ecc565b905090565b60008160085410156119aa5760405162461bcd60e51b815260206004820152602660248201527f46616e746f736944414f3a3a73746174653a20696e76616c69642070726f706f6044820152651cd85b081a5960d21b6064820152608401610ed2565b6000828152600b60205260409020600e810154610100900460ff16156119d35750600892915050565b600e81015460ff16156119e95750600292915050565b806009015443116119fd5750600092915050565b80600a01544311611a115750600192915050565b80600c015481600b0154111580611a3557508054611a2e90610f21565b81600b0154105b15611a435750600392915050565b6004810154611a555750600492915050565b600e81015462010000900460ff1615611a715750600792915050565b600960009054906101000a90046001600160a01b03166001600160a01b031663c1a287e26040518163ffffffff1660e01b8152600401602060405180830381865afa158015611ac4573d6000803e3d6000fd5b505050506040513d601f19601f82011682018060405250810190611ae8919061500e565b8160040154611af79190615027565b4210611b065750600692915050565b50600592915050565b50919050565b6007611b2082611947565b6008811115611b3157611b31614861565b1415611b5057604051630b586af560e01b815260040160405180910390fd5b6000818152600b6020526040902060018101546001600160a01b0316331480611c1a57506002810154600a546001808401546001600160a01b039283169263782d6fe192911690611ba1904361503f565b6040516001600160e01b031960e085901b1681526001600160a01b0390921660048301526024820152604401602060405180830381865afa158015611bea573d6000803e3d6000fd5b505050506040513d601f19601f82011682018060405250810190611c0e9190615056565b6001600160601b031611155b611c7b5760405162461bcd60e51b815260206004820152602c60248201527f46616e746f736944414f3a3a63616e63656c3a2070726f706f7365722061626f60448201526b1d99481d1a1c995cda1bdb1960a21b6064820152608401610ed2565b600e8101805460ff1916600117905560005b6005820154811015611da6576009546005830180546001600160a01b039092169163591fcdfe919084908110611cc557611cc5614e8b565b6000918252602090912001546006850180546001600160a01b039092169185908110611cf357611cf3614e8b565b9060005260206000200154856007018581548110611d1357611d13614e8b565b90600052602060002001866008018681548110611d3257611d32614e8b565b9060005260206000200187600401546040518663ffffffff1660e01b8152600401611d61959493929190614f77565b600060405180830381600087803b158015611d7b57600080fd5b505af1158015611d8f573d6000803e3d6000fd5b505050508080611d9e90614fd9565b915050611c8d565b506040518281527f789cf55be980739dad1d0699b93b58e806b51c9d96619bfa8fe0a28abaa7b30c90602001610f15565b611df1828260405180602001604052806000815250613ee5565b5050565b60408051606081018252600080825260208201819052918101919091526000611e368360405180608001604052806042815260200161535460429139613f4d565b600d5490915080611e81576040518060600160405280611e57600754613f7d565b61ffff168152602001611e6b600754613f7d565b61ffff1681526000602090910152949350505050565b63ffffffff8216600d611e9560018461503f565b81548110611ea557611ea5614e8b565b600091825260209091206002909102015463ffffffff1611611f3457600d611ece60018361503f565b81548110611ede57611ede614e8b565b6000918252602091829020604080516060810182526002939093029091016001015461ffff8082168452620100008204169383019390935264010000000090920463ffffffff1691810191909152949350505050565b8163ffffffff16600d600081548110611f4f57611f4f614e8b565b600091825260209091206002909102015463ffffffff161115611f82576040518060600160405280611e57600754613f7d565b600080611f9060018461503f565b90505b818111156120835760006002611fa9848461503f565b611fb3919061507f565b611fbd908361503f565b90506000600d8281548110611fd457611fd4614e8b565b60009182526020918290206040805180820182526002909302909101805463ffffffff9081168452825160608101845260019092015461ffff808216845262010000820416838701526401000000009004811692820192909252928201929092528051909250811690871614156120545760200151979650505050505050565b805163ffffffff8088169116101561206e5781935061207c565b61207960018361503f565b92505b5050611f93565b600d828154811061209657612096614e8b565b6000918252602091829020604080516060810182526002939093029091016001015461ffff8082168452620100008204169383019390935264010000000090920463ffffffff16918101919091529695505050505050565b6000546001600160a01b0316331461211957604051633057182d60e21b815260040160405180910390fd5b600061212443611df5565b90506117708261ffff1611156121a25760405162461bcd60e51b815260206004820152603f60248201527f46616e746f736944414f3a3a5f7365744d617851756f72756d566f746573425060448201527f533a20696e76616c6964206d61782071756f72756d20766f74657320627073006064820152608401610ed2565b805161ffff808416911611156122315760405162461bcd60e51b815260206004820152604860248201527f46616e746f736944414f3a3a5f7365744d617851756f72756d566f746573425060448201527f533a206d696e2071756f72756d20766f746573206270732067726561746572206064820152670e8d0c2dc40dac2f60c31b608482015260a401610ed2565b60208101805161ffff841690915261224882613a04565b6040805161ffff8084168252851660208201527f4bfb1235074b38f02e5cf8ba90f535905417c196a12654f65ee0584512d7064291016112ca565b3360008051602061539683398151915283836122a0848383613bf0565b6040805193845260ff90921660208401526001600160601b03169082015260806060820181905260009082015260a00160405180910390a25050565b61231d848484848080601f016020809104026020016040519081016040528093929190818152602001838380828437600092019190915250613ee592505050565b50505050565b6000546001600160a01b0316331461234e57604051633057182d60e21b815260040160405180910390fd5b600061235943611df5565b905060c88261ffff161015801561237657506107d08261ffff1611155b6123e85760405162461bcd60e51b815260206004820152603f60248201527f46616e746f736944414f3a3a5f7365744d696e51756f72756d566f746573425060448201527f533a20696e76616c6964206d696e2071756f72756d20766f74657320627073006064820152608401610ed2565b806020015161ffff168261ffff16111561247b5760405162461bcd60e51b815260206004820152604860248201527f46616e746f736944414f3a3a5f7365744d696e51756f72756d566f746573425060448201527f533a206d696e2071756f72756d20766f746573206270732067726561746572206064820152670e8d0c2dc40dac2f60c31b608482015260a401610ed2565b805161ffff8316825261248d82613a04565b6040805161ffff8084168252851660208201527ffaeebe30d875e399189096ea49fea81bd41fe6dfc86ad3550639063219e6077891016112ca565b3360008051602061539683398151915285856124e5848383613bf0565b86866040516124f89594939291906150a1565b60405180910390a250505050565b600061194261251443611df5565b6020015161ffff16600a60009054906101000a90046001600160a01b03166001600160a01b03166318160ddd6040518163ffffffff1660e01b8152600401602060405180830381865afa158015611919573d6000803e3d6000fd5b6000546001600160a01b0316331461259a57604051633057182d60e21b815260040160405180910390fd5b600181101580156125ad57506103e88111155b6126295760405162461bcd60e51b815260206004820152604160248201527f46616e746f736944414f3a3a5f73657450726f706f73616c5468726573686f6c60448201527f643a20696e76616c69642070726f706f73616c207468726573686f6c642062706064820152607360f81b608482015260a401610ed2565b600680549082905560408051828152602081018490527ffc216faa269bf440fb06aa490693f409461bde9cdcb949c7b9f2cb79589e7a589101610f15565b60008083612677866127106150f1565b612681919061507f565b90506000620f424082856040015163ffffffff1661269f91906150f1565b6126a9919061507f565b9050600081856000015161ffff166126c19190615027565b905060006126d7866020015161ffff1683613fa6565b90506126e38188613ecc565b98975050505050505050565b600d81815481106126ff57600080fd5b60009182526020918290206002919091020180546040805160608101825260019093015461ffff8082168552620100008204169484019490945263ffffffff64010000000090940484169083015291909116915082565b6000611942600654600a60009054906101000a90046001600160a01b03166001600160a01b03166318160ddd6040518163ffffffff1660e01b8152600401602060405180830381865afa158015611919573d6000803e3d6000fd5b6000546001600160a01b0316331461281c5760405162461bcd60e51b815260206004820152602860248201527f46616e746f736944414f3a3a5f73657450656e64696e6741646d696e3a2061646044820152676d696e206f6e6c7960c01b6064820152608401610ed2565b600180546001600160a01b038381166001600160a01b03198316179092556040519116907fca4f2f25d0898edd99413412fb94012f9e54ec8142f9b093e7720646a95b16a990610f159083908590614ff4565b6003546001600160a01b031633146128d95760405162461bcd60e51b815260206004820152602760248201527f46616e746f736944414f3a3a5f6275726e5665746f506f7765723a207665746f6044820152666572206f6e6c7960c81b6064820152608401610ed2565b6003546040517fc5644f3588a066b15dcf6b636b74aadca57cfaccf608d9de7d8786364b7a8d0291612919916001600160a01b0390911690600090614ff4565b60405180910390a1600380546001600160a01b0319169055600e546040517f7ad92e57a52c4e3e83ba624622b14e3a5efa0160dd6f9a7975c43ea66bad79ea9161139f916001600160a01b0390911690600090614ff4565b6000805481906001600160a01b0316331461299f57604051633057182d60e21b815260040160405180910390fd5b6040514790600090339083908381818185875af1925050503d80600081146129e3576040519150601f19603f3d011682016040523d82523d6000602084013e6129e8565b606091505b50506040805184815282151560208201529192507f2aeb20ed0ead73e7bc740154a0b979547bc9e00691d84a700e6454ada9fe4679910160405180910390a190939092509050565b6003546001600160a01b03163314612a5b57604051631387214760e01b815260040160405180910390fd5b600e546040517f7ad92e57a52c4e3e83ba624622b14e3a5efa0160dd6f9a7975c43ea66bad79ea91612a9a916001600160a01b03909116908490614ff4565b60405180910390a1600e80546001600160a01b0319166001600160a01b0392909216919091179055565b6000612af86040518060a0016040528060008152602001600081526020016000815260200160008152602001600081525090565b600a60009054906101000a90046001600160a01b03166001600160a01b03166318160ddd6040518163ffffffff1660e01b8152600401602060405180830381865afa158015612b4b573d6000803e3d6000fd5b505050506040513d601f19601f82011682018060405250810190612b6f919061500e565b808252600654612b7e91613ecc565b60208201819052600a546001600160a01b031663782d6fe133612ba260014361503f565b6040516001600160e01b031960e085901b1681526001600160a01b0390921660048301526024820152604401602060405180830381865afa158015612beb573d6000803e3d6000fd5b505050506040513d601f19601f82011682018060405250810190612c0f9190615056565b6001600160601b031611612c8b5760405162461bcd60e51b815260206004820152603c60248201527f46616e746f736944414f3a3a70726f706f73653a2070726f706f73657220766f60448201527f7465732062656c6f772070726f706f73616c207468726573686f6c64000000006064820152608401610ed2565b85518751148015612c9d575084518751145b8015612caa575083518751145b612d265760405162461bcd60e51b815260206004820152604160248201527f46616e746f736944414f3a3a70726f706f73653a2070726f706f73616c20667560448201527f6e6374696f6e20696e666f726d6174696f6e206172697479206d69736d6174636064820152600d60fb1b608482015260a401610ed2565b8651612d865760405162461bcd60e51b815260206004820152602960248201527f46616e746f736944414f3a3a70726f706f73653a206d7573742070726f7669646044820152686520616374696f6e7360b81b6064820152608401610ed2565b600a87511115612de65760405162461bcd60e51b815260206004820152602560248201527f46616e746f736944414f3a3a70726f706f73653a20746f6f206d616e7920616360448201526474696f6e7360d81b6064820152608401610ed2565b336000908152600c6020526040908190205490820181905215612f63576000612e128260400151611947565b90506001816008811115612e2857612e28614861565b1415612eba5760405162461bcd60e51b815260206004820152605560248201527f46616e746f736944414f3a3a70726f706f73653a206f6e65206c69766520707260448201527f6f706f73616c207065722070726f706f7365722c20666f756e6420616e20616c6064820152741c9958591e481858dd1a5d99481c1c9bdc1bdcd85b605a1b608482015260a401610ed2565b6000816008811115612ece57612ece614861565b1415612f615760405162461bcd60e51b815260206004820152605660248201527f46616e746f736944414f3a3a70726f706f73653a206f6e65206c69766520707260448201527f6f706f73616c207065722070726f706f7365722c20666f756e6420616e20616c6064820152751c9958591e481c195b991a5b99c81c1c9bdc1bdcd85b60521b608482015260a401610ed2565b505b600454612f709043615027565b60608201819052600554612f8391615027565b608082015260088054906000612f9883614fd9565b90915550506008546000818152600b6020908152604082209283556001830180546001600160a01b0319163317905583810151600284015560048301919091558851612fec916005840191908b0190614283565b50865161300290600683019060208a01906142e4565b508551613018906007830190602089019061431f565b50845161302e9060088301906020880190614378565b506060820151600982019081556080830151600a83019081556000600b8401819055600c808501829055600d8501829055600e8501805462ffffff1916905585516010860155436011860155845460018601546001600160a01b031683526020919091526040918290208190559254915490517f7d84a6263ae0d98d3329bd7b46bb4e8d6f98cd35a7adb45c274c8b7fd5ebd5e0936130dc93909233928e928e928e928e9291908e90615110565b60405180910390a17f6af0134faa0f9290c1d686d55012aca80302d31d5c856e4bc7954f7613dc7f878160000154338a8a8a8a876009015488600a015489600201546131266118b0565b8e60405161313e9b9a999897969594939291906151a8565b60405180910390a154979650505050505050565b600461315d82611947565b600881111561316e5761316e614861565b146131eb5760405162461bcd60e51b815260206004820152604160248201527f46616e746f736944414f3a3a71756575653a2070726f706f73616c2063616e2060448201527f6f6e6c79206265207175657565642069662069742069732073756363656564656064820152601960fa1b608482015260a401610ed2565b6000818152600b602090815260408083206009548251630d48571f60e31b815292519194936001600160a01b0390911692636a42b8f892600480830193928290030181865afa158015613242573d6000803e3d6000fd5b505050506040513d601f19601f82011682018060405250810190613266919061500e565b6132709042615027565b905060005b600583015481101561343a5761342883600501828154811061329957613299614e8b565b6000918252602090912001546006850180546001600160a01b0390921691849081106132c7576132c7614e8b565b90600052602060002001548560070184815481106132e7576132e7614e8b565b9060005260206000200180546132fc90614ea1565b80601f016020809104026020016040519081016040528092919081815260200182805461332890614ea1565b80156133755780601f1061334a57610100808354040283529160200191613375565b820191906000526020600020905b81548152906001019060200180831161335857829003601f168201915b505050505086600801858154811061338f5761338f614e8b565b9060005260206000200180546133a490614ea1565b80601f01602080910402602001604051908101604052809291908181526020018280546133d090614ea1565b801561341d5780601f106133f25761010080835404028352916020019161341d565b820191906000526020600020905b81548152906001019060200180831161340057829003601f168201915b505050505086613fbc565b8061343281614fd9565b915050613275565b506004820181905560408051848152602081018390527f9a2e42fd6722813d69113e7d0079d3d940171428df7373df9c7f7617cfda289291016112ca565b604080516060808201835260008083526020808401829052928401819052858152600b83528381206001600160a01b0386168252600f018352839020835191820184525460ff8082161515835261010082041692820192909252620100009091046001600160601b0316918101919091525b92915050565b6001546001600160a01b03163314801561350957503315155b61356a5760405162461bcd60e51b815260206004820152602c60248201527f46616e746f736944414f3a3a5f61636365707441646d696e3a2070656e64696e60448201526b672061646d696e206f6e6c7960a01b6064820152608401610ed2565b60008054600180546001600160a01b03198084166001600160a01b03838116918217909655911690915560405192909116917ff9ffabca9c8276e99321725bcb43fb076a6c66a54b7f21c4e8146d8519b417dc906135cb9084908490614ff4565b60405180910390a16001546040517fca4f2f25d0898edd99413412fb94012f9e54ec8142f9b093e7720646a95b16a991610f159184916001600160a01b031690614ff4565b6000546001600160a01b0316331461363b57604051633057182d60e21b815260040160405180910390fd5b60c88361ffff16108061365357506107d08361ffff16115b156136715760405163db8a74af60e01b815260040160405180910390fd5b6117708261ffff1611156136985760405163143abf4360e21b815260040160405180910390fd5b8161ffff168361ffff1611156136c1576040516362c564d560e11b815260040160405180910390fd5b60006136cc43611df5565b9050600060405180606001604052808661ffff1681526020018561ffff1681526020018463ffffffff16815250905061370481613a04565b815181516040805161ffff93841681529290911660208301527ffaeebe30d875e399189096ea49fea81bd41fe6dfc86ad3550639063219e60778910160405180910390a17f4bfb1235074b38f02e5cf8ba90f535905417c196a12654f65ee0584512d706428260200151826020015160405161379192919061ffff92831681529116602082015260400190565b60405180910390a160408083015182820151825163ffffffff9283168152911660208201527f5e3adb1066359dafa23c629f245d93543856115700821dcb4debc416f393c469910160405180910390a15050505050565b60056137f382611947565b600881111561380457613804614861565b146138825760405162461bcd60e51b815260206004820152604260248201527f46616e746f736944414f3a3a657865637574653a2070726f706f73616c20636160448201527f6e206f6e6c792062652065786563757465642069662069742069732071756575606482015261195960f21b608482015260a401610ed2565b6000818152600b60205260408120600e8101805462ff0000191662010000179055905b60058201548110156139d3576009546005830180546001600160a01b0390921691630825f38f9190849081106138dd576138dd614e8b565b6000918252602090912001546006850180546001600160a01b03909216918590811061390b5761390b614e8b565b906000526020600020015485600701858154811061392b5761392b614e8b565b9060005260206000200186600801868154811061394a5761394a614e8b565b9060005260206000200187600401546040518663ffffffff1660e01b8152600401613979959493929190614f77565b6000604051808303816000875af1158015613998573d6000803e3d6000fd5b505050506040513d6000823e601f3d908101601f191682016040526139c09190810190615250565b50806139cb81614fd9565b9150506138a5565b506040518281527f712ae1383f79ac853f8d882153778e0260ef8f03b504e2866e0593e04d2b291f90602001610f15565b6000613a45436040518060400160405280601c81526020017f626c6f636b206e756d6265722065786365656473203332206269747300000000815250613f4d565b600d549091508015801590613a92575063ffffffff8216600d613a6960018461503f565b81548110613a7957613a79614e8b565b600091825260209091206002909102015463ffffffff16145b15613b1f5782600d613aa560018461503f565b81548110613ab557613ab5614e8b565b60009182526020918290208351600160029093029091019190910180549284015160409094015163ffffffff166401000000000267ffffffff000000001961ffff958616620100000263ffffffff1990951695909316949094179290921716919091179055505050565b60408051808201825263ffffffff80851682526020808301878152600d8054600181018255600091909152935160029094027fd7b6990105719101dabeb77144f2a3385c8033acd3af97e9423a695e81ad1eb58101805495851663ffffffff19968716179055905180517fd7b6990105719101dabeb77144f2a3385c8033acd3af97e9423a695e81ad1eb690920180549382015191909601519093166401000000000267ffffffff000000001961ffff94851662010000029390951693909116929092171791909116179055505050565b60006001613bfd84611947565b6008811115613c0e57613c0e614861565b14613c725760405162461bcd60e51b815260206004820152602e60248201527f46616e746f736944414f3a3a63617374566f7465496e7465726e616c3a20766f60448201526d1d1a5b99c81a5cc818db1bdcd95960921b6064820152608401610ed2565b60028260ff161115613cde5760405162461bcd60e51b815260206004820152602f60248201527f46616e746f736944414f3a3a63617374566f7465496e7465726e616c3a20696e60448201526e76616c696420766f7465207479706560881b6064820152608401610ed2565b6000838152600b602090815260408083206001600160a01b0388168452600f8101909252909120805460ff1615613d715760405162461bcd60e51b815260206004820152603160248201527f46616e746f736944414f3a3a63617374566f7465496e7465726e616c3a20766f6044820152701d195c88185b1c9958591e481d9bdd1959607a1b6064820152608401610ed2565b600a546000906001600160a01b031663782d6fe188613d8f86614170565b6040516001600160e01b031960e085901b1681526001600160a01b0390921660048301526024820152604401602060405180830381865afa158015613dd8573d6000803e3d6000fd5b505050506040513d601f19601f82011682018060405250810190613dfc9190615056565b905060ff8516613e2957806001600160601b031683600c0154613e1f9190615027565b600c840155613e83565b8460ff1660011415613e5857806001600160601b031683600b0154613e4e9190615027565b600b840155613e83565b8460ff1660021415613e8357806001600160601b031683600d0154613e7d9190615027565b600d8401555b81546001600160601b03821662010000026dffffffffffffffffffffffff00001960ff88166101000261ffff199093169290921760011791909116179091559150509392505050565b6000612710613edb84846150f1565b610f5c919061507f565b60005a90506000613ef7338686613bf0565b9050336001600160a01b031660008051602061539683398151915286868487604051613f2694939291906152c7565b60405180910390a26001600160601b03811615613f4657613f4682614199565b5050505050565b60008163ffffffff841115613f755760405162461bcd60e51b8152600401610ed291906146dc565b509192915050565b600061ffff821115613fa25760405163555abf0160e11b815260040160405180910390fd5b5090565b6000818310613fb55781610f5c565b5090919050565b6009546040516001600160a01b039091169063f2b0653790613fea90889088908890889088906020016152f8565b604051602081830303815290604052805190602001206040518263ffffffff1660e01b815260040161401e91815260200190565b602060405180830381865afa15801561403b573d6000803e3d6000fd5b505050506040513d601f19601f8201168201806040525081019061405f9190615331565b156140ed5760405162461bcd60e51b815260206004820152605260248201527f46616e746f736944414f3a3a71756575654f72526576657274496e7465726e6160448201527f6c3a206964656e746963616c2070726f706f73616c20616374696f6e20616c7260648201527165616479207175657565642061742065746160701b608482015260a401610ed2565b600954604051633a66f90160e01b81526001600160a01b0390911690633a66f9019061412590889088908890889088906004016152f8565b6020604051808303816000875af1158015614144573d6000803e3d6000fd5b505050506040513d601f19601f82011682018060405250810190614168919061500e565b505050505050565b60008160110154600014156141915760045482600901546134ea919061503f565b506011015490565b47806141a3575050565b60006141b448642e90edd000613fa6565b905060006141c83a63773594008401613fa6565b905060006141df618ca05a87030162030d40613fa6565b905060006141ef82840286613fa6565b604051909150600090329083908381818185875af1925050503d8060008114614234576040519150601f19603f3d011682016040523d82523d6000602084013e614239565b606091505b505060408051848152821515602082015291925032917ffabef36fd46c4c3a6ad676521be5367a4dfdbf3faa68d8e826003b1752d68f4f910160405180910390a250505050505050565b8280548282559060005260206000209081019282156142d8579160200282015b828111156142d857825182546001600160a01b0319166001600160a01b039091161782556020909201916001909101906142a3565b50613fa29291506143d1565b8280548282559060005260206000209081019282156142d8579160200282015b828111156142d8578251825591602001919060010190614304565b82805482825590600052602060002090810192821561436c579160200282015b8281111561436c578251805161435c9184916020909101906143e6565b509160200191906001019061433f565b50613fa2929150614459565b8280548282559060005260206000209081019282156143c5579160200282015b828111156143c557825180516143b59184916020909101906143e6565b5091602001919060010190614398565b50613fa2929150614476565b5b80821115613fa257600081556001016143d2565b8280546143f290614ea1565b90600052602060002090601f01602090048101928261441457600085556142d8565b82601f1061442d57805160ff19168380011785556142d8565b828001600101855582156142d857918201828111156142d8578251825591602001919060010190614304565b80821115613fa257600061446d8282614493565b50600101614459565b80821115613fa257600061448a8282614493565b50600101614476565b50805461449f90614ea1565b6000825580601f106144af575050565b601f0160209004906000526020600020908101906144cd91906143d1565b50565b6000602082840312156144e257600080fd5b5035919050565b600081518084526020808501945080840160005b838110156145225781516001600160a01b0316875295820195908201906001016144fd565b509495945050505050565b600081518084526020808501945080840160005b8381101561452257815187529582019590820190600101614541565b60208152815160208201526000602083015161458460408401826001600160a01b03169052565b506040830151606083015260608301516080830152608083015160a083015260a083015160c083015260c083015160e083015260e08301516101008181850152808501519150506101208181850152808501519150506101408181850152808501519150506101606145f98185018315159052565b840151905061018061460e8482018315159052565b84015190506101a06146238482018315159052565b8401516101c0848101919091528401516101e0808501919091528401516102206102008086018290529192509061465e6102408601846144e9565b90860151858203601f19018387015290925061467a838261452d565b9695505050505050565b60005b8381101561469f578181015183820152602001614687565b8381111561231d5750506000910152565b600081518084526146c8816020860160208601614684565b601f01601f19169290920160200192915050565b602081526000610f5c60208301846146b0565b80356001600160a01b038116811461470657600080fd5b919050565b60006020828403121561471d57600080fd5b610f5c826146ef565b803563ffffffff8116811461470657600080fd5b60006020828403121561474c57600080fd5b610f5c82614726565b600081518084526020808501808196508360051b8101915082860160005b8581101561479d57828403895261478b8483516146b0565b98850198935090840190600101614773565b5091979650505050505050565b6080815260006147bd60808301876144e9565b82810360208401526147cf818761452d565b905082810360408401526147e38186614755565b905082810360608401526147f78185614755565b979650505050505050565b803560ff8116811461470657600080fd5b600080600080600060a0868803121561482b57600080fd5b8535945061483b60208701614802565b935061484960408701614802565b94979396509394606081013594506080013592915050565b634e487b7160e01b600052602160045260246000fd5b602081016009831061489957634e487b7160e01b600052602160045260246000fd5b91905290565b600080604083850312156148b257600080fd5b823591506148c260208401614802565b90509250929050565b815161ffff90811682526020808401519091169082015260408083015163ffffffff1690820152606081016134ea565b803561ffff8116811461470657600080fd5b60006020828403121561491f57600080fd5b610f5c826148fb565b6000806000806060858703121561493e57600080fd5b8435935061494e60208601614802565b9250604085013567ffffffffffffffff8082111561496b57600080fd5b818701915087601f83011261497f57600080fd5b81358181111561498e57600080fd5b8860208285010111156149a057600080fd5b95989497505060200194505050565b634e487b7160e01b600052604160045260246000fd5b604051601f8201601f1916810167ffffffffffffffff811182821017156149ee576149ee6149af565b604052919050565b600080600083850360a0811215614a0c57600080fd5b84359350602085013592506060603f1982011215614a2957600080fd5b506040516060810181811067ffffffffffffffff82111715614a4d57614a4d6149af565b8060405250614a5e604086016148fb565b8152614a6c606086016148fb565b6020820152614a7d60808601614726565b6040820152809150509250925092565b63ffffffff8316815260808101610f5c602083018461ffff8082511683528060208301511660208401525063ffffffff60408201511660408301525050565b600067ffffffffffffffff821115614ae657614ae66149af565b5060051b60200190565b600082601f830112614b0157600080fd5b81356020614b16614b1183614acc565b6149c5565b82815260059290921b84018101918181019086841115614b3557600080fd5b8286015b84811015614b5757614b4a816146ef565b8352918301918301614b39565b509695505050505050565b600082601f830112614b7357600080fd5b81356020614b83614b1183614acc565b82815260059290921b84018101918181019086841115614ba257600080fd5b8286015b84811015614b575780358352918301918301614ba6565b600067ffffffffffffffff821115614bd757614bd76149af565b50601f01601f191660200190565b6000614bf3614b1184614bbd565b9050828152838383011115614c0757600080fd5b828260208301376000602084830101529392505050565b600082601f830112614c2f57600080fd5b610f5c83833560208501614be5565b600082601f830112614c4f57600080fd5b81356020614c5f614b1183614acc565b82815260059290921b84018101918181019086841115614c7e57600080fd5b8286015b84811015614b5757803567ffffffffffffffff811115614ca25760008081fd5b614cb08986838b0101614c1e565b845250918301918301614c82565b600082601f830112614ccf57600080fd5b81356020614cdf614b1183614acc565b82815260059290921b84018101918181019086841115614cfe57600080fd5b8286015b84811015614b5757803567ffffffffffffffff811115614d225760008081fd5b8701603f81018913614d345760008081fd5b614d45898683013560408401614be5565b845250918301918301614d02565b600080600080600060a08688031215614d6b57600080fd5b853567ffffffffffffffff80821115614d8357600080fd5b614d8f89838a01614af0565b96506020880135915080821115614da557600080fd5b614db189838a01614b62565b95506040880135915080821115614dc757600080fd5b614dd389838a01614c3e565b94506060880135915080821115614de957600080fd5b614df589838a01614cbe565b93506080880135915080821115614e0b57600080fd5b50614e1888828901614c1e565b9150509295509295909350565b60008060408385031215614e3857600080fd5b823591506148c2602084016146ef565b600080600060608486031215614e5d57600080fd5b614e66846148fb565b9250614e74602085016148fb565b9150614e8260408501614726565b90509250925092565b634e487b7160e01b600052603260045260246000fd5b600181811c90821680614eb557607f821691505b60208210811415611b0f57634e487b7160e01b600052602260045260246000fd5b8054600090600181811c9080831680614ef057607f831692505b6020808410821415614f1257634e487b7160e01b600052602260045260246000fd5b838852818015614f295760018114614f3d57614f6b565b60ff19861689830152604089019650614f6b565b876000528160002060005b86811015614f635781548b8201850152908501908301614f48565b8a0183019750505b50505050505092915050565b60018060a01b038616815284602082015260a060408201526000614f9e60a0830186614ed6565b8281036060840152614fb08186614ed6565b9150508260808301529695505050505050565b634e487b7160e01b600052601160045260246000fd5b6000600019821415614fed57614fed614fc3565b5060010190565b6001600160a01b0392831681529116602082015260400190565b60006020828403121561502057600080fd5b5051919050565b6000821982111561503a5761503a614fc3565b500190565b60008282101561505157615051614fc3565b500390565b60006020828403121561506857600080fd5b81516001600160601b0381168114610f5c57600080fd5b60008261509c57634e487b7160e01b600052601260045260246000fd5b500490565b85815260ff851660208201526001600160601b038416604082015260806060820152816080820152818360a0830137600081830160a090810191909152601f909201601f19160101949350505050565b600081600019048311821515161561510b5761510b614fc3565b500290565b8981526001600160a01b03891660208201526101206040820181905260009061513b8382018b6144e9565b9050828103606084015261514f818a61452d565b905082810360808401526151638189614755565b905082810360a08401526151778188614755565b90508560c08401528460e084015282810361010084015261519881856146b0565b9c9b505050505050505050505050565b8b81526001600160a01b038b166020820152610160604082018190526000906151d38382018d6144e9565b905082810360608401526151e7818c61452d565b905082810360808401526151fb818b614755565b905082810360a084015261520f818a614755565b90508760c08401528660e0840152856101008401528461012084015282810361014084015261523e81856146b0565b9e9d5050505050505050505050505050565b60006020828403121561526257600080fd5b815167ffffffffffffffff81111561527957600080fd5b8201601f8101841361528a57600080fd5b8051615298614b1182614bbd565b8181528560208385010111156152ad57600080fd5b6152be826020830160208601614684565b95945050505050565b84815260ff841660208201526001600160601b038316604082015260806060820152600061467a60808301846146b0565b60018060a01b038616815284602082015260a06040820152600061531f60a08301866146b0565b8281036060840152614fb081866146b0565b60006020828403121561534357600080fd5b81518015158114610f5c57600080fdfe46616e746f736944414f3a3a67657444796e616d696351756f72756d506172616d7341743a20626c6f636b206e756d62657220657863656564732033322062697473b8e138887d0aa13bab447e82de9d5c1777041ecd21ca36ba824ff1e6c07ddda4a2646970667358221220c230203624ec433434905065d5b36f6ab85f845d7bad763e1853e9f5be3d14e864736f6c634300080b003346616e746f736944414f3a3a696e697469616c697a653a20696e76616c69642046616e746f736944414f3a3a67657444796e616d696351756f72756d506172616d7341743a20626c6f636b206e756d62657220657863656564732033322062697473",
  "linkReferences": {},
  "deployedLinkReferences": {}
}