{
  "_format": "hh-sol-artifact-1",
  "contractName": "FantosiToken",
  "sourceName": "src/FantosiToken.sol",
  "abi": [
    {
      "inputs": [
        {
          "internalType": "address",
          "name": "_fantosiAdmin",
          "type": "address"
        },
        {
          "internalType": "address",
          "name": "_fantosiArtist",
          "type": "address"
        },
        {
          "internalType": "address",
          "name": "_minter",
          "type": "address"
        },
        {
          "internalType": "string",
          "name": "baseContractURIHash",
          "type": "string"
        }
      ],
      "stateMutability": "nonpayable",
      "type": "constructor"
    },
    {
      "anonymous": false,
      "inputs": [
        {
          "indexed": true,
          "internalType": "address",
          "name": "owner",
          "type": "address"
        },
        {
          "indexed": true,
          "internalType": "address",
          "name": "approved",
          "type": "address"
        },
        {
          "indexed": true,
          "internalType": "uint256",
          "name": "tokenId",
          "type": "uint256"
        }
      ],
      "name": "Approval",
      "type": "event"
    },
    {
      "anonymous": false,
      "inputs": [
        {
          "indexed": true,
          "internalType": "address",
          "name": "owner",
          "type": "address"
        },
        {
          "indexed": true,
          "internalType": "address",
          "name": "operator",
          "type": "address"
        },
        {
          "indexed": false,
          "internalType": "bool",
          "name": "approved",
          "type": "bool"
        }
      ],
      "name": "ApprovalForAll",
      "type": "event"
    },
    {
      "anonymous": false,
      "inputs": [
        {
          "indexed": true,
          "internalType": "address",
          "name": "delegator",
          "type": "address"
        },
        {
          "indexed": true,
          "internalType": "address",
          "name": "fromDelegate",
          "type": "address"
        },
        {
          "indexed": true,
          "internalType": "address",
          "name": "toDelegate",
          "type": "address"
        }
      ],
      "name": "DelegateChanged",
      "type": "event"
    },
    {
      "anonymous": false,
      "inputs": [
        {
          "indexed": true,
          "internalType": "address",
          "name": "delegate",
          "type": "address"
        },
        {
          "indexed": false,
          "internalType": "uint256",
          "name": "previousBalance",
          "type": "uint256"
        },
        {
          "indexed": false,
          "internalType": "uint256",
          "name": "newBalance",
          "type": "uint256"
        }
      ],
      "name": "DelegateVotesChanged",
      "type": "event"
    },
    {
      "anonymous": false,
      "inputs": [
        {
          "indexed": false,
          "internalType": "address",
          "name": "fantosiAdmin",
          "type": "address"
        }
      ],
      "name": "FantosiAdminUpdated",
      "type": "event"
    },
    {
      "anonymous": false,
      "inputs": [],
      "name": "MinterLocked",
      "type": "event"
    },
    {
      "anonymous": false,
      "inputs": [
        {
          "indexed": false,
          "internalType": "address",
          "name": "minter",
          "type": "address"
        }
      ],
      "name": "MinterUpdated",
      "type": "event"
    },
    {
      "anonymous": false,
      "inputs": [
        {
          "indexed": true,
          "internalType": "address",
          "name": "previousOwner",
          "type": "address"
        },
        {
          "indexed": true,
          "internalType": "address",
          "name": "newOwner",
          "type": "address"
        }
      ],
      "name": "OwnershipTransferred",
      "type": "event"
    },
    {
      "anonymous": false,
      "inputs": [
        {
          "indexed": true,
          "internalType": "uint256",
          "name": "tokenId",
          "type": "uint256"
        }
      ],
      "name": "PhotoCardBurned",
      "type": "event"
    },
    {
      "anonymous": false,
      "inputs": [
        {
          "indexed": true,
          "internalType": "uint256",
          "name": "tokenId",
          "type": "uint256"
        }
      ],
      "name": "PhotoCardCreated",
      "type": "event"
    },
    {
      "anonymous": false,
      "inputs": [
        {
          "indexed": true,
          "internalType": "address",
          "name": "from",
          "type": "address"
        },
        {
          "indexed": true,
          "internalType": "address",
          "name": "to",
          "type": "address"
        },
        {
          "indexed": true,
          "internalType": "uint256",
          "name": "tokenId",
          "type": "uint256"
        }
      ],
      "name": "Transfer",
      "type": "event"
    },
    {
      "inputs": [],
      "name": "DELEGATION_TYPEHASH",
      "outputs": [
        {
          "internalType": "bytes32",
          "name": "",
          "type": "bytes32"
        }
      ],
      "stateMutability": "view",
      "type": "function"
    },
    {
      "inputs": [],
      "name": "DOMAIN_TYPEHASH",
      "outputs": [
        {
          "internalType": "bytes32",
          "name": "",
          "type": "bytes32"
        }
      ],
      "stateMutability": "view",
      "type": "function"
    },
    {
      "inputs": [
        {
          "internalType": "address",
          "name": "to",
          "type": "address"
        },
        {
          "internalType": "uint256",
          "name": "tokenId",
          "type": "uint256"
        }
      ],
      "name": "approve",
      "outputs": [],
      "stateMutability": "nonpayable",
      "type": "function"
    },
    {
      "inputs": [
        {
          "internalType": "address",
          "name": "owner",
          "type": "address"
        }
      ],
      "name": "balanceOf",
      "outputs": [
        {
          "internalType": "uint256",
          "name": "",
          "type": "uint256"
        }
      ],
      "stateMutability": "view",
      "type": "function"
    },
    {
      "inputs": [
        {
          "internalType": "uint256",
          "name": "nounId",
          "type": "uint256"
        }
      ],
      "name": "burn",
      "outputs": [],
      "stateMutability": "nonpayable",
      "type": "function"
    },
    {
      "inputs": [
        {
          "internalType": "address",
          "name": "",
          "type": "address"
        },
        {
          "internalType": "uint32",
          "name": "",
          "type": "uint32"
        }
      ],
      "name": "checkpoints",
      "outputs": [
        {
          "internalType": "uint32",
          "name": "fromBlock",
          "type": "uint32"
        },
        {
          "internalType": "uint96",
          "name": "votes",
          "type": "uint96"
        }
      ],
      "stateMutability": "view",
      "type": "function"
    },
    {
      "inputs": [],
      "name": "contractURI",
      "outputs": [
        {
          "internalType": "string",
          "name": "",
          "type": "string"
        }
      ],
      "stateMutability": "view",
      "type": "function"
    },
    {
      "inputs": [],
      "name": "decimals",
      "outputs": [
        {
          "internalType": "uint8",
          "name": "",
          "type": "uint8"
        }
      ],
      "stateMutability": "view",
      "type": "function"
    },
    {
      "inputs": [
        {
          "internalType": "address",
          "name": "delegatee",
          "type": "address"
        }
      ],
      "name": "delegate",
      "outputs": [],
      "stateMutability": "nonpayable",
      "type": "function"
    },
    {
      "inputs": [
        {
          "internalType": "address",
          "name": "delegatee",
          "type": "address"
        },
        {
          "internalType": "uint256",
          "name": "nonce",
          "type": "uint256"
        },
        {
          "internalType": "uint256",
          "name": "expiry",
          "type": "uint256"
        },
        {
          "internalType": "uint8",
          "name": "v",
          "type": "uint8"
        },
        {
          "internalType": "bytes32",
          "name": "r",
          "type": "bytes32"
        },
        {
          "internalType": "bytes32",
          "name": "s",
          "type": "bytes32"
        }
      ],
      "name": "delegateBySig",
      "outputs": [],
      "stateMutability": "nonpayable",
      "type": "function"
    },
    {
      "inputs": [
        {
          "internalType": "address",
          "name": "delegator",
          "type": "address"
        }
      ],
      "name": "delegates",
      "outputs": [
        {
          "internalType": "address",
          "name": "",
          "type": "address"
        }
      ],
      "stateMutability": "view",
      "type": "function"
    },
    {
      "inputs": [],
      "name": "fantosiAdmin",
      "outputs": [
        {
          "internalType": "address",
          "name": "",
          "type": "address"
        }
      ],
      "stateMutability": "view",
      "type": "function"
    },
    {
      "inputs": [],
      "name": "fantosiArtist",
      "outputs": [
        {
          "internalType": "address",
          "name": "",
          "type": "address"
        }
      ],
      "stateMutability": "view",
      "type": "function"
    },
    {
      "inputs": [
        {
          "internalType": "uint256",
          "name": "tokenId",
          "type": "uint256"
        }
      ],
      "name": "getApproved",
      "outputs": [
        {
          "internalType": "address",
          "name": "",
          "type": "address"
        }
      ],
      "stateMutability": "view",
      "type": "function"
    },
    {
      "inputs": [
        {
          "internalType": "address",
          "name": "account",
          "type": "address"
        }
      ],
      "name": "getCurrentVotes",
      "outputs": [
        {
          "internalType": "uint96",
          "name": "",
          "type": "uint96"
        }
      ],
      "stateMutability": "view",
      "type": "function"
    },
    {
      "inputs": [
        {
          "internalType": "address",
          "name": "account",
          "type": "address"
        },
        {
          "internalType": "uint256",
          "name": "blockNumber",
          "type": "uint256"
        }
      ],
      "name": "getPriorVotes",
      "outputs": [
        {
          "internalType": "uint96",
          "name": "",
          "type": "uint96"
        }
      ],
      "stateMutability": "view",
      "type": "function"
    },
    {
      "inputs": [
        {
          "internalType": "address",
          "name": "owner",
          "type": "address"
        },
        {
          "internalType": "address",
          "name": "operator",
          "type": "address"
        }
      ],
      "name": "isApprovedForAll",
      "outputs": [
        {
          "internalType": "bool",
          "name": "",
          "type": "bool"
        }
      ],
      "stateMutability": "view",
      "type": "function"
    },
    {
      "inputs": [],
      "name": "isMinterLocked",
      "outputs": [
        {
          "internalType": "bool",
          "name": "",
          "type": "bool"
        }
      ],
      "stateMutability": "view",
      "type": "function"
    },
    {
      "inputs": [],
      "name": "lockMinter",
      "outputs": [],
      "stateMutability": "nonpayable",
      "type": "function"
    },
    {
      "inputs": [],
      "name": "mint",
      "outputs": [
        {
          "internalType": "uint256",
          "name": "",
          "type": "uint256"
        }
      ],
      "stateMutability": "nonpayable",
      "type": "function"
    },
    {
      "inputs": [],
      "name": "minter",
      "outputs": [
        {
          "internalType": "address",
          "name": "",
          "type": "address"
        }
      ],
      "stateMutability": "view",
      "type": "function"
    },
    {
      "inputs": [],
      "name": "name",
      "outputs": [
        {
          "internalType": "string",
          "name": "",
          "type": "string"
        }
      ],
      "stateMutability": "view",
      "type": "function"
    },
    {
      "inputs": [
        {
          "internalType": "address",
          "name": "",
          "type": "address"
        }
      ],
      "name": "nonces",
      "outputs": [
        {
          "internalType": "uint256",
          "name": "",
          "type": "uint256"
        }
      ],
      "stateMutability": "view",
      "type": "function"
    },
    {
      "inputs": [
        {
          "internalType": "address",
          "name": "",
          "type": "address"
        }
      ],
      "name": "numCheckpoints",
      "outputs": [
        {
          "internalType": "uint32",
          "name": "",
          "type": "uint32"
        }
      ],
      "stateMutability": "view",
      "type": "function"
    },
    {
      "inputs": [],
      "name": "owner",
      "outputs": [
        {
          "internalType": "address",
          "name": "",
          "type": "address"
        }
      ],
      "stateMutability": "view",
      "type": "function"
    },
    {
      "inputs": [
        {
          "internalType": "uint256",
          "name": "tokenId",
          "type": "uint256"
        }
      ],
      "name": "ownerOf",
      "outputs": [
        {
          "internalType": "address",
          "name": "",
          "type": "address"
        }
      ],
      "stateMutability": "view",
      "type": "function"
    },
    {
      "inputs": [],
      "name": "renounceOwnership",
      "outputs": [],
      "stateMutability": "nonpayable",
      "type": "function"
    },
    {
      "inputs": [
        {
          "internalType": "address",
          "name": "from",
          "type": "address"
        },
        {
          "internalType": "address",
          "name": "to",
          "type": "address"
        },
        {
          "internalType": "uint256",
          "name": "tokenId",
          "type": "uint256"
        }
      ],
      "name": "safeTransferFrom",
      "outputs": [],
      "stateMutability": "nonpayable",
      "type": "function"
    },
    {
      "inputs": [
        {
          "internalType": "address",
          "name": "from",
          "type": "address"
        },
        {
          "internalType": "address",
          "name": "to",
          "type": "address"
        },
        {
          "internalType": "uint256",
          "name": "tokenId",
          "type": "uint256"
        },
        {
          "internalType": "bytes",
          "name": "_data",
          "type": "bytes"
        }
      ],
      "name": "safeTransferFrom",
      "outputs": [],
      "stateMutability": "nonpayable",
      "type": "function"
    },
    {
      "inputs": [
        {
          "internalType": "address",
          "name": "operator",
          "type": "address"
        },
        {
          "internalType": "bool",
          "name": "approved",
          "type": "bool"
        }
      ],
      "name": "setApprovalForAll",
      "outputs": [],
      "stateMutability": "nonpayable",
      "type": "function"
    },
    {
      "inputs": [
        {
          "internalType": "string",
          "name": "newContractURIHash",
          "type": "string"
        }
      ],
      "name": "setContractURIHash",
      "outputs": [],
      "stateMutability": "nonpayable",
      "type": "function"
    },
    {
      "inputs": [
        {
          "internalType": "address",
          "name": "_minter",
          "type": "address"
        }
      ],
      "name": "setMinter",
      "outputs": [],
      "stateMutability": "nonpayable",
      "type": "function"
    },
    {
      "inputs": [
        {
          "internalType": "address",
          "name": "_fantosiAdmin",
          "type": "address"
        }
      ],
      "name": "setfantosiAdmin",
      "outputs": [],
      "stateMutability": "nonpayable",
      "type": "function"
    },
    {
      "inputs": [
        {
          "internalType": "bytes4",
          "name": "interfaceId",
          "type": "bytes4"
        }
      ],
      "name": "supportsInterface",
      "outputs": [
        {
          "internalType": "bool",
          "name": "",
          "type": "bool"
        }
      ],
      "stateMutability": "view",
      "type": "function"
    },
    {
      "inputs": [],
      "name": "symbol",
      "outputs": [
        {
          "internalType": "string",
          "name": "",
          "type": "string"
        }
      ],
      "stateMutability": "view",
      "type": "function"
    },
    {
      "inputs": [
        {
          "internalType": "uint256",
          "name": "index",
          "type": "uint256"
        }
      ],
      "name": "tokenByIndex",
      "outputs": [
        {
          "internalType": "uint256",
          "name": "",
          "type": "uint256"
        }
      ],
      "stateMutability": "view",
      "type": "function"
    },
    {
      "inputs": [
        {
          "internalType": "address",
          "name": "owner",
          "type": "address"
        },
        {
          "internalType": "uint256",
          "name": "index",
          "type": "uint256"
        }
      ],
      "name": "tokenOfOwnerByIndex",
      "outputs": [
        {
          "internalType": "uint256",
          "name": "",
          "type": "uint256"
        }
      ],
      "stateMutability": "view",
      "type": "function"
    },
    {
      "inputs": [
        {
          "internalType": "uint256",
          "name": "tokenId",
          "type": "uint256"
        }
      ],
      "name": "tokenURI",
      "outputs": [
        {
          "internalType": "string",
          "name": "",
          "type": "string"
        }
      ],
      "stateMutability": "view",
      "type": "function"
    },
    {
      "inputs": [],
      "name": "totalSupply",
      "outputs": [
        {
          "internalType": "uint256",
          "name": "",
          "type": "uint256"
        }
      ],
      "stateMutability": "view",
      "type": "function"
    },
    {
      "inputs": [
        {
          "internalType": "address",
          "name": "from",
          "type": "address"
        },
        {
          "internalType": "address",
          "name": "to",
          "type": "address"
        },
        {
          "internalType": "uint256",
          "name": "tokenId",
          "type": "uint256"
        }
      ],
      "name": "transferFrom",
      "outputs": [],
      "stateMutability": "nonpayable",
      "type": "function"
    },
    {
      "inputs": [
        {
          "internalType": "address",
          "name": "newOwner",
          "type": "address"
        }
      ],
      "name": "transferOwnership",
      "outputs": [],
      "stateMutability": "nonpayable",
      "type": "function"
    },
    {
      "inputs": [
        {
          "internalType": "address",
          "name": "delegator",
          "type": "address"
        }
      ],
      "name": "votesToDelegate",
      "outputs": [
        {
          "internalType": "uint96",
          "name": "",
          "type": "uint96"
        }
      ],
      "stateMutability": "view",
      "type": "function"
    }
  ],
  "bytecode": "0x60806040523480156200001157600080fd5b506040516200350838038062003508833981016040819052620000349162000241565b604051806040016040528060058152602001644e6f756e7360d81b815250604051806040016040528060048152602001632727aaa760e11b81525062000089620000836200011460201b60201c565b62000118565b81516200009e90600190602085019062000168565b508051620000b490600290602084019062000168565b5050600f80546001600160a01b038088166001600160a01b0319928316179092556010805487841690831617905560118054928616929091169190911790555080516200010990601390602084019062000168565b505050505062000393565b3390565b600080546001600160a01b038381166001600160a01b0319831681178455604051919092169283917f8be0079c531659141344cd1fd0a4f28419497f9722a3daafe3b4186f6b6457e09190a35050565b828054620001769062000356565b90600052602060002090601f0160209004810192826200019a5760008555620001e5565b82601f10620001b557805160ff1916838001178555620001e5565b82800160010185558215620001e5579182015b82811115620001e5578251825591602001919060010190620001c8565b50620001f3929150620001f7565b5090565b5b80821115620001f35760008155600101620001f8565b80516001600160a01b03811681146200022657600080fd5b919050565b634e487b7160e01b600052604160045260246000fd5b600080600080608085870312156200025857600080fd5b62000263856200020e565b93506020620002748187016200020e565b935062000284604087016200020e565b60608701519093506001600160401b0380821115620002a257600080fd5b818801915088601f830112620002b757600080fd5b815181811115620002cc57620002cc6200022b565b604051601f8201601f19908116603f01168101908382118183101715620002f757620002f76200022b565b816040528281528b868487010111156200031057600080fd5b600093505b8284101562000334578484018601518185018701529285019262000315565b82841115620003465760008684830101525b989b979a50959850505050505050565b600181811c908216806200036b57607f821691505b602082108114156200038d57634e487b7160e01b600052602260045260246000fd5b50919050565b61316580620003a36000396000f3fe608060405234801561001057600080fd5b506004361061025e5760003560e01c806370a0823111610146578063baedc1c4116100c3578063e9580e9111610087578063e9580e9114610587578063e985e9c51461059a578063f1127ed8146105d6578063f2fde38b1461063d578063fca3b5aa14610650578063fe2a17801461066357600080fd5b8063baedc1c41461051f578063c3cda52014610532578063c87b56dd14610545578063e7a324dc14610558578063e8a3d4851461057f57600080fd5b80638da5cb5b1161010a5780638da5cb5b146104cd57806395d89b41146104de578063a22cb465146104e6578063b4b5ea57146104f9578063b88d4fde1461050c57600080fd5b806370a082311461045f578063715018a61461047257806376daebe11461047a578063782d6fe1146104825780637ecebe00146104ad57600080fd5b80632579b08a116101df5780634f6ccce7116101a35780634f6ccce7146103c55780635557bf4f146103d8578063587cde1e146103eb5780635c19a95c146103fe5780636352211e146104115780636fcfff451461042457600080fd5b80632579b08a1461035f5780632f745c5914610372578063313ce5671461038557806342842e0e1461039f57806342966c68146103b257600080fd5b80631249c58b116102265780631249c58b146102f357806318160ddd146103095780631e688e101461031157806320606b701461032557806323b872dd1461034c57600080fd5b806301ffc9a71461026357806306fdde031461028b57806307546172146102a0578063081812fc146102cb578063095ea7b3146102de575b600080fd5b6102766102713660046128ca565b610676565b60405190151581526020015b60405180910390f35b6102936106a1565b604051610282919061293f565b6011546102b3906001600160a01b031681565b6040516001600160a01b039091168152602001610282565b6102b36102d9366004612952565b610733565b6102f16102ec366004612987565b6107cd565b005b6102fb6108e3565b604051908152602001610282565b6009546102fb565b60115461027690600160a01b900460ff1681565b6102fb7f8cad95687ba82c2ce50e74f7b754645e5117c3a5bec8151c0726d5857980a86681565b6102f161035a3660046129b1565b61099e565b6102f161036d3660046129ed565b6109cf565b6102fb610380366004612987565b610a7e565b61038d600081565b60405160ff9091168152602001610282565b6102f16103ad3660046129b1565b610b14565b6102f16103c0366004612952565b610b2f565b6102fb6103d3366004612952565b610bbb565b6010546102b3906001600160a01b031681565b6102b36103f93660046129ed565b610c4e565b6102f161040c3660046129ed565b610c80565b6102b361041f366004612952565b610c9e565b61044a6104323660046129ed565b600d6020526000908152604090205463ffffffff1681565b60405163ffffffff9091168152602001610282565b6102fb61046d3660046129ed565b610d15565b6102f1610d9c565b6102f1610dd2565b610495610490366004612987565b610e87565b6040516001600160601b039091168152602001610282565b6102fb6104bb3660046129ed565b600e6020526000908152604090205481565b6000546001600160a01b03166102b3565b610293611124565b6102f16104f4366004612a08565b611133565b6104956105073660046129ed565b6111f8565b6102f161051a366004612ad0565b611275565b6102f161052d366004612b4c565b6112ad565b6102f1610540366004612b95565b6112ee565b610293610553366004612952565b6115ec565b6102fb7fe48329057bfd03d55e49b547132e39cffd9c1820ad7b9d4c5307691425d15adf81565b6102936116d3565b6104956105953660046129ed565b6116fb565b6102766105a8366004612bf5565b6001600160a01b03918216600090815260066020908152604080832093909416825291909152205460ff1690565b6106196105e4366004612c28565b600c60209081526000928352604080842090915290825290205463ffffffff811690600160201b90046001600160601b031682565b6040805163ffffffff90931683526001600160601b03909116602083015201610282565b6102f161064b3660046129ed565b611727565b6102f161065e3660046129ed565b6117bf565b600f546102b3906001600160a01b031681565b60006001600160e01b0319821663780e9d6360e01b148061069b575061069b82611884565b92915050565b6060600180546106b090612c5d565b80601f01602080910402602001604051908101604052809291908181526020018280546106dc90612c5d565b80156107295780601f106106fe57610100808354040283529160200191610729565b820191906000526020600020905b81548152906001019060200180831161070c57829003601f168201915b5050505050905090565b6000818152600360205260408120546001600160a01b03166107b15760405162461bcd60e51b815260206004820152602c60248201527f4552433732313a20617070726f76656420717565727920666f72206e6f6e657860448201526b34b9ba32b73a103a37b5b2b760a11b60648201526084015b60405180910390fd5b506000908152600560205260409020546001600160a01b031690565b60006107d882610c9e565b9050806001600160a01b0316836001600160a01b031614156108465760405162461bcd60e51b815260206004820152602160248201527f4552433732313a20617070726f76616c20746f2063757272656e74206f776e656044820152603960f91b60648201526084016107a8565b336001600160a01b0382161480610862575061086281336105a8565b6108d45760405162461bcd60e51b815260206004820152603860248201527f4552433732313a20617070726f76652063616c6c6572206973206e6f74206f7760448201527f6e6572206e6f7220617070726f76656420666f7220616c6c000000000000000060648201526084016107a8565b6108de83836118d4565b505050565b6011546000906001600160a01b0316331461093b5760405162461bcd60e51b815260206004820152601860248201527729b2b73232b91034b9903737ba103a34329036b4b73a32b960411b60448201526064016107a8565b600a60125461094a9190612cae565b61097957600f5460128054610977926001600160a01b031691600061096e83612cd8565b91905055611942565b505b60115460128054610999926001600160a01b031691600061096e83612cd8565b905090565b6109a83382611991565b6109c45760405162461bcd60e51b81526004016107a890612cf3565b6108de838383611a88565b600f546001600160a01b03163314610a295760405162461bcd60e51b815260206004820152601e60248201527f53656e646572206973206e6f7420746865206e6f756e646572732044414f000060448201526064016107a8565b600f80546001600160a01b0319166001600160a01b0383169081179091556040519081527f3fbee62c50436a29dac237a8cb9ffe8fb25c82a7cbab59715bedce0066303db8906020015b60405180910390a150565b6000610a8983610d15565b8210610aeb5760405162461bcd60e51b815260206004820152602b60248201527f455243373231456e756d657261626c653a206f776e657220696e646578206f7560448201526a74206f6620626f756e647360a81b60648201526084016107a8565b506001600160a01b03919091166000908152600760209081526040808320938352929052205490565b6108de83838360405180602001604052806000815250611275565b6011546001600160a01b03163314610b845760405162461bcd60e51b815260206004820152601860248201527729b2b73232b91034b9903737ba103a34329036b4b73a32b960411b60448201526064016107a8565b610b8d81611c21565b60405181907fbb365157d2fb1bcc5f3d5c677b8080719931dd824a5a8b11f6b85a647ee4fc2190600090a250565b6000610bc660095490565b8210610c295760405162461bcd60e51b815260206004820152602c60248201527f455243373231456e756d657261626c653a20676c6f62616c20696e646578206f60448201526b7574206f6620626f756e647360a01b60648201526084016107a8565b60098281548110610c3c57610c3c612d44565b90600052602060002001549050919050565b6001600160a01b038082166000908152600b60205260408120549091168015610c775780610c79565b825b9392505050565b6001600160a01b038116610c915750335b610c9b3382611cb6565b50565b6000818152600360205260408120546001600160a01b03168061069b5760405162461bcd60e51b815260206004820152602960248201527f4552433732313a206f776e657220717565727920666f72206e6f6e657869737460448201526832b73a103a37b5b2b760b91b60648201526084016107a8565b60006001600160a01b038216610d805760405162461bcd60e51b815260206004820152602a60248201527f4552433732313a2062616c616e636520717565727920666f7220746865207a65604482015269726f206164647265737360b01b60648201526084016107a8565b506001600160a01b031660009081526004602052604090205490565b6000546001600160a01b03163314610dc65760405162461bcd60e51b81526004016107a890612d5a565b610dd06000611d36565b565b6000546001600160a01b03163314610dfc5760405162461bcd60e51b81526004016107a890612d5a565b601154600160a01b900460ff1615610e495760405162461bcd60e51b815260206004820152601060248201526f135a5b9d195c881a5cc81b1bd8dad95960821b60448201526064016107a8565b6011805460ff60a01b1916600160a01b1790556040517f192417b3f16b1ce69e0c59b0376549666650245ffc05e4b2569089dda8589b6690600090a1565b6000438210610efe5760405162461bcd60e51b815260206004820152603760248201527f455243373231436865636b706f696e7461626c653a3a6765745072696f72566f60448201527f7465733a206e6f74207965742064657465726d696e656400000000000000000060648201526084016107a8565b6001600160a01b0383166000908152600d602052604090205463ffffffff1680610f2c57600091505061069b565b6001600160a01b0384166000908152600c602052604081208491610f51600185612d8f565b63ffffffff90811682526020820192909252604001600020541611610fc4576001600160a01b0384166000908152600c6020526040812090610f94600184612d8f565b63ffffffff168152602081019190915260400160002054600160201b90046001600160601b0316915061069b9050565b6001600160a01b0384166000908152600c6020908152604080832083805290915290205463ffffffff16831015610fff57600091505061069b565b60008061100d600184612d8f565b90505b8163ffffffff168163ffffffff1611156110df57600060026110328484612d8f565b61103c9190612db4565b6110469083612d8f565b6001600160a01b0388166000908152600c6020908152604080832063ffffffff858116855290835292819020815180830190925254928316808252600160201b9093046001600160601b0316918101919091529192508714156110b35760200151945061069b9350505050565b805163ffffffff168711156110ca578193506110d8565b6110d5600183612d8f565b92505b5050611010565b506001600160a01b0385166000908152600c6020908152604080832063ffffffff909416835292905220546001600160601b03600160201b9091041691505092915050565b6060600280546106b090612c5d565b6001600160a01b03821633141561118c5760405162461bcd60e51b815260206004820152601960248201527f4552433732313a20617070726f766520746f2063616c6c65720000000000000060448201526064016107a8565b3360008181526006602090815260408083206001600160a01b03871680855290835292819020805460ff191686151590811790915590519081529192917f17307eab39ab6107e8899845ad3d59bd9653f200f220920489ca2b5937696c31910160405180910390a35050565b6001600160a01b0381166000908152600d602052604081205463ffffffff1680611223576000610c79565b6001600160a01b0383166000908152600c6020526040812090611247600184612d8f565b63ffffffff168152602081019190915260400160002054600160201b90046001600160601b03169392505050565b61127f3383611991565b61129b5760405162461bcd60e51b81526004016107a890612cf3565b6112a784848484611d86565b50505050565b6000546001600160a01b031633146112d75760405162461bcd60e51b81526004016107a890612d5a565b80516112ea90601390602084019061281b565b5050565b60007f8cad95687ba82c2ce50e74f7b754645e5117c3a5bec8151c0726d5857980a8666113196106a1565b805190602001206113274690565b60408051602080820195909552808201939093526060830191909152306080808401919091528151808403909101815260a0830182528051908401207fe48329057bfd03d55e49b547132e39cffd9c1820ad7b9d4c5307691425d15adf60c08401526001600160a01b038b1660e084015261010083018a90526101208084018a90528251808503909101815261014084019092528151919093012061190160f01b610160830152610162820183905261018282018190529192506000906101a20160408051601f198184030181528282528051602091820120600080855291840180845281905260ff8a169284019290925260608301889052608083018790529092509060019060a0016020604051602081039080840390855afa158015611453573d6000803e3d6000fd5b5050604051601f1901519150506001600160a01b0381166114d55760405162461bcd60e51b815260206004820152603660248201527f455243373231436865636b706f696e7461626c653a3a64656c656761746542796044820152755369673a20696e76616c6964207369676e617475726560501b60648201526084016107a8565b6001600160a01b0381166000908152600e602052604081208054916114f983612cd8565b9190505589146115665760405162461bcd60e51b815260206004820152603260248201527f455243373231436865636b706f696e7461626c653a3a64656c656761746542796044820152715369673a20696e76616c6964206e6f6e636560701b60648201526084016107a8565b874211156115d55760405162461bcd60e51b815260206004820152603660248201527f455243373231436865636b706f696e7461626c653a3a64656c6567617465427960448201527514da59ce881cda59db985d1d5c9948195e1c1a5c995960521b60648201526084016107a8565b6115df818b611cb6565b505050505b505050505050565b6000818152600360205260409020546060906001600160a01b031661166b5760405162461bcd60e51b815260206004820152602f60248201527f4552433732314d657461646174613a2055524920717565727920666f72206e6f60448201526e3732bc34b9ba32b73a103a37b5b2b760891b60648201526084016107a8565b600061168260408051602081019091526000815290565b905060008151116116a25760405180602001604052806000815250610c79565b806116ac84611db9565b6040516020016116bd929190612dd7565b6040516020818303038152906040529392505050565b606060136040516020016116e79190612e06565b604051602081830303815290604052905090565b600061069b61170983610d15565b6040518060600160405280603d81526020016130bc603d9139611eb7565b6000546001600160a01b031633146117515760405162461bcd60e51b81526004016107a890612d5a565b6001600160a01b0381166117b65760405162461bcd60e51b815260206004820152602660248201527f4f776e61626c653a206e6577206f776e657220697320746865207a65726f206160448201526564647265737360d01b60648201526084016107a8565b610c9b81611d36565b6000546001600160a01b031633146117e95760405162461bcd60e51b81526004016107a890612d5a565b601154600160a01b900460ff16156118365760405162461bcd60e51b815260206004820152601060248201526f135a5b9d195c881a5cc81b1bd8dad95960821b60448201526064016107a8565b601180546001600160a01b0319166001600160a01b0383169081179091556040519081527fad0f299ec81a386c98df0ac27dae11dd020ed1b56963c53a7292e7a3a314539a90602001610a73565b60006001600160e01b031982166380ac58cd60e01b14806118b557506001600160e01b03198216635b5e139f60e01b145b8061069b57506301ffc9a760e01b6001600160e01b031983161461069b565b600081815260056020526040902080546001600160a01b0319166001600160a01b038416908117909155819061190982610c9e565b6001600160a01b03167f8c5be1e5ebec7d5bd14f71427d1e84f3dd0314c0f7b2291e5b200ac8c7c3b92560405160405180910390a45050565b60006119606119596000546001600160a01b031690565b8484611ee6565b60405182907f3362e10f013cb5aa8f3927673ce91b1542a5b67dcd9a42f4af38a2728660b7d890600090a250919050565b6000818152600360205260408120546001600160a01b0316611a0a5760405162461bcd60e51b815260206004820152602c60248201527f4552433732313a206f70657261746f7220717565727920666f72206e6f6e657860448201526b34b9ba32b73a103a37b5b2b760a11b60648201526084016107a8565b6000611a1583610c9e565b9050806001600160a01b0316846001600160a01b03161480611a505750836001600160a01b0316611a4584610733565b6001600160a01b0316145b80611a8057506001600160a01b0380821660009081526006602090815260408083209388168352929052205460ff165b949350505050565b826001600160a01b0316611a9b82610c9e565b6001600160a01b031614611b035760405162461bcd60e51b815260206004820152602960248201527f4552433732313a207472616e73666572206f6620746f6b656e2074686174206960448201526839903737ba1037bbb760b91b60648201526084016107a8565b6001600160a01b038216611b655760405162461bcd60e51b8152602060048201526024808201527f4552433732313a207472616e7366657220746f20746865207a65726f206164646044820152637265737360e01b60648201526084016107a8565b611b70838383612058565b611b7b6000826118d4565b6001600160a01b0383166000908152600460205260408120805460019290611ba4908490612ebb565b90915550506001600160a01b0382166000908152600460205260408120805460019290611bd2908490612ed2565b909155505060008181526003602052604080822080546001600160a01b0319166001600160a01b03868116918217909255915184939187169160008051602061309c83398151915291a4505050565b6000611c2c82610c9e565b9050611c3a81600084612058565b611c456000836118d4565b6001600160a01b0381166000908152600460205260408120805460019290611c6e908490612ebb565b909155505060008281526003602052604080822080546001600160a01b0319169055518391906001600160a01b0384169060008051602061309c833981519152908390a45050565b6000611cc183610c4e565b6001600160a01b038481166000818152600b602052604080822080546001600160a01b031916888616908117909155905194955093928516927f3134e8a2e6d97e929a7e54011ea5485d7d196dd5f0ba4d4ef95803e8e3fc257f9190a46000611d29846116fb565b90506112a782848361207b565b600080546001600160a01b038381166001600160a01b0319831681178455604051919092169283917f8be0079c531659141344cd1fd0a4f28419497f9722a3daafe3b4186f6b6457e09190a35050565b611d91848484611a88565b611d9d84848484612227565b6112a75760405162461bcd60e51b81526004016107a890612eea565b606081611ddd5750506040805180820190915260018152600360fc1b602082015290565b8160005b8115611e075780611df181612cd8565b9150611e009050600a83612f3c565b9150611de1565b60008167ffffffffffffffff811115611e2257611e22612a44565b6040519080825280601f01601f191660200182016040528015611e4c576020820181803683370190505b5090505b8415611a8057611e61600183612ebb565b9150611e6e600a86612cae565b611e79906030612ed2565b60f81b818381518110611e8e57611e8e612d44565b60200101906001600160f81b031916908160001a905350611eb0600a86612f3c565b9450611e50565b600081600160601b8410611ede5760405162461bcd60e51b81526004016107a8919061293f565b509192915050565b6001600160a01b038216611f3c5760405162461bcd60e51b815260206004820181905260248201527f4552433732313a206d696e7420746f20746865207a65726f206164647265737360448201526064016107a8565b6000818152600360205260409020546001600160a01b031615611fa15760405162461bcd60e51b815260206004820152601c60248201527f4552433732313a20746f6b656e20616c7265616479206d696e7465640000000060448201526064016107a8565b611fad60008383612058565b6001600160a01b0382166000908152600460205260408120805460019290611fd6908490612ed2565b909155505060008181526003602052604080822080546001600160a01b0319166001600160a01b038681169190911790915590518392918616919060008051602061309c833981519152908290a480826001600160a01b0316846001600160a01b031660008051602061309c83398151915260405160405180910390a4505050565b612063838383612325565b6108de61206f84610c4e565b61207884610c4e565b60015b816001600160a01b0316836001600160a01b0316141580156120a657506000816001600160601b0316115b156108de576001600160a01b0383161561216b576001600160a01b0383166000908152600d602052604081205463ffffffff1690816120e6576000612132565b6001600160a01b0385166000908152600c602052604081209061210a600185612d8f565b63ffffffff168152602081019190915260400160002054600160201b90046001600160601b03165b9050600061215982856040518060600160405280603781526020016130f9603791396123dd565b90506121678684848461241f565b5050505b6001600160a01b038216156108de576001600160a01b0382166000908152600d602052604081205463ffffffff1690816121a65760006121f2565b6001600160a01b0384166000908152600c60205260408120906121ca600185612d8f565b63ffffffff168152602081019190915260400160002054600160201b90046001600160601b03165b90506000612219828560405180606001604052806036815260200161302260369139612617565b90506115e48584848461241f565b60006001600160a01b0384163b1561231a57604051630a85bd0160e11b81526001600160a01b0385169063150b7a029061226b903390899088908890600401612f50565b6020604051808303816000875af19250505080156122a6575060408051601f3d908101601f191682019092526122a391810190612f8d565b60015b612300573d8080156122d4576040519150601f19603f3d011682016040523d82523d6000602084013e6122d9565b606091505b5080516122f85760405162461bcd60e51b81526004016107a890612eea565b805181602001fd5b6001600160e01b031916630a85bd0160e11b149050611a80565b506001949350505050565b6001600160a01b0383166123805761237b81600980546000838152600a60205260408120829055600182018355919091527f6e1540171b6c0c960b71a7020d9f60077f6af931a8bbf590da0223dacf75c7af0155565b6123a3565b816001600160a01b0316836001600160a01b0316146123a3576123a38382612664565b6001600160a01b0382166123ba576108de81612701565b826001600160a01b0316826001600160a01b0316146108de576108de82826127b0565b6000836001600160601b0316836001600160601b0316111582906124145760405162461bcd60e51b81526004016107a8919061293f565b50611a808385612faa565b600061244343604051806080016040528060448152602001613058604491396127f4565b905060008463ffffffff1611801561249d57506001600160a01b0385166000908152600c6020526040812063ffffffff831691612481600188612d8f565b63ffffffff908116825260208201929092526040016000205416145b15612511576001600160a01b0385166000908152600c6020526040812083916124c7600188612d8f565b63ffffffff168152602081019190915260400160002080546001600160601b0392909216600160201b026fffffffffffffffffffffffff00000000199092169190911790556125c2565b60408051808201825263ffffffff80841682526001600160601b0380861660208085019182526001600160a01b038b166000908152600c82528681208b8616825290915294909420925183549451909116600160201b026fffffffffffffffffffffffffffffffff19909416911617919091179055612591846001612fca565b6001600160a01b0386166000908152600d60205260409020805463ffffffff191663ffffffff929092169190911790555b604080516001600160601b038086168252841660208201526001600160a01b038716917fdec2bacdd2f05b59de34da9b523dff8be42e5e38e818c82fdb0bae774387a724910160405180910390a25050505050565b6000806126248486612fe9565b9050846001600160601b0316816001600160601b03161015839061265b5760405162461bcd60e51b81526004016107a8919061293f565b50949350505050565b6000600161267184610d15565b61267b9190612ebb565b6000838152600860205260409020549091508082146126ce576001600160a01b03841660009081526007602090815260408083208584528252808320548484528184208190558352600890915290208190555b5060009182526008602090815260408084208490556001600160a01b039094168352600781528383209183525290812055565b60095460009061271390600190612ebb565b6000838152600a60205260408120546009805493945090928490811061273b5761273b612d44565b90600052602060002001549050806009838154811061275c5761275c612d44565b6000918252602080832090910192909255828152600a909152604080822084905585825281205560098054806127945761279461300b565b6001900381819060005260206000200160009055905550505050565b60006127bb83610d15565b6001600160a01b039093166000908152600760209081526040808320868452825280832085905593825260089052919091209190915550565b600081600160201b8410611ede5760405162461bcd60e51b81526004016107a8919061293f565b82805461282790612c5d565b90600052602060002090601f016020900481019282612849576000855561288f565b82601f1061286257805160ff191683800117855561288f565b8280016001018555821561288f579182015b8281111561288f578251825591602001919060010190612874565b5061289b92915061289f565b5090565b5b8082111561289b57600081556001016128a0565b6001600160e01b031981168114610c9b57600080fd5b6000602082840312156128dc57600080fd5b8135610c79816128b4565b60005b838110156129025781810151838201526020016128ea565b838111156112a75750506000910152565b6000815180845261292b8160208601602086016128e7565b601f01601f19169290920160200192915050565b602081526000610c796020830184612913565b60006020828403121561296457600080fd5b5035919050565b80356001600160a01b038116811461298257600080fd5b919050565b6000806040838503121561299a57600080fd5b6129a38361296b565b946020939093013593505050565b6000806000606084860312156129c657600080fd5b6129cf8461296b565b92506129dd6020850161296b565b9150604084013590509250925092565b6000602082840312156129ff57600080fd5b610c798261296b565b60008060408385031215612a1b57600080fd5b612a248361296b565b915060208301358015158114612a3957600080fd5b809150509250929050565b634e487b7160e01b600052604160045260246000fd5b600067ffffffffffffffff80841115612a7557612a75612a44565b604051601f8501601f19908116603f01168101908282118183101715612a9d57612a9d612a44565b81604052809350858152868686011115612ab657600080fd5b858560208301376000602087830101525050509392505050565b60008060008060808587031215612ae657600080fd5b612aef8561296b565b9350612afd6020860161296b565b925060408501359150606085013567ffffffffffffffff811115612b2057600080fd5b8501601f81018713612b3157600080fd5b612b4087823560208401612a5a565b91505092959194509250565b600060208284031215612b5e57600080fd5b813567ffffffffffffffff811115612b7557600080fd5b8201601f81018413612b8657600080fd5b611a8084823560208401612a5a565b60008060008060008060c08789031215612bae57600080fd5b612bb78761296b565b95506020870135945060408701359350606087013560ff81168114612bdb57600080fd5b9598949750929560808101359460a0909101359350915050565b60008060408385031215612c0857600080fd5b612c118361296b565b9150612c1f6020840161296b565b90509250929050565b60008060408385031215612c3b57600080fd5b612c448361296b565b9150602083013563ffffffff81168114612a3957600080fd5b600181811c90821680612c7157607f821691505b60208210811415612c9257634e487b7160e01b600052602260045260246000fd5b50919050565b634e487b7160e01b600052601260045260246000fd5b600082612cbd57612cbd612c98565b500690565b634e487b7160e01b600052601160045260246000fd5b6000600019821415612cec57612cec612cc2565b5060010190565b60208082526031908201527f4552433732313a207472616e736665722063616c6c6572206973206e6f74206f6040820152701ddb995c881b9bdc88185c1c1c9bdd9959607a1b606082015260800190565b634e487b7160e01b600052603260045260246000fd5b6020808252818101527f4f776e61626c653a2063616c6c6572206973206e6f7420746865206f776e6572604082015260600190565b600063ffffffff83811690831681811015612dac57612dac612cc2565b039392505050565b600063ffffffff80841680612dcb57612dcb612c98565b92169190910492915050565b60008351612de98184602088016128e7565b835190830190612dfd8183602088016128e7565b01949350505050565b66697066733a2f2f60c81b8152600060076000845481600182811c915080831680612e3257607f831692505b6020808410821415612e5257634e487b7160e01b86526022600452602486fd5b818015612e665760018114612e7b57612eac565b60ff1986168a890152848a0188019650612eac565b60008b81526020902060005b86811015612ea25781548c82018b0152908501908301612e87565b505087858b010196505b50949998505050505050505050565b600082821015612ecd57612ecd612cc2565b500390565b60008219821115612ee557612ee5612cc2565b500190565b60208082526032908201527f4552433732313a207472616e7366657220746f206e6f6e20455243373231526560408201527131b2b4bb32b91034b6b83632b6b2b73a32b960711b606082015260800190565b600082612f4b57612f4b612c98565b500490565b6001600160a01b0385811682528416602082015260408101839052608060608201819052600090612f8390830184612913565b9695505050505050565b600060208284031215612f9f57600080fd5b8151610c79816128b4565b60006001600160601b0383811690831681811015612dac57612dac612cc2565b600063ffffffff808316818516808303821115612dfd57612dfd612cc2565b60006001600160601b03808316818516808303821115612dfd57612dfd612cc2565b634e487b7160e01b600052603160045260246000fdfe455243373231436865636b706f696e7461626c653a3a5f6d6f766544656c6567617465733a20616d6f756e74206f766572666c6f7773455243373231436865636b706f696e7461626c653a3a5f7772697465436865636b706f696e743a20626c6f636b206e756d62657220657863656564732033322062697473ddf252ad1be2c89b69c2b068fc378daa952ba7f163c4a11628f55a4df523b3ef455243373231436865636b706f696e7461626c653a3a766f746573546f44656c65676174653a20616d6f756e7420657863656564732039362062697473455243373231436865636b706f696e7461626c653a3a5f6d6f766544656c6567617465733a20616d6f756e7420756e646572666c6f7773a26469706673582212209bbb48c6d31020d8c150dfe20f964961c2dad8c4116fa08aef00bb6f0f71204664736f6c634300080b0033",
  "linkReferences": {},
  "deployedLinkReferences": {}
}