{
  "_format": "hh-sol-artifact-1",
  "contractName": "FantosiView",
  "sourceName": "src/FantosiView.sol",
  "abi": [
    {
      "anonymous": false,
      "inputs": [
        {
          "indexed": false,
          "internalType": "uint8",
          "name": "version",
          "type": "uint8"
        }
      ],
      "name": "Initialized",
      "type": "event"
    },
    {
      "inputs": [
        {
          "internalType": "uint256",
          "name": "",
          "type": "uint256"
        }
      ],
      "name": "artists",
      "outputs": [
        {
          "internalType": "string",
          "name": "",
          "type": "string"
        }
      ],
      "stateMutability": "view",
      "type": "function"
    },
    {
      "inputs": [
        {
          "internalType": "contract IFantosiToken",
          "name": "",
          "type": "address"
        }
      ],
      "name": "auctionMap",
      "outputs": [
        {
          "internalType": "contract IFantosiAuctionHouse",
          "name": "",
          "type": "address"
        }
      ],
      "stateMutability": "view",
      "type": "function"
    },
    {
      "inputs": [
        {
          "internalType": "string",
          "name": "",
          "type": "string"
        }
      ],
      "name": "fantosiDAOLogicList",
      "outputs": [
        {
          "internalType": "contract IFantosiDAOLogic",
          "name": "",
          "type": "address"
        }
      ],
      "stateMutability": "view",
      "type": "function"
    },
    {
      "inputs": [
        {
          "internalType": "string",
          "name": "",
          "type": "string"
        }
      ],
      "name": "fantosiTokenList",
      "outputs": [
        {
          "internalType": "contract IFantosiToken",
          "name": "",
          "type": "address"
        }
      ],
      "stateMutability": "view",
      "type": "function"
    },
    {
      "inputs": [
        {
          "internalType": "uint256",
          "name": "",
          "type": "uint256"
        }
      ],
      "name": "fantosiTokens",
      "outputs": [
        {
          "internalType": "contract IFantosiToken",
          "name": "",
          "type": "address"
        }
      ],
      "stateMutability": "view",
      "type": "function"
    },
    {
      "inputs": [],
      "name": "getAllArtistInfo",
      "outputs": [
        {
          "components": [
            {
              "internalType": "string",
              "name": "artistKey",
              "type": "string"
            },
            {
              "internalType": "contract IFantosiToken",
              "name": "fantosiTokenAddr",
              "type": "address"
            },
            {
              "internalType": "contract IFantosiAuctionHouse",
              "name": "auctionHouseAddr",
              "type": "address"
            }
          ],
          "internalType": "struct FantosiView.Artist[]",
          "name": "artistsInfo",
          "type": "tuple[]"
        }
      ],
      "stateMutability": "view",
      "type": "function"
    },
    {
      "inputs": [],
      "name": "getAllPhotoCardInfo",
      "outputs": [
        {
          "components": [
            {
              "internalType": "string",
              "name": "metadataURI",
              "type": "string"
            },
            {
              "components": [
                {
                  "internalType": "uint256",
                  "name": "photoCardId",
                  "type": "uint256"
                },
                {
                  "internalType": "uint256",
                  "name": "amount",
                  "type": "uint256"
                },
                {
                  "internalType": "uint256",
                  "name": "startTime",
                  "type": "uint256"
                },
                {
                  "internalType": "uint256",
                  "name": "finalAuctionTime",
                  "type": "uint256"
                },
                {
                  "internalType": "uint256",
                  "name": "endTime",
                  "type": "uint256"
                },
                {
                  "internalType": "address payable",
                  "name": "bidder",
                  "type": "address"
                },
                {
                  "internalType": "bool",
                  "name": "isFinalBid",
                  "type": "bool"
                },
                {
                  "internalType": "bool",
                  "name": "settled",
                  "type": "bool"
                }
              ],
              "internalType": "struct IFantosiAuctionHouse.Auction",
              "name": "currentAuction",
              "type": "tuple"
            }
          ],
          "internalType": "struct FantosiView.PhotoCardInfo[]",
          "name": "allPhotoCardInfo",
          "type": "tuple[]"
        }
      ],
      "stateMutability": "view",
      "type": "function"
    },
    {
      "inputs": [
        {
          "internalType": "string",
          "name": "key",
          "type": "string"
        }
      ],
      "name": "getArtistAllProposalInfo",
      "outputs": [
        {
          "components": [
            {
              "internalType": "uint256",
              "name": "id",
              "type": "uint256"
            },
            {
              "internalType": "address",
              "name": "proposer",
              "type": "address"
            },
            {
              "internalType": "uint256",
              "name": "proposalThreshold",
              "type": "uint256"
            },
            {
              "internalType": "uint256",
              "name": "quorumVotes",
              "type": "uint256"
            },
            {
              "internalType": "uint256",
              "name": "eta",
              "type": "uint256"
            },
            {
              "internalType": "uint256",
              "name": "startBlock",
              "type": "uint256"
            },
            {
              "internalType": "uint256",
              "name": "endBlock",
              "type": "uint256"
            },
            {
              "internalType": "uint256",
              "name": "forVotes",
              "type": "uint256"
            },
            {
              "internalType": "uint256",
              "name": "againstVotes",
              "type": "uint256"
            },
            {
              "internalType": "uint256",
              "name": "abstainVotes",
              "type": "uint256"
            },
            {
              "internalType": "bool",
              "name": "canceled",
              "type": "bool"
            },
            {
              "internalType": "bool",
              "name": "vetoed",
              "type": "bool"
            },
            {
              "internalType": "bool",
              "name": "executed",
              "type": "bool"
            },
            {
              "internalType": "uint256",
              "name": "totalSupply",
              "type": "uint256"
            },
            {
              "internalType": "uint256",
              "name": "creationBlock",
              "type": "uint256"
            },
            {
              "internalType": "address[]",
              "name": "targets",
              "type": "address[]"
            },
            {
              "internalType": "uint256[]",
              "name": "values",
              "type": "uint256[]"
            }
          ],
          "internalType": "struct IFantosiDAOLogic.ProposalCondensedDto[]",
          "name": "allProposalInfo",
          "type": "tuple[]"
        }
      ],
      "stateMutability": "view",
      "type": "function"
    },
    {
      "inputs": [
        {
          "internalType": "string",
          "name": "key",
          "type": "string"
        }
      ],
      "name": "getArtistPhotoCardHistoryInfo",
      "outputs": [
        {
          "components": [
            {
              "internalType": "string",
              "name": "metadataURI",
              "type": "string"
            },
            {
              "components": [
                {
                  "internalType": "uint256",
                  "name": "photoCardId",
                  "type": "uint256"
                },
                {
                  "internalType": "uint256",
                  "name": "amount",
                  "type": "uint256"
                },
                {
                  "internalType": "uint256",
                  "name": "startTime",
                  "type": "uint256"
                },
                {
                  "internalType": "uint256",
                  "name": "finalAuctionTime",
                  "type": "uint256"
                },
                {
                  "internalType": "uint256",
                  "name": "endTime",
                  "type": "uint256"
                },
                {
                  "internalType": "address payable",
                  "name": "bidder",
                  "type": "address"
                },
                {
                  "internalType": "bool",
                  "name": "isFinalBid",
                  "type": "bool"
                },
                {
                  "internalType": "bool",
                  "name": "settled",
                  "type": "bool"
                }
              ],
              "internalType": "struct IFantosiAuctionHouse.Auction",
              "name": "currentAuction",
              "type": "tuple"
            }
          ],
          "internalType": "struct FantosiView.PhotoCardInfo[]",
          "name": "allPhotoCardInfo",
          "type": "tuple[]"
        }
      ],
      "stateMutability": "view",
      "type": "function"
    },
    {
      "inputs": [
        {
          "internalType": "string",
          "name": "key",
          "type": "string"
        }
      ],
      "name": "getArtistPhotoCardInfo",
      "outputs": [
        {
          "components": [
            {
              "internalType": "string",
              "name": "metadataURI",
              "type": "string"
            },
            {
              "components": [
                {
                  "internalType": "uint256",
                  "name": "photoCardId",
                  "type": "uint256"
                },
                {
                  "internalType": "uint256",
                  "name": "amount",
                  "type": "uint256"
                },
                {
                  "internalType": "uint256",
                  "name": "startTime",
                  "type": "uint256"
                },
                {
                  "internalType": "uint256",
                  "name": "finalAuctionTime",
                  "type": "uint256"
                },
                {
                  "internalType": "uint256",
                  "name": "endTime",
                  "type": "uint256"
                },
                {
                  "internalType": "address payable",
                  "name": "bidder",
                  "type": "address"
                },
                {
                  "internalType": "bool",
                  "name": "isFinalBid",
                  "type": "bool"
                },
                {
                  "internalType": "bool",
                  "name": "settled",
                  "type": "bool"
                }
              ],
              "internalType": "struct IFantosiAuctionHouse.Auction",
              "name": "currentAuction",
              "type": "tuple"
            }
          ],
          "internalType": "struct FantosiView.PhotoCardInfo",
          "name": "photoCardInfo",
          "type": "tuple"
        }
      ],
      "stateMutability": "view",
      "type": "function"
    },
    {
      "inputs": [
        {
          "internalType": "string",
          "name": "key",
          "type": "string"
        }
      ],
      "name": "getFantosiTokenAddress",
      "outputs": [
        {
          "internalType": "contract IFantosiToken",
          "name": "",
          "type": "address"
        }
      ],
      "stateMutability": "view",
      "type": "function"
    },
    {
      "inputs": [],
      "name": "initialize",
      "outputs": [],
      "stateMutability": "nonpayable",
      "type": "function"
    },
    {
      "inputs": [
        {
          "internalType": "string",
          "name": "key",
          "type": "string"
        },
        {
          "internalType": "contract IFantosiDAOLogic",
          "name": "fantosiDAOLogic",
          "type": "address"
        }
      ],
      "name": "setFantosiDAOLogic",
      "outputs": [],
      "stateMutability": "nonpayable",
      "type": "function"
    },
    {
      "inputs": [
        {
          "internalType": "string",
          "name": "key",
          "type": "string"
        },
        {
          "internalType": "contract IFantosiToken",
          "name": "fantosiToken",
          "type": "address"
        }
      ],
      "name": "setFantosiTokenAddress",
      "outputs": [],
      "stateMutability": "nonpayable",
      "type": "function"
    },
    {
      "inputs": [
        {
          "internalType": "contract IFantosiToken",
          "name": "fantosiToken",
          "type": "address"
        },
        {
          "internalType": "contract IFantosiAuctionHouse",
          "name": "fantosiAuctionHouse",
          "type": "address"
        }
      ],
      "name": "setFantosiTokenAuctionHouse",
      "outputs": [],
      "stateMutability": "nonpayable",
      "type": "function"
    }
  ],
  "bytecode": "0x608060405234801561001057600080fd5b50611c6e806100206000396000f3fe608060405234801561001057600080fd5b50600436106100f55760003560e01c8063b069828a11610097578063c940f5d111610066578063c940f5d114610261578063cd7e10c114610295578063ce69e9d3146102b5578063db72d433146102c857600080fd5b8063b069828a146101fb578063b43132551461020e578063b50d521f14610221578063be78c4031461024157600080fd5b80636d75d291116100d35780636d75d2911461018d5780638129fc1c146101cb5780639034039a146101d3578063939bdac3146101e657600080fd5b80631b33a1da146100fa5780634093a876146101185780635922eb9f14610164575b600080fd5b6101026102db565b60405161010f91906111a5565b60405180910390f35b61014c610126366004611320565b80516020818301810180516003825292820191909301209152546001600160a01b031681565b6040516001600160a01b03909116815260200161010f565b61014c610172366004611371565b6004602052600090815260409020546001600160a01b031681565b6101c961019b36600461138e565b6001600160a01b03918216600090815260046020526040902080546001600160a01b03191691909216179055565b005b6101c961057c565b6101c96101e13660046113c7565b6105e9565b6101ee61062d565b60405161010f9190611490565b61014c6102093660046114f2565b610742565b6101ee61021c366004611320565b61076c565b61023461022f366004611320565b610a4f565b60405161010f919061150b565b61025461024f366004611320565b610a74565b60405161010f9190611592565b61014c61026f366004611320565b80516020818301810180516005825292820191909301209152546001600160a01b031681565b6102a86102a33660046114f2565b610cad565b60405161010f91906116bf565b6101c96102c33660046113c7565b610d59565b61014c6102d6366004611320565b610e73565b606060006001805480602002602001604051908101604052809291908181526020016000905b828210156103ad578382906000526020600020018054610320906116d2565b80601f016020809104026020016040519081016040528092919081815260200182805461034c906116d2565b80156103995780601f1061036e57610100808354040283529160200191610399565b820191906000526020600020905b81548152906001019060200180831161037c57829003601f168201915b505050505081526020019060010190610301565b50508251929350829150506001600160401b038111156103cf576103cf611234565b60405190808252806020026020018201604052801561041a57816020015b60408051606080820183528152600060208083018290529282015282526000199092019101816103ed5790505b50925060005b818110156105765782818151811061043a5761043a61170d565b60200260200101518482815181106104545761045461170d565b60200260200101516000018190525060038382815181106104775761047761170d565b602002602001015160405161048c9190611723565b9081526040519081900360200190205484516001600160a01b03909116908590839081106104bc576104bc61170d565b6020026020010151602001906001600160a01b031690816001600160a01b031681525050600460008583815181106104f6576104f661170d565b6020026020010151602001516001600160a01b03166001600160a01b0316815260200190815260200160002060009054906101000a90046001600160a01b03168482815181106105485761054861170d565b60209081029190910101516001600160a01b039091166040909101528061056e81611755565b915050610420565b50505090565b60006105886001610ea4565b905080156105a0576000805461ff0019166101001790555b80156105e6576000805461ff0019169055604051600181527f7f26b83ff96e1f2b6a682f133852f6798a09c465da95921460cefb38474024989060200160405180910390a15b50565b806005836040516105fa9190611723565b90815260405190819003602001902080546001600160a01b03929092166001600160a01b03199092169190911790555050565b60606000600280548060200260200160405190810160405280929190818152602001828054801561068757602002820191906000526020600020905b81546001600160a01b03168152600190910190602001808311610669575b5050835193945083925050506001600160401b038111156106aa576106aa611234565b6040519080825280602002602001820160405280156106e357816020015b6106d061103f565b8152602001906001900390816106c85790505b50925060005b81811015610576576107138382815181106107065761070661170d565b6020026020010151610f3a565b8482815181106107255761072561170d565b602090810291909101015261073b600182611770565b90506106e9565b6002818154811061075257600080fd5b6000918252602090912001546001600160a01b0316905081565b6060600061077983610e73565b6001600160a01b038082166000908152600460208181526040808420548151639eafe29f60e01b815291519697509094169492938593639eafe29f9382810193928290030181865afa1580156107d3573d6000803e3d6000fd5b505050506040513d601f19601f820116820180604052508101906107f79190611788565b90506000816001600160401b0381111561081357610813611234565b60405190808252806020026020018201604052801561084c57816020015b61083961105e565b8152602001906001900390816108315790505b509050826001600160a01b031663acaff8776040518163ffffffff1660e01b8152600401600060405180830381865afa15801561088d573d6000803e3d6000fd5b505050506040513d6000823e601f3d908101601f191682016040526108b5919081019061187d565b90506108c2826001611770565b6001600160401b038111156108d9576108d9611234565b60405190808252806020026020018201604052801561091257816020015b6108ff61103f565b8152602001906001900390816108f75790505b50945060005b82811015610a1f578181815181106109325761093261170d565b602002602001015186828151811061094c5761094c61170d565b602002602001015160200181905250846001600160a01b0316633bb3a24d87838151811061097c5761097c61170d565b602002602001015160200151600001516040518263ffffffff1660e01b81526004016109aa91815260200190565b600060405180830381865afa1580156109c7573d6000803e3d6000fd5b505050506040513d6000823e601f3d908101601f191682016040526109ef9190810190611919565b868281518110610a0157610a0161170d565b60209081029190910101515280610a1781611755565b915050610918565b50610a2984610f3a565b858381518110610a3b57610a3b61170d565b602002602001018190525050505050919050565b610a5761103f565b6000610a6283610e73565b9050610a6d81610f3a565b9392505050565b60606000600583604051610a889190611723565b908152602001604051809103902060009054906101000a90046001600160a01b031690506000816001600160a01b031663c08cc02d6040518163ffffffff1660e01b8152600401602060405180830381865afa158015610aec573d6000803e3d6000fd5b505050506040513d601f19601f82011682018060405250810190610b109190611788565b9050806001600160401b03811115610b2a57610b2a611234565b604051908082528060200260200182016040528015610bf157816020015b610bde6040518061022001604052806000815260200160006001600160a01b031681526020016000815260200160008152602001600081526020016000815260200160008152602001600081526020016000815260200160008152602001600015158152602001600015158152602001600015158152602001600081526020016000815260200160608152602001606081525090565b815260200190600190039081610b485790505b50925060015b818111610ca55760405163013cf08b60e01b8152600481018290526001600160a01b0384169063013cf08b90602401600060405180830381865afa158015610c43573d6000803e3d6000fd5b505050506040513d6000823e601f3d908101601f19168201604052610c6b9190810190611a64565b84610c77600184611bb6565b81518110610c8757610c8761170d565b60200260200101819052508080610c9d90611755565b915050610bf7565b505050919050565b60018181548110610cbd57600080fd5b906000526020600020016000915090508054610cd8906116d2565b80601f0160208091040260200160405190810160405280929190818152602001828054610d04906116d2565b8015610d515780601f10610d2657610100808354040283529160200191610d51565b820191906000526020600020905b815481529060010190602001808311610d3457829003601f168201915b505050505081565b80600383604051610d6a9190611723565b9081526040805191829003602001822080546001600160a01b039485166001600160a01b0319909116179055631507040160e01b8252516001928416916315070401916004808301926000929190829003018183875af1158015610dd2573d6000803e3d6000fd5b505050506040513d6000823e601f3d908101601f19168201604052610dfa9190810190611919565b815460018101835560009283526020928390208251610e1f94919092019201906110b0565b50600280546001810182556000919091527f405787fa12a823e0f2b7631cc41b3ba8828b3321ca811111fa75cd3aa3bb5ace0180546001600160a01b0319166001600160a01b039290921691909117905550565b6000600382604051610e859190611723565b908152604051908190036020019020546001600160a01b031692915050565b60008054610100900460ff1615610ef4578160ff166001148015610ec75750303b155b610eec5760405162461bcd60e51b8152600401610ee390611bcd565b60405180910390fd5b506000919050565b60005460ff808416911610610f1b5760405162461bcd60e51b8152600401610ee390611bcd565b506000805460ff191660ff92909216919091179055600190565b919050565b610f4261103f565b6001600160a01b03808316600090815260046020819052604091829020548251636e5b378960e11b81529251931692839263dcb66f129281810192610100929091908290030181865afa158015610f9d573d6000803e3d6000fd5b505050506040513d601f19601f82011682018060405250810190610fc19190611c1b565b6020830181905251604051633bb3a24d60e01b815260048101919091526001600160a01b03841690633bb3a24d90602401600060405180830381865afa15801561100f573d6000803e3d6000fd5b505050506040513d6000823e601f3d908101601f191682016040526110379190810190611919565b825250919050565b60405180604001604052806060815260200161105961105e565b905290565b604051806101000160405280600081526020016000815260200160008152602001600081526020016000815260200160006001600160a01b031681526020016000151581526020016000151581525090565b8280546110bc906116d2565b90600052602060002090601f0160209004810192826110de5760008555611124565b82601f106110f757805160ff1916838001178555611124565b82800160010185558215611124579182015b82811115611124578251825591602001919060010190611109565b50611130929150611134565b5090565b5b808211156111305760008155600101611135565b60005b8381101561116457818101518382015260200161114c565b83811115611173576000848401525b50505050565b60008151808452611191816020860160208601611149565b601f01601f19169290920160200192915050565b60006020808301818452808551808352604092508286019150828160051b87010184880160005b8381101561122657603f198984030185528151606081518186526111f282870182611179565b838b01516001600160a01b03908116888d0152938a01519093169589019590955250948701949250908601906001016111cc565b509098975050505050505050565b634e487b7160e01b600052604160045260246000fd5b60405161022081016001600160401b038111828210171561126d5761126d611234565b60405290565b604051601f8201601f191681016001600160401b038111828210171561129b5761129b611234565b604052919050565b60006001600160401b038211156112bc576112bc611234565b50601f01601f191660200190565b600082601f8301126112db57600080fd5b81356112ee6112e9826112a3565b611273565b81815284602083860101111561130357600080fd5b816020850160208301376000918101602001919091529392505050565b60006020828403121561133257600080fd5b81356001600160401b0381111561134857600080fd5b611354848285016112ca565b949350505050565b6001600160a01b03811681146105e657600080fd5b60006020828403121561138357600080fd5b8135610a6d8161135c565b600080604083850312156113a157600080fd5b82356113ac8161135c565b915060208301356113bc8161135c565b809150509250929050565b600080604083850312156113da57600080fd5b82356001600160401b038111156113f057600080fd5b6113fc858286016112ca565b92505060208301356113bc8161135c565b6000610120825181855261142382860182611179565b915050602083015180516020860152602081015160408601526040810151606086015260608101516080860152608081015160a086015260018060a01b0360a08201511660c086015260c0810151151560e086015260e08101511515610100860152508091505092915050565b6000602080830181845280855180835260408601915060408160051b870101925083870160005b828110156114e557603f198886030184526114d385835161140d565b945092850192908501906001016114b7565b5092979650505050505050565b60006020828403121561150457600080fd5b5035919050565b602081526000610a6d602083018461140d565b600081518084526020808501945080840160005b838110156115575781516001600160a01b031687529582019590820190600101611532565b509495945050505050565b600081518084526020808501945080840160005b8381101561155757815187529582019590820190600101611576565b60006020808301818452808551808352604092508286019150828160051b87010184880160005b8381101561122657603f19898403018552815180518452878101516001600160a01b0316888501528681015187850152606080820151908501526080808201519085015260a0808201519085015260c0808201519085015260e08082015190850152610100808201519085015261012080820151908501526101408082015115159085015261016080820151151590850152610180808201511515908501526101a080820151908501526101c080820151908501526101e080820151610220828701819052919061168c8388018261151e565b9250505061020080830151925085820381870152506116ab8183611562565b9689019694505050908601906001016115b9565b602081526000610a6d6020830184611179565b600181811c908216806116e657607f821691505b6020821081141561170757634e487b7160e01b600052602260045260246000fd5b50919050565b634e487b7160e01b600052603260045260246000fd5b60008251611735818460208701611149565b9190910192915050565b634e487b7160e01b600052601160045260246000fd5b60006000198214156117695761176961173f565b5060010190565b600082198211156117835761178361173f565b500190565b60006020828403121561179a57600080fd5b5051919050565b60006001600160401b038211156117ba576117ba611234565b5060051b60200190565b80518015158114610f3557600080fd5b60006101008083850312156117e857600080fd5b604051908101906001600160401b038211818310171561180a5761180a611234565b81604052809250835181526020840151602082015260408401516040820152606084015160608201526080840151608082015260a0840151915061184d8261135c565b8160a082015261185f60c085016117c4565b60c082015261187060e085016117c4565b60e0820152505092915050565b6000602080838503121561189057600080fd5b82516001600160401b038111156118a657600080fd5b8301601f810185136118b757600080fd5b80516118c56112e9826117a1565b81815260089190911b820183019083810190878311156118e457600080fd5b928401925b8284101561190e576118fb88856117d4565b82528482019150610100840193506118e9565b979650505050505050565b60006020828403121561192b57600080fd5b81516001600160401b0381111561194157600080fd5b8201601f8101841361195257600080fd5b80516119606112e9826112a3565b81815285602083850101111561197557600080fd5b611986826020830160208601611149565b95945050505050565b8051610f358161135c565b600082601f8301126119ab57600080fd5b815160206119bb6112e9836117a1565b82815260059290921b840181019181810190868411156119da57600080fd5b8286015b848110156119fe5780516119f18161135c565b83529183019183016119de565b509695505050505050565b600082601f830112611a1a57600080fd5b81516020611a2a6112e9836117a1565b82815260059290921b84018101918181019086841115611a4957600080fd5b8286015b848110156119fe5780518352918301918301611a4d565b600060208284031215611a7657600080fd5b81516001600160401b0380821115611a8d57600080fd5b908301906102208286031215611aa257600080fd5b611aaa61124a565b82518152611aba6020840161198f565b602082015260408301516040820152606083015160608201526080830151608082015260a083015160a082015260c083015160c082015260e083015160e0820152610100808401518183015250610120808401518183015250610140611b218185016117c4565b90820152610160611b338482016117c4565b90820152610180611b458482016117c4565b908201526101a083810151908201526101c080840151908201526101e08084015183811115611b7357600080fd5b611b7f8882870161199a565b8284015250506102008084015183811115611b9957600080fd5b611ba588828701611a09565b918301919091525095945050505050565b600082821015611bc857611bc861173f565b500390565b6020808252602e908201527f496e697469616c697a61626c653a20636f6e747261637420697320616c72656160408201526d191e481a5b9a5d1a585b1a5e995960921b606082015260800190565b60006101008284031215611c2e57600080fd5b610a6d83836117d456fea2646970667358221220f9393f56db9b572ffdfc7618d4f9735bd7f092f3d3a7bc2428a7bfe0e453534b64736f6c634300080b0033",
  "linkReferences": {},
  "deployedLinkReferences": {}
}