{
  "address": "0x266Bd7eAeFbe449F8302Dd333f5767519687c087",
  "abi": [
    {
      "anonymous": false,
      "inputs": [
        {
          "indexed": false,
          "internalType": "uint8",
          "name": "version",
          "type": "uint8"
        }
      ],
      "name": "Initialized",
      "type": "event"
    },
    {
      "inputs": [
        {
          "internalType": "uint256",
          "name": "",
          "type": "uint256"
        }
      ],
      "name": "artists",
      "outputs": [
        {
          "internalType": "string",
          "name": "",
          "type": "string"
        }
      ],
      "stateMutability": "view",
      "type": "function"
    },
    {
      "inputs": [
        {
          "internalType": "contract IFantosiToken",
          "name": "",
          "type": "address"
        }
      ],
      "name": "auctionMap",
      "outputs": [
        {
          "internalType": "contract IFantosiAuctionHouse",
          "name": "",
          "type": "address"
        }
      ],
      "stateMutability": "view",
      "type": "function"
    },
    {
      "inputs": [
        {
          "internalType": "string",
          "name": "",
          "type": "string"
        }
      ],
      "name": "fantosiDAOLogicList",
      "outputs": [
        {
          "internalType": "contract IFantosiDAOLogic",
          "name": "",
          "type": "address"
        }
      ],
      "stateMutability": "view",
      "type": "function"
    },
    {
      "inputs": [
        {
          "internalType": "string",
          "name": "",
          "type": "string"
        }
      ],
      "name": "fantosiTokenList",
      "outputs": [
        {
          "internalType": "contract IFantosiToken",
          "name": "",
          "type": "address"
        }
      ],
      "stateMutability": "view",
      "type": "function"
    },
    {
      "inputs": [
        {
          "internalType": "uint256",
          "name": "",
          "type": "uint256"
        }
      ],
      "name": "fantosiTokens",
      "outputs": [
        {
          "internalType": "contract IFantosiToken",
          "name": "",
          "type": "address"
        }
      ],
      "stateMutability": "view",
      "type": "function"
    },
    {
      "inputs": [],
      "name": "getAllArtistInfo",
      "outputs": [
        {
          "components": [
            {
              "internalType": "string",
              "name": "artistKey",
              "type": "string"
            },
            {
              "internalType": "contract IFantosiToken",
              "name": "fantosiTokenAddr",
              "type": "address"
            },
            {
              "internalType": "contract IFantosiAuctionHouse",
              "name": "auctionHouseAddr",
              "type": "address"
            }
          ],
          "internalType": "struct FantosiView.Artist[]",
          "name": "artistsInfo",
          "type": "tuple[]"
        }
      ],
      "stateMutability": "view",
      "type": "function"
    },
    {
      "inputs": [],
      "name": "getAllPhotoCardInfo",
      "outputs": [
        {
          "components": [
            {
              "internalType": "string",
              "name": "metadataURI",
              "type": "string"
            },
            {
              "components": [
                {
                  "internalType": "uint256",
                  "name": "photoCardId",
                  "type": "uint256"
                },
                {
                  "internalType": "uint256",
                  "name": "amount",
                  "type": "uint256"
                },
                {
                  "internalType": "uint256",
                  "name": "startTime",
                  "type": "uint256"
                },
                {
                  "internalType": "uint256",
                  "name": "finalAuctionTime",
                  "type": "uint256"
                },
                {
                  "internalType": "uint256",
                  "name": "endTime",
                  "type": "uint256"
                },
                {
                  "internalType": "address payable",
                  "name": "bidder",
                  "type": "address"
                },
                {
                  "internalType": "bool",
                  "name": "isFinalBid",
                  "type": "bool"
                },
                {
                  "internalType": "bool",
                  "name": "settled",
                  "type": "bool"
                }
              ],
              "internalType": "struct IFantosiAuctionHouse.Auction",
              "name": "currentAuction",
              "type": "tuple"
            }
          ],
          "internalType": "struct FantosiView.PhotoCardInfo[]",
          "name": "allPhotoCardInfo",
          "type": "tuple[]"
        }
      ],
      "stateMutability": "view",
      "type": "function"
    },
    {
      "inputs": [
        {
          "internalType": "string",
          "name": "key",
          "type": "string"
        }
      ],
      "name": "getArtistAllProposalInfo",
      "outputs": [
        {
          "components": [
            {
              "internalType": "uint256",
              "name": "id",
              "type": "uint256"
            },
            {
              "internalType": "address",
              "name": "proposer",
              "type": "address"
            },
            {
              "internalType": "uint256",
              "name": "proposalThreshold",
              "type": "uint256"
            },
            {
              "internalType": "uint256",
              "name": "quorumVotes",
              "type": "uint256"
            },
            {
              "internalType": "uint256",
              "name": "eta",
              "type": "uint256"
            },
            {
              "internalType": "uint256",
              "name": "startBlock",
              "type": "uint256"
            },
            {
              "internalType": "uint256",
              "name": "endBlock",
              "type": "uint256"
            },
            {
              "internalType": "uint256",
              "name": "forVotes",
              "type": "uint256"
            },
            {
              "internalType": "uint256",
              "name": "againstVotes",
              "type": "uint256"
            },
            {
              "internalType": "uint256",
              "name": "abstainVotes",
              "type": "uint256"
            },
            {
              "internalType": "bool",
              "name": "canceled",
              "type": "bool"
            },
            {
              "internalType": "bool",
              "name": "vetoed",
              "type": "bool"
            },
            {
              "internalType": "bool",
              "name": "executed",
              "type": "bool"
            },
            {
              "internalType": "uint256",
              "name": "totalSupply",
              "type": "uint256"
            },
            {
              "internalType": "uint256",
              "name": "creationBlock",
              "type": "uint256"
            },
            {
              "internalType": "address[]",
              "name": "targets",
              "type": "address[]"
            },
            {
              "internalType": "uint256[]",
              "name": "sendValues",
              "type": "uint256[]"
            },
            {
              "internalType": "string",
              "name": "description",
              "type": "string"
            },
            {
              "internalType": "string",
              "name": "state",
              "type": "string"
            }
          ],
          "internalType": "struct FantosiDAOStorageV2.ProposalCondensed[]",
          "name": "allProposalInfo",
          "type": "tuple[]"
        }
      ],
      "stateMutability": "view",
      "type": "function"
    },
    {
      "inputs": [
        {
          "internalType": "string",
          "name": "key",
          "type": "string"
        }
      ],
      "name": "getArtistPhotoCardHistoryInfo",
      "outputs": [
        {
          "components": [
            {
              "internalType": "string",
              "name": "metadataURI",
              "type": "string"
            },
            {
              "components": [
                {
                  "internalType": "uint256",
                  "name": "photoCardId",
                  "type": "uint256"
                },
                {
                  "internalType": "uint256",
                  "name": "amount",
                  "type": "uint256"
                },
                {
                  "internalType": "uint256",
                  "name": "startTime",
                  "type": "uint256"
                },
                {
                  "internalType": "uint256",
                  "name": "finalAuctionTime",
                  "type": "uint256"
                },
                {
                  "internalType": "uint256",
                  "name": "endTime",
                  "type": "uint256"
                },
                {
                  "internalType": "address payable",
                  "name": "bidder",
                  "type": "address"
                },
                {
                  "internalType": "bool",
                  "name": "isFinalBid",
                  "type": "bool"
                },
                {
                  "internalType": "bool",
                  "name": "settled",
                  "type": "bool"
                }
              ],
              "internalType": "struct IFantosiAuctionHouse.Auction",
              "name": "currentAuction",
              "type": "tuple"
            }
          ],
          "internalType": "struct FantosiView.PhotoCardInfo[]",
          "name": "allPhotoCardInfo",
          "type": "tuple[]"
        }
      ],
      "stateMutability": "view",
      "type": "function"
    },
    {
      "inputs": [
        {
          "internalType": "string",
          "name": "key",
          "type": "string"
        }
      ],
      "name": "getArtistPhotoCardInfo",
      "outputs": [
        {
          "components": [
            {
              "internalType": "string",
              "name": "metadataURI",
              "type": "string"
            },
            {
              "components": [
                {
                  "internalType": "uint256",
                  "name": "photoCardId",
                  "type": "uint256"
                },
                {
                  "internalType": "uint256",
                  "name": "amount",
                  "type": "uint256"
                },
                {
                  "internalType": "uint256",
                  "name": "startTime",
                  "type": "uint256"
                },
                {
                  "internalType": "uint256",
                  "name": "finalAuctionTime",
                  "type": "uint256"
                },
                {
                  "internalType": "uint256",
                  "name": "endTime",
                  "type": "uint256"
                },
                {
                  "internalType": "address payable",
                  "name": "bidder",
                  "type": "address"
                },
                {
                  "internalType": "bool",
                  "name": "isFinalBid",
                  "type": "bool"
                },
                {
                  "internalType": "bool",
                  "name": "settled",
                  "type": "bool"
                }
              ],
              "internalType": "struct IFantosiAuctionHouse.Auction",
              "name": "currentAuction",
              "type": "tuple"
            }
          ],
          "internalType": "struct FantosiView.PhotoCardInfo",
          "name": "photoCardInfo",
          "type": "tuple"
        }
      ],
      "stateMutability": "view",
      "type": "function"
    },
    {
      "inputs": [
        {
          "internalType": "string",
          "name": "key",
          "type": "string"
        }
      ],
      "name": "getFantosiTokenAddress",
      "outputs": [
        {
          "internalType": "contract IFantosiToken",
          "name": "",
          "type": "address"
        }
      ],
      "stateMutability": "view",
      "type": "function"
    },
    {
      "inputs": [],
      "name": "initialize",
      "outputs": [],
      "stateMutability": "nonpayable",
      "type": "function"
    },
    {
      "inputs": [
        {
          "internalType": "string",
          "name": "key",
          "type": "string"
        },
        {
          "internalType": "contract IFantosiDAOLogic",
          "name": "fantosiDAOLogic",
          "type": "address"
        }
      ],
      "name": "setFantosiDAOLogic",
      "outputs": [],
      "stateMutability": "nonpayable",
      "type": "function"
    },
    {
      "inputs": [
        {
          "internalType": "string",
          "name": "key",
          "type": "string"
        },
        {
          "internalType": "contract IFantosiToken",
          "name": "fantosiToken",
          "type": "address"
        }
      ],
      "name": "setFantosiTokenAddress",
      "outputs": [],
      "stateMutability": "nonpayable",
      "type": "function"
    },
    {
      "inputs": [
        {
          "internalType": "contract IFantosiToken",
          "name": "fantosiToken",
          "type": "address"
        },
        {
          "internalType": "contract IFantosiAuctionHouse",
          "name": "fantosiAuctionHouse",
          "type": "address"
        }
      ],
      "name": "setFantosiTokenAuctionHouse",
      "outputs": [],
      "stateMutability": "nonpayable",
      "type": "function"
    }
  ],
  "transactionHash": "0x15fd3a4d87f38633b9dac82335ada20fca953acde82003915f2ee82228db0fa1",
  "args": [],
  "numDeployments": 1,
  "solcInputHash": "8b0b3ccb09365db3875b6474a6286e03",
  "bytecode": "0x608060405234801561001057600080fd5b50611d03806100206000396000f3fe608060405234801561001057600080fd5b50600436106100f55760003560e01c8063b069828a11610097578063c940f5d111610066578063c940f5d114610261578063cd7e10c114610295578063ce69e9d3146102b5578063db72d433146102c857600080fd5b8063b069828a146101fb578063b43132551461020e578063b50d521f14610221578063be78c4031461024157600080fd5b80636d75d291116100d35780636d75d2911461018d5780638129fc1c146101cb5780639034039a146101d3578063939bdac3146101e657600080fd5b80631b33a1da146100fa5780634093a876146101185780635922eb9f14610164575b600080fd5b6101026102db565b60405161010f91906111b3565b60405180910390f35b61014c61012636600461132e565b80516020818301810180516003825292820191909301209152546001600160a01b031681565b6040516001600160a01b03909116815260200161010f565b61014c61017236600461137f565b6004602052600090815260409020546001600160a01b031681565b6101c961019b36600461139c565b6001600160a01b03918216600090815260046020526040902080546001600160a01b03191691909216179055565b005b6101c961057c565b6101c96101e13660046113d5565b6105e9565b6101ee61062d565b60405161010f919061149e565b61014c610209366004611500565b610742565b6101ee61021c36600461132e565b61076c565b61023461022f36600461132e565b610a4f565b60405161010f9190611519565b61025461024f36600461132e565b610a74565b60405161010f91906115a0565b61014c61026f36600461132e565b80516020818301810180516005825292820191909301209152546001600160a01b031681565b6102a86102a3366004611500565b610cbb565b60405161010f9190611705565b6101c96102c33660046113d5565b610d67565b61014c6102d636600461132e565b610e81565b606060006001805480602002602001604051908101604052809291908181526020016000905b828210156103ad57838290600052602060002001805461032090611718565b80601f016020809104026020016040519081016040528092919081815260200182805461034c90611718565b80156103995780601f1061036e57610100808354040283529160200191610399565b820191906000526020600020905b81548152906001019060200180831161037c57829003601f168201915b505050505081526020019060010190610301565b50508251929350829150506001600160401b038111156103cf576103cf611242565b60405190808252806020026020018201604052801561041a57816020015b60408051606080820183528152600060208083018290529282015282526000199092019101816103ed5790505b50925060005b818110156105765782818151811061043a5761043a611753565b602002602001015184828151811061045457610454611753565b602002602001015160000181905250600383828151811061047757610477611753565b602002602001015160405161048c9190611769565b9081526040519081900360200190205484516001600160a01b03909116908590839081106104bc576104bc611753565b6020026020010151602001906001600160a01b031690816001600160a01b031681525050600460008583815181106104f6576104f6611753565b6020026020010151602001516001600160a01b03166001600160a01b0316815260200190815260200160002060009054906101000a90046001600160a01b031684828151811061054857610548611753565b60209081029190910101516001600160a01b039091166040909101528061056e8161179b565b915050610420565b50505090565b60006105886001610eb2565b905080156105a0576000805461ff0019166101001790555b80156105e6576000805461ff0019169055604051600181527f7f26b83ff96e1f2b6a682f133852f6798a09c465da95921460cefb38474024989060200160405180910390a15b50565b806005836040516105fa9190611769565b90815260405190819003602001902080546001600160a01b03929092166001600160a01b03199092169190911790555050565b60606000600280548060200260200160405190810160405280929190818152602001828054801561068757602002820191906000526020600020905b81546001600160a01b03168152600190910190602001808311610669575b5050835193945083925050506001600160401b038111156106aa576106aa611242565b6040519080825280602002602001820160405280156106e357816020015b6106d061104d565b8152602001906001900390816106c85790505b50925060005b818110156105765761071383828151811061070657610706611753565b6020026020010151610f48565b84828151811061072557610725611753565b602090810291909101015261073b6001826117b6565b90506106e9565b6002818154811061075257600080fd5b6000918252602090912001546001600160a01b0316905081565b6060600061077983610e81565b6001600160a01b038082166000908152600460208181526040808420548151639eafe29f60e01b815291519697509094169492938593639eafe29f9382810193928290030181865afa1580156107d3573d6000803e3d6000fd5b505050506040513d601f19601f820116820180604052508101906107f791906117ce565b90506000816001600160401b0381111561081357610813611242565b60405190808252806020026020018201604052801561084c57816020015b61083961106c565b8152602001906001900390816108315790505b509050826001600160a01b031663acaff8776040518163ffffffff1660e01b8152600401600060405180830381865afa15801561088d573d6000803e3d6000fd5b505050506040513d6000823e601f3d908101601f191682016040526108b591908101906118c3565b90506108c28260016117b6565b6001600160401b038111156108d9576108d9611242565b60405190808252806020026020018201604052801561091257816020015b6108ff61104d565b8152602001906001900390816108f75790505b50945060005b82811015610a1f5781818151811061093257610932611753565b602002602001015186828151811061094c5761094c611753565b602002602001015160200181905250846001600160a01b0316633bb3a24d87838151811061097c5761097c611753565b602002602001015160200151600001516040518263ffffffff1660e01b81526004016109aa91815260200190565b600060405180830381865afa1580156109c7573d6000803e3d6000fd5b505050506040513d6000823e601f3d908101601f191682016040526109ef91908101906119a4565b868281518110610a0157610a01611753565b60209081029190910101515280610a178161179b565b915050610918565b50610a2984610f48565b858381518110610a3b57610a3b611753565b602002602001018190525050505050919050565b610a5761104d565b6000610a6283610e81565b9050610a6d81610f48565b9392505050565b60606000600583604051610a889190611769565b908152602001604051809103902060009054906101000a90046001600160a01b031690506000816001600160a01b031663c08cc02d6040518163ffffffff1660e01b8152600401602060405180830381865afa158015610aec573d6000803e3d6000fd5b505050506040513d601f19601f82011682018060405250810190610b1091906117ce565b9050806001600160401b03811115610b2a57610b2a611242565b604051908082528060200260200182016040528015610bff57816020015b610bec6040518061026001604052806000815260200160006001600160a01b0316815260200160008152602001600081526020016000815260200160008152602001600081526020016000815260200160008152602001600081526020016000151581526020016000151581526020016000151581526020016000815260200160008152602001606081526020016060815260200160608152602001606081525090565b815260200190600190039081610b485790505b50925060015b818111610cb35760405163013cf08b60e01b8152600481018290526001600160a01b0384169063013cf08b90602401600060405180830381865afa158015610c51573d6000803e3d6000fd5b505050506040513d6000823e601f3d908101601f19168201604052610c799190810190611aad565b84610c85600184611c4b565b81518110610c9557610c95611753565b60200260200101819052508080610cab9061179b565b915050610c05565b505050919050565b60018181548110610ccb57600080fd5b906000526020600020016000915090508054610ce690611718565b80601f0160208091040260200160405190810160405280929190818152602001828054610d1290611718565b8015610d5f5780601f10610d3457610100808354040283529160200191610d5f565b820191906000526020600020905b815481529060010190602001808311610d4257829003601f168201915b505050505081565b80600383604051610d789190611769565b9081526040805191829003602001822080546001600160a01b039485166001600160a01b0319909116179055631507040160e01b8252516001928416916315070401916004808301926000929190829003018183875af1158015610de0573d6000803e3d6000fd5b505050506040513d6000823e601f3d908101601f19168201604052610e0891908101906119a4565b815460018101835560009283526020928390208251610e2d94919092019201906110be565b50600280546001810182556000919091527f405787fa12a823e0f2b7631cc41b3ba8828b3321ca811111fa75cd3aa3bb5ace0180546001600160a01b0319166001600160a01b039290921691909117905550565b6000600382604051610e939190611769565b908152604051908190036020019020546001600160a01b031692915050565b60008054610100900460ff1615610f02578160ff166001148015610ed55750303b155b610efa5760405162461bcd60e51b8152600401610ef190611c62565b60405180910390fd5b506000919050565b60005460ff808416911610610f295760405162461bcd60e51b8152600401610ef190611c62565b506000805460ff191660ff92909216919091179055600190565b919050565b610f5061104d565b6001600160a01b03808316600090815260046020819052604091829020548251636e5b378960e11b81529251931692839263dcb66f129281810192610100929091908290030181865afa158015610fab573d6000803e3d6000fd5b505050506040513d601f19601f82011682018060405250810190610fcf9190611cb0565b6020830181905251604051633bb3a24d60e01b815260048101919091526001600160a01b03841690633bb3a24d90602401600060405180830381865afa15801561101d573d6000803e3d6000fd5b505050506040513d6000823e601f3d908101601f1916820160405261104591908101906119a4565b825250919050565b60405180604001604052806060815260200161106761106c565b905290565b604051806101000160405280600081526020016000815260200160008152602001600081526020016000815260200160006001600160a01b031681526020016000151581526020016000151581525090565b8280546110ca90611718565b90600052602060002090601f0160209004810192826110ec5760008555611132565b82601f1061110557805160ff1916838001178555611132565b82800160010185558215611132579182015b82811115611132578251825591602001919060010190611117565b5061113e929150611142565b5090565b5b8082111561113e5760008155600101611143565b60005b8381101561117257818101518382015260200161115a565b83811115611181576000848401525b50505050565b6000815180845261119f816020860160208601611157565b601f01601f19169290920160200192915050565b60006020808301818452808551808352604092508286019150828160051b87010184880160005b8381101561123457603f1989840301855281516060815181865261120082870182611187565b838b01516001600160a01b03908116888d0152938a01519093169589019590955250948701949250908601906001016111da565b509098975050505050505050565b634e487b7160e01b600052604160045260246000fd5b60405161026081016001600160401b038111828210171561127b5761127b611242565b60405290565b604051601f8201601f191681016001600160401b03811182821017156112a9576112a9611242565b604052919050565b60006001600160401b038211156112ca576112ca611242565b50601f01601f191660200190565b600082601f8301126112e957600080fd5b81356112fc6112f7826112b1565b611281565b81815284602083860101111561131157600080fd5b816020850160208301376000918101602001919091529392505050565b60006020828403121561134057600080fd5b81356001600160401b0381111561135657600080fd5b611362848285016112d8565b949350505050565b6001600160a01b03811681146105e657600080fd5b60006020828403121561139157600080fd5b8135610a6d8161136a565b600080604083850312156113af57600080fd5b82356113ba8161136a565b915060208301356113ca8161136a565b809150509250929050565b600080604083850312156113e857600080fd5b82356001600160401b038111156113fe57600080fd5b61140a858286016112d8565b92505060208301356113ca8161136a565b6000610120825181855261143182860182611187565b915050602083015180516020860152602081015160408601526040810151606086015260608101516080860152608081015160a086015260018060a01b0360a08201511660c086015260c0810151151560e086015260e08101511515610100860152508091505092915050565b6000602080830181845280855180835260408601915060408160051b870101925083870160005b828110156114f357603f198886030184526114e185835161141b565b945092850192908501906001016114c5565b5092979650505050505050565b60006020828403121561151257600080fd5b5035919050565b602081526000610a6d602083018461141b565b600081518084526020808501945080840160005b838110156115655781516001600160a01b031687529582019590820190600101611540565b509495945050505050565b600081518084526020808501945080840160005b8381101561156557815187529582019590820190600101611584565b60006020808301818452808551808352604092508286019150828160051b87010184880160005b8381101561123457603f19898403018552815180518452878101516001600160a01b0316888501528681015187850152606080820151908501526080808201519085015260a0808201519085015260c0808201519085015260e08082015190850152610100808201519085015261012080820151908501526101408082015115159085015261016080820151151590850152610180808201511515908501526101a080820151908501526101c080820151908501526101e080820151610260828701819052919061169a8388018261152c565b9250505061020080830151868303828801526116b68382611570565b9250505061022080830151868303828801526116d28382611187565b9250505061024080830151925085820381870152506116f18183611187565b9689019694505050908601906001016115c7565b602081526000610a6d6020830184611187565b600181811c9082168061172c57607f821691505b6020821081141561174d57634e487b7160e01b600052602260045260246000fd5b50919050565b634e487b7160e01b600052603260045260246000fd5b6000825161177b818460208701611157565b9190910192915050565b634e487b7160e01b600052601160045260246000fd5b60006000198214156117af576117af611785565b5060010190565b600082198211156117c9576117c9611785565b500190565b6000602082840312156117e057600080fd5b5051919050565b60006001600160401b0382111561180057611800611242565b5060051b60200190565b80518015158114610f4357600080fd5b600061010080838503121561182e57600080fd5b604051908101906001600160401b038211818310171561185057611850611242565b81604052809250835181526020840151602082015260408401516040820152606084015160608201526080840151608082015260a084015191506118938261136a565b8160a08201526118a560c0850161180a565b60c08201526118b660e0850161180a565b60e0820152505092915050565b600060208083850312156118d657600080fd5b82516001600160401b038111156118ec57600080fd5b8301601f810185136118fd57600080fd5b805161190b6112f7826117e7565b81815260089190911b8201830190838101908783111561192a57600080fd5b928401925b8284101561195457611941888561181a565b825284820191506101008401935061192f565b979650505050505050565b600082601f83011261197057600080fd5b815161197e6112f7826112b1565b81815284602083860101111561199357600080fd5b611362826020830160208701611157565b6000602082840312156119b657600080fd5b81516001600160401b038111156119cc57600080fd5b6113628482850161195f565b8051610f438161136a565b600082601f8301126119f457600080fd5b81516020611a046112f7836117e7565b82815260059290921b84018101918181019086841115611a2357600080fd5b8286015b84811015611a47578051611a3a8161136a565b8352918301918301611a27565b509695505050505050565b600082601f830112611a6357600080fd5b81516020611a736112f7836117e7565b82815260059290921b84018101918181019086841115611a9257600080fd5b8286015b84811015611a475780518352918301918301611a96565b600060208284031215611abf57600080fd5b81516001600160401b0380821115611ad657600080fd5b908301906102608286031215611aeb57600080fd5b611af3611258565b82518152611b03602084016119d8565b602082015260408301516040820152606083015160608201526080830151608082015260a083015160a082015260c083015160c082015260e083015160e0820152610100808401518183015250610120808401518183015250610140611b6a81850161180a565b90820152610160611b7c84820161180a565b90820152610180611b8e84820161180a565b908201526101a083810151908201526101c080840151908201526101e08084015183811115611bbc57600080fd5b611bc8888287016119e3565b8284015250506102008084015183811115611be257600080fd5b611bee88828701611a52565b8284015250506102208084015183811115611c0857600080fd5b611c148882870161195f565b8284015250506102408084015183811115611c2e57600080fd5b611c3a8882870161195f565b918301919091525095945050505050565b600082821015611c5d57611c5d611785565b500390565b6020808252602e908201527f496e697469616c697a61626c653a20636f6e747261637420697320616c72656160408201526d191e481a5b9a5d1a585b1a5e995960921b606082015260800190565b60006101008284031215611cc357600080fd5b610a6d838361181a56fea2646970667358221220686a8527a797a4e4c001f01116ade4abcd0c4a6a7d6191a235d2ae3ec53d91b364736f6c634300080b0033",
  "devdoc": {
    "kind": "dev",
    "methods": {},
    "version": 1
  },
  "userdoc": {
    "kind": "user",
    "methods": {},
    "version": 1
  },
  "storageLayout": {
    "storage": [
      {
        "astId": 18156,
        "contract": "src/FantosiView.sol:FantosiView",
        "label": "_initialized",
        "offset": 0,
        "slot": "0",
        "type": "t_uint8"
      },
      {
        "astId": 18159,
        "contract": "src/FantosiView.sol:FantosiView",
        "label": "_initializing",
        "offset": 1,
        "slot": "0",
        "type": "t_bool"
      },
      {
        "astId": 11433,
        "contract": "src/FantosiView.sol:FantosiView",
        "label": "artists",
        "offset": 0,
        "slot": "1",
        "type": "t_array(t_string_storage)dyn_storage"
      },
      {
        "astId": 11437,
        "contract": "src/FantosiView.sol:FantosiView",
        "label": "fantosiTokens",
        "offset": 0,
        "slot": "2",
        "type": "t_array(t_contract(IFantosiToken)17815)dyn_storage"
      },
      {
        "astId": 11442,
        "contract": "src/FantosiView.sol:FantosiView",
        "label": "fantosiTokenList",
        "offset": 0,
        "slot": "3",
        "type": "t_mapping(t_string_memory_ptr,t_contract(IFantosiToken)17815)"
      },
      {
        "astId": 11448,
        "contract": "src/FantosiView.sol:FantosiView",
        "label": "auctionMap",
        "offset": 0,
        "slot": "4",
        "type": "t_mapping(t_contract(IFantosiToken)17815,t_contract(IFantosiAuctionHouse)17755)"
      },
      {
        "astId": 11453,
        "contract": "src/FantosiView.sol:FantosiView",
        "label": "fantosiDAOLogicList",
        "offset": 0,
        "slot": "5",
        "type": "t_mapping(t_string_memory_ptr,t_contract(IFantosiDAOLogic)14923)"
      }
    ],
    "types": {
      "t_array(t_contract(IFantosiToken)17815)dyn_storage": {
        "base": "t_contract(IFantosiToken)17815",
        "encoding": "dynamic_array",
        "label": "contract IFantosiToken[]",
        "numberOfBytes": "32"
      },
      "t_array(t_string_storage)dyn_storage": {
        "base": "t_string_storage",
        "encoding": "dynamic_array",
        "label": "string[]",
        "numberOfBytes": "32"
      },
      "t_bool": {
        "encoding": "inplace",
        "label": "bool",
        "numberOfBytes": "1"
      },
      "t_contract(IFantosiAuctionHouse)17755": {
        "encoding": "inplace",
        "label": "contract IFantosiAuctionHouse",
        "numberOfBytes": "20"
      },
      "t_contract(IFantosiDAOLogic)14923": {
        "encoding": "inplace",
        "label": "contract IFantosiDAOLogic",
        "numberOfBytes": "20"
      },
      "t_contract(IFantosiToken)17815": {
        "encoding": "inplace",
        "label": "contract IFantosiToken",
        "numberOfBytes": "20"
      },
      "t_mapping(t_contract(IFantosiToken)17815,t_contract(IFantosiAuctionHouse)17755)": {
        "encoding": "mapping",
        "key": "t_contract(IFantosiToken)17815",
        "label": "mapping(contract IFantosiToken => contract IFantosiAuctionHouse)",
        "numberOfBytes": "32",
        "value": "t_contract(IFantosiAuctionHouse)17755"
      },
      "t_mapping(t_string_memory_ptr,t_contract(IFantosiDAOLogic)14923)": {
        "encoding": "mapping",
        "key": "t_string_memory_ptr",
        "label": "mapping(string => contract IFantosiDAOLogic)",
        "numberOfBytes": "32",
        "value": "t_contract(IFantosiDAOLogic)14923"
      },
      "t_mapping(t_string_memory_ptr,t_contract(IFantosiToken)17815)": {
        "encoding": "mapping",
        "key": "t_string_memory_ptr",
        "label": "mapping(string => contract IFantosiToken)",
        "numberOfBytes": "32",
        "value": "t_contract(IFantosiToken)17815"
      },
      "t_string_memory_ptr": {
        "encoding": "bytes",
        "label": "string",
        "numberOfBytes": "32"
      },
      "t_string_storage": {
        "encoding": "bytes",
        "label": "string",
        "numberOfBytes": "32"
      },
      "t_uint8": {
        "encoding": "inplace",
        "label": "uint8",
        "numberOfBytes": "1"
      }
    }
  }
}