{
  "address": "0xA0eE17498318ad51e1b6776C4051C31412108Ed4",
  "abi": [
    {
      "anonymous": false,
      "inputs": [
        {
          "indexed": true,
          "internalType": "uint256",
          "name": "photoCardId",
          "type": "uint256"
        },
        {
          "indexed": false,
          "internalType": "address",
          "name": "sender",
          "type": "address"
        },
        {
          "indexed": false,
          "internalType": "uint256",
          "name": "value",
          "type": "uint256"
        },
        {
          "indexed": false,
          "internalType": "bool",
          "name": "extended",
          "type": "bool"
        }
      ],
      "name": "AuctionBid",
      "type": "event"
    },
    {
      "anonymous": false,
      "inputs": [
        {
          "indexed": true,
          "internalType": "uint256",
          "name": "photoCardId",
          "type": "uint256"
        },
        {
          "indexed": false,
          "internalType": "uint256",
          "name": "startTime",
          "type": "uint256"
        },
        {
          "indexed": false,
          "internalType": "uint256",
          "name": "endTime",
          "type": "uint256"
        }
      ],
      "name": "AuctionCreated",
      "type": "event"
    },
    {
      "anonymous": false,
      "inputs": [
        {
          "indexed": true,
          "internalType": "uint256",
          "name": "photoCardId",
          "type": "uint256"
        },
        {
          "indexed": false,
          "internalType": "uint256",
          "name": "endTime",
          "type": "uint256"
        }
      ],
      "name": "AuctionExtended",
      "type": "event"
    },
    {
      "anonymous": false,
      "inputs": [
        {
          "indexed": false,
          "internalType": "uint256",
          "name": "minBidIncrementPercentage",
          "type": "uint256"
        }
      ],
      "name": "AuctionMinBidIncrementPercentageUpdated",
      "type": "event"
    },
    {
      "anonymous": false,
      "inputs": [
        {
          "indexed": false,
          "internalType": "uint256",
          "name": "reservePrice",
          "type": "uint256"
        }
      ],
      "name": "AuctionReservePriceUpdated",
      "type": "event"
    },
    {
      "anonymous": false,
      "inputs": [
        {
          "indexed": true,
          "internalType": "uint256",
          "name": "photoCardId",
          "type": "uint256"
        },
        {
          "indexed": false,
          "internalType": "address",
          "name": "winner",
          "type": "address"
        },
        {
          "indexed": false,
          "internalType": "uint256",
          "name": "amount",
          "type": "uint256"
        }
      ],
      "name": "AuctionSettled",
      "type": "event"
    },
    {
      "anonymous": false,
      "inputs": [
        {
          "indexed": false,
          "internalType": "uint256",
          "name": "timeBuffer",
          "type": "uint256"
        }
      ],
      "name": "AuctionTimeBufferUpdated",
      "type": "event"
    },
    {
      "anonymous": false,
      "inputs": [
        {
          "indexed": false,
          "internalType": "uint8",
          "name": "version",
          "type": "uint8"
        }
      ],
      "name": "Initialized",
      "type": "event"
    },
    {
      "anonymous": false,
      "inputs": [
        {
          "indexed": false,
          "internalType": "address",
          "name": "account",
          "type": "address"
        }
      ],
      "name": "Paused",
      "type": "event"
    },
    {
      "anonymous": false,
      "inputs": [
        {
          "indexed": false,
          "internalType": "address",
          "name": "account",
          "type": "address"
        }
      ],
      "name": "Unpaused",
      "type": "event"
    },
    {
      "inputs": [],
      "name": "auction",
      "outputs": [
        {
          "internalType": "uint256",
          "name": "photoCardId",
          "type": "uint256"
        },
        {
          "internalType": "uint256",
          "name": "amount",
          "type": "uint256"
        },
        {
          "internalType": "uint256",
          "name": "startTime",
          "type": "uint256"
        },
        {
          "internalType": "uint256",
          "name": "finalAuctionTime",
          "type": "uint256"
        },
        {
          "internalType": "uint256",
          "name": "endTime",
          "type": "uint256"
        },
        {
          "internalType": "address payable",
          "name": "bidder",
          "type": "address"
        },
        {
          "internalType": "bool",
          "name": "isFinalBid",
          "type": "bool"
        },
        {
          "internalType": "bool",
          "name": "settled",
          "type": "bool"
        }
      ],
      "stateMutability": "view",
      "type": "function"
    },
    {
      "inputs": [
        {
          "internalType": "uint256",
          "name": "",
          "type": "uint256"
        }
      ],
      "name": "auctionHistory",
      "outputs": [
        {
          "internalType": "uint256",
          "name": "photoCardId",
          "type": "uint256"
        },
        {
          "internalType": "uint256",
          "name": "amount",
          "type": "uint256"
        },
        {
          "internalType": "uint256",
          "name": "startTime",
          "type": "uint256"
        },
        {
          "internalType": "uint256",
          "name": "finalAuctionTime",
          "type": "uint256"
        },
        {
          "internalType": "uint256",
          "name": "endTime",
          "type": "uint256"
        },
        {
          "internalType": "address payable",
          "name": "bidder",
          "type": "address"
        },
        {
          "internalType": "bool",
          "name": "isFinalBid",
          "type": "bool"
        },
        {
          "internalType": "bool",
          "name": "settled",
          "type": "bool"
        }
      ],
      "stateMutability": "view",
      "type": "function"
    },
    {
      "inputs": [
        {
          "internalType": "uint256",
          "name": "photoCardId",
          "type": "uint256"
        }
      ],
      "name": "createBid",
      "outputs": [],
      "stateMutability": "payable",
      "type": "function"
    },
    {
      "inputs": [],
      "name": "fantosiDAOExecutor",
      "outputs": [
        {
          "internalType": "address",
          "name": "",
          "type": "address"
        }
      ],
      "stateMutability": "view",
      "type": "function"
    },
    {
      "inputs": [],
      "name": "fantosiToken",
      "outputs": [
        {
          "internalType": "contract IFantosiToken",
          "name": "",
          "type": "address"
        }
      ],
      "stateMutability": "view",
      "type": "function"
    },
    {
      "inputs": [],
      "name": "finalAuctionPoint",
      "outputs": [
        {
          "internalType": "uint256",
          "name": "",
          "type": "uint256"
        }
      ],
      "stateMutability": "view",
      "type": "function"
    },
    {
      "inputs": [],
      "name": "getAuctionHistory",
      "outputs": [
        {
          "components": [
            {
              "internalType": "uint256",
              "name": "photoCardId",
              "type": "uint256"
            },
            {
              "internalType": "uint256",
              "name": "amount",
              "type": "uint256"
            },
            {
              "internalType": "uint256",
              "name": "startTime",
              "type": "uint256"
            },
            {
              "internalType": "uint256",
              "name": "finalAuctionTime",
              "type": "uint256"
            },
            {
              "internalType": "uint256",
              "name": "endTime",
              "type": "uint256"
            },
            {
              "internalType": "address payable",
              "name": "bidder",
              "type": "address"
            },
            {
              "internalType": "bool",
              "name": "isFinalBid",
              "type": "bool"
            },
            {
              "internalType": "bool",
              "name": "settled",
              "type": "bool"
            }
          ],
          "internalType": "struct IFantosiAuctionHouse.Auction[]",
          "name": "",
          "type": "tuple[]"
        }
      ],
      "stateMutability": "view",
      "type": "function"
    },
    {
      "inputs": [],
      "name": "getAuctionHistoryLength",
      "outputs": [
        {
          "internalType": "uint256",
          "name": "",
          "type": "uint256"
        }
      ],
      "stateMutability": "view",
      "type": "function"
    },
    {
      "inputs": [],
      "name": "getCurrentAuction",
      "outputs": [
        {
          "components": [
            {
              "internalType": "uint256",
              "name": "photoCardId",
              "type": "uint256"
            },
            {
              "internalType": "uint256",
              "name": "amount",
              "type": "uint256"
            },
            {
              "internalType": "uint256",
              "name": "startTime",
              "type": "uint256"
            },
            {
              "internalType": "uint256",
              "name": "finalAuctionTime",
              "type": "uint256"
            },
            {
              "internalType": "uint256",
              "name": "endTime",
              "type": "uint256"
            },
            {
              "internalType": "address payable",
              "name": "bidder",
              "type": "address"
            },
            {
              "internalType": "bool",
              "name": "isFinalBid",
              "type": "bool"
            },
            {
              "internalType": "bool",
              "name": "settled",
              "type": "bool"
            }
          ],
          "internalType": "struct IFantosiAuctionHouse.Auction",
          "name": "",
          "type": "tuple"
        }
      ],
      "stateMutability": "view",
      "type": "function"
    },
    {
      "inputs": [],
      "name": "initialStartTime",
      "outputs": [
        {
          "internalType": "uint256",
          "name": "",
          "type": "uint256"
        }
      ],
      "stateMutability": "view",
      "type": "function"
    },
    {
      "inputs": [
        {
          "internalType": "contract IFantosiToken",
          "name": "_fantosiToken",
          "type": "address"
        },
        {
          "internalType": "address",
          "name": "_wBNB",
          "type": "address"
        },
        {
          "internalType": "uint256",
          "name": "_timeBuffer",
          "type": "uint256"
        },
        {
          "internalType": "uint256",
          "name": "_reservePrice",
          "type": "uint256"
        },
        {
          "internalType": "uint8",
          "name": "_minBidIncrementPercentage",
          "type": "uint8"
        },
        {
          "internalType": "uint256",
          "name": "_initialStartTime",
          "type": "uint256"
        },
        {
          "internalType": "uint256",
          "name": "_totalDuration",
          "type": "uint256"
        },
        {
          "internalType": "uint256",
          "name": "_finalAuctionPoint",
          "type": "uint256"
        },
        {
          "internalType": "address",
          "name": "_fantosiDAOExecutor",
          "type": "address"
        }
      ],
      "name": "initialize",
      "outputs": [],
      "stateMutability": "nonpayable",
      "type": "function"
    },
    {
      "inputs": [],
      "name": "minBidIncrementPercentage",
      "outputs": [
        {
          "internalType": "uint8",
          "name": "",
          "type": "uint8"
        }
      ],
      "stateMutability": "view",
      "type": "function"
    },
    {
      "inputs": [],
      "name": "pause",
      "outputs": [],
      "stateMutability": "nonpayable",
      "type": "function"
    },
    {
      "inputs": [],
      "name": "paused",
      "outputs": [
        {
          "internalType": "bool",
          "name": "",
          "type": "bool"
        }
      ],
      "stateMutability": "view",
      "type": "function"
    },
    {
      "inputs": [],
      "name": "reservePrice",
      "outputs": [
        {
          "internalType": "uint256",
          "name": "",
          "type": "uint256"
        }
      ],
      "stateMutability": "view",
      "type": "function"
    },
    {
      "inputs": [
        {
          "internalType": "uint8",
          "name": "_minBidIncrementPercentage",
          "type": "uint8"
        }
      ],
      "name": "setMinBidIncrementPercentage",
      "outputs": [],
      "stateMutability": "nonpayable",
      "type": "function"
    },
    {
      "inputs": [
        {
          "internalType": "uint256",
          "name": "_reservePrice",
          "type": "uint256"
        }
      ],
      "name": "setReservePrice",
      "outputs": [],
      "stateMutability": "nonpayable",
      "type": "function"
    },
    {
      "inputs": [
        {
          "internalType": "uint256",
          "name": "_timeBuffer",
          "type": "uint256"
        }
      ],
      "name": "setTimeBuffer",
      "outputs": [],
      "stateMutability": "nonpayable",
      "type": "function"
    },
    {
      "inputs": [],
      "name": "settleAuction",
      "outputs": [],
      "stateMutability": "nonpayable",
      "type": "function"
    },
    {
      "inputs": [],
      "name": "settleCurrentAndCreateNewAuction",
      "outputs": [],
      "stateMutability": "nonpayable",
      "type": "function"
    },
    {
      "inputs": [],
      "name": "timeBuffer",
      "outputs": [
        {
          "internalType": "uint256",
          "name": "",
          "type": "uint256"
        }
      ],
      "stateMutability": "view",
      "type": "function"
    },
    {
      "inputs": [],
      "name": "totalDuration",
      "outputs": [
        {
          "internalType": "uint256",
          "name": "",
          "type": "uint256"
        }
      ],
      "stateMutability": "view",
      "type": "function"
    },
    {
      "inputs": [
        {
          "internalType": "address",
          "name": "newAdmin",
          "type": "address"
        }
      ],
      "name": "transferAdmin",
      "outputs": [],
      "stateMutability": "nonpayable",
      "type": "function"
    },
    {
      "inputs": [],
      "name": "unpause",
      "outputs": [],
      "stateMutability": "nonpayable",
      "type": "function"
    },
    {
      "inputs": [],
      "name": "wBNB",
      "outputs": [
        {
          "internalType": "address",
          "name": "",
          "type": "address"
        }
      ],
      "stateMutability": "view",
      "type": "function"
    }
  ],
  "transactionHash": "0x02e51c242ab57ba8fb2fb57aa1f982f1b692a21e35c6d2b70686c14555581c1a",
  "args": [],
  "numDeployments": 1,
  "solcInputHash": "a032dd21cc0a1c3d651dccf638cf77ed",
  "bytecode": "0x608060405234801561001057600080fd5b50611bb8806100206000396000f3fe6080604052600436106101655760003560e01c806382c272a7116100d1578063b296024d1161008a578063db2e1eed11610064578063db2e1eed14610463578063dcb66f1214610479578063ec91f2a41461049b578063f25efffc146104b157600080fd5b8063b296024d146103f7578063ce9c7c0d14610423578063d02eb3f41461044357600080fd5b806382c272a7146103605780638456cb59146103805780638af6c259146103955780639eafe29f146103ab578063a4d0a17e146103c0578063acaff877146103d557600080fd5b80635c975abb116101235780635c975abb1461028a578063659dd2b4146102ad5780637111f3d0146102c05780637120334b146102d657806375829def146102f65780637d9f6db51461031657600080fd5b80623d21d61461016a57806317b891ee146101a757806331cde51a146101c957806336ebdb38146102315780633f4ba83a146102515780634500376d14610266575b600080fd5b34801561017657600080fd5b5060985461018a906001600160a01b031681565b6040516001600160a01b0390911681526020015b60405180910390f35b3480156101b357600080fd5b506101c76101c2366004611757565b6104c6565b005b3480156101d557600080fd5b506101e96101e43660046117e4565b610663565b60408051988952602089019790975295870194909452606086019290925260808501526001600160a01b031660a0840152151560c0830152151560e08201526101000161019e565b34801561023d57600080fd5b506101c761024c3660046117fd565b6106c8565b34801561025d57600080fd5b506101c761073b565b34801561027257600080fd5b5061027c609d5481565b60405190815260200161019e565b34801561029657600080fd5b5060335460ff16604051901515815260200161019e565b6101c76102bb3660046117e4565b6107a9565b3480156102cc57600080fd5b5061027c609f5481565b3480156102e257600080fd5b506101c76102f13660046117e4565b610ace565b34801561030257600080fd5b506101c761031136600461181f565b610b2d565b34801561032257600080fd5b5060a15460a25460a35460a45460a55460a6546101e99594939291906001600160a01b0381169060ff600160a01b8204811691600160a81b90041688565b34801561036c57600080fd5b5060a75461018a906001600160a01b031681565b34801561038c57600080fd5b506101c7610b79565b3480156103a157600080fd5b5061027c609e5481565b3480156103b757600080fd5b5060a05461027c565b3480156103cc57600080fd5b506101c7610bab565b3480156103e157600080fd5b506103ea610bea565b60405161019e9190611896565b34801561040357600080fd5b50609c546104119060ff1681565b60405160ff909116815260200161019e565b34801561042f57600080fd5b506101c761043e3660046117e4565b610cac565b34801561044f57600080fd5b5060995461018a906001600160a01b031681565b34801561046f57600080fd5b5061027c609b5481565b34801561048557600080fd5b5061048e610d0b565b60405161019e91906118e5565b3480156104a757600080fd5b5061027c609a5481565b3480156104bd57600080fd5b506101c7610dca565b600054610100900460ff16158080156104e65750600054600160ff909116105b806105005750303b158015610500575060005460ff166001145b6105685760405162461bcd60e51b815260206004820152602e60248201527f496e697469616c697a61626c653a20636f6e747261637420697320616c72656160448201526d191e481a5b9a5d1a585b1a5e995960921b60648201526084015b60405180910390fd5b6000805460ff19166001179055801561058b576000805461ff0019166101001790555b610593610e0a565b61059b610e39565b6105a3610e68565b60978054336001600160a01b0319918216179091556098805482166001600160a01b038d8116919091179091556099805483168c8316179055609a8a9055609b899055609c805460ff191660ff8a16179055609d879055609e869055609f85905560a780549092169084161790558015610657576000805461ff0019169055604051600181527f7f26b83ff96e1f2b6a682f133852f6798a09c465da95921460cefb38474024989060200160405180910390a15b50505050505050505050565b60a0818154811061067357600080fd5b6000918252602090912060069091020180546001820154600283015460038401546004850154600590950154939550919390926001600160a01b0381169060ff600160a01b8204811691600160a81b90041688565b6097546001600160a01b031633146106f25760405162461bcd60e51b815260040161055f906118f4565b609c805460ff191660ff83169081179091556040519081527fec5ccd96cc77b6219e9d44143df916af68fc169339ea7de5008ff15eae13450d906020015b60405180910390a150565b6097546001600160a01b031633146107655760405162461bcd60e51b815260040161055f906118f4565b61076d610ec2565b60a3541580610785575060a654600160a81b900460ff165b156107a757610792610efb565b60a7546107a7906001600160a01b0316610b2d565b565b600260655414156107cc5760405162461bcd60e51b815260040161055f90611923565b6002606555604080516101008101825260a15480825260a254602083015260a3549282019290925260a454606082015260a554608082015260a6546001600160a01b03811660a083015260ff600160a01b82048116151560c0840152600160a81b90910416151560e08201529082146108875760405162461bcd60e51b815260206004820152601960248201527f46414e544f53493a20494e56414c49445f49445f4552524f5200000000000000604482015260640161055f565b609b543410156108d95760405162461bcd60e51b815260206004820152601c60248201527f46414e544f53493a20524553455256455f50524943455f4552524f5200000000604482015260640161055f565b8060800151421080156108ef5750806060015142105b61093b5760405162461bcd60e51b815260206004820152601e60248201527f46414e544f53493a20455850495245445f41554354494f4e5f4552524f520000604482015260640161055f565b609c5460208201516064916109559160ff90911690611970565b61095f919061198f565b816020015161096e91906119b1565b3410156109bd5760405162461bcd60e51b815260206004820152601f60248201527f46414e544f53493a20494e4352454d454e545f414d4f554e545f4552524f5200604482015260640161055f565b60a08101516001600160a01b038116156109df576109df8183602001516110b0565b3460a25560a680546001600160a01b03191633179055609a54606083015160009190610a0c9042906119c9565b1090508015610a4057609a54610a2290426119b1565b6060840181905260a45560a6805460ff60a01b1916600160a01b1790555b8251604080513381523460208201528315158183015290517f1159164c56f277e6fc99c11731bd380e0347deb969b75523398734c252706ea39181900360600190a28015610ac357825160608401516040519081527f6e912a3a9105bdd2af817ba5adc14e6c127c1035b5b648faa29ca0d58ab8ff4e9060200160405180910390a25b505060016065555050565b6097546001600160a01b03163314610af85760405162461bcd60e51b815260040161055f906118f4565b609a8190556040518181527f1b55d9f7002bda4490f467e326f22a4a847629c0f2d1ed421607d318d25b410d90602001610730565b6097546001600160a01b03163314610b575760405162461bcd60e51b815260040161055f906118f4565b609780546001600160a01b0319166001600160a01b0392909216919091179055565b6097546001600160a01b03163314610ba35760405162461bcd60e51b815260040161055f906118f4565b6107a7610e68565b610bb36111a5565b60026065541415610bd65760405162461bcd60e51b815260040161055f90611923565b6002606555610be36111ee565b6001606555565b606060a0805480602002602001604051908101604052809291908181526020016000905b82821015610ca357600084815260209081902060408051610100810182526006860290920180548352600180820154848601526002820154928401929092526003810154606084015260048101546080840152600501546001600160a01b03811660a084015260ff600160a01b82048116151560c0850152600160a81b90910416151560e08301529083529092019101610c0e565b50505050905090565b6097546001600160a01b03163314610cd65760405162461bcd60e51b815260040161055f906118f4565b609b8190556040518181527f6ab2e127d7fdf53b8f304e59d3aab5bfe97979f52a85479691a6fab27a28a6b290602001610730565b610d60604051806101000160405280600081526020016000815260200160008152602001600081526020016000815260200160006001600160a01b031681526020016000151581526020016000151581525090565b50604080516101008101825260a154815260a254602082015260a3549181019190915260a454606082015260a554608082015260a6546001600160a01b03811660a083015260ff600160a01b82048116151560c0840152600160a81b90910416151560e082015290565b60026065541415610ded5760405162461bcd60e51b815260040161055f90611923565b6002606555610dfa61160c565b610e026111ee565b610be3610efb565b600054610100900460ff16610e315760405162461bcd60e51b815260040161055f906119e0565b6107a7611652565b600054610100900460ff16610e605760405162461bcd60e51b815260040161055f906119e0565b6107a7611685565b610e7061160c565b6033805460ff191660011790557f62e78cea01bee320cd4e420270b5ea74000d11b0c9f74754ebdbfc544b05a258610ea53390565b6040516001600160a01b03909116815260200160405180910390a1565b610eca6111a5565b6033805460ff191690557f5db9ee0a495bf2e6ff9c91a7834c1ba4fdd244a5e8aa4e537bd38aeae4b073aa33610ea5565b609860009054906101000a90046001600160a01b03166001600160a01b0316631249c58b6040518163ffffffff1660e01b81526004016020604051808303816000875af1925050508015610f6c575060408051601f3d908101601f19168201909252610f6991810190611a2b565b60015b610faf57610f78611a44565b806308c379a01415610fa35750610f8d611a9b565b80610f985750610fa5565b610fa0610e68565b50565b505b3d6000803e3d6000fd5b60008160011415610fd157609d54610fc8575042610fd6565b50609d54610fd6565b5060a5545b6000609f5482610fe691906119b1565b90506000609e5483610ff891906119b1565b905080421061100957611009610e68565b604080516101008101825285815260006020808301829052828401879052606083018690526080830185905260a0830182905260c0830182905260e090920181905260a187905560a25560a385905560a484905560a583905560a680546001600160b01b0319169055815185815290810183905285917fd6eddd1118d71820909c1197aa966dbc15ed6f508554252169cc3d5ccac756ca910160405180910390a250505050565b6110ba82826116ac565b6111a157609960009054906101000a90046001600160a01b03166001600160a01b031663d0e30db0826040518263ffffffff1660e01b81526004016000604051808303818588803b15801561110e57600080fd5b505af1158015611122573d6000803e3d6000fd5b505060995460405163a9059cbb60e01b81526001600160a01b03878116600483015260248201879052909116935063a9059cbb925060440190506020604051808303816000875af115801561117b573d6000803e3d6000fd5b505050506040513d601f19601f8201168201806040525081019061119f9190611b25565b505b5050565b60335460ff166107a75760405162461bcd60e51b815260206004820152601460248201527314185d5cd8589b194e881b9bdd081c185d5cd95960621b604482015260640161055f565b604080516101008101825260a154815260a254602082015260a35491810182905260a454606082015260a554608082015260a6546001600160a01b03811660a083015260ff600160a01b82048116151560c0840152600160a81b90910416151560e0820152906112a05760405162461bcd60e51b815260206004820181905260248201527f46414e544f53493a20554e535441525445445f41554354494f4e5f4552524f52604482015260640161055f565b8060e00151156112f25760405162461bcd60e51b815260206004820152601e60248201527f46414e544f53493a20534554544c45445f41554354494f4e5f4552524f520000604482015260640161055f565b80608001514210156113465760405162461bcd60e51b815260206004820152601a60248201527f46414e544f53493a20454e445f41554354494f4e5f4552524f52000000000000604482015260640161055f565b60a6805460ff60a81b1916600160a81b17905560a08101516001600160a01b03166113d6576098548151604051630852cd8d60e31b81526001600160a01b03909216916342966c689161139f9160040190815260200190565b600060405180830381600087803b1580156113b957600080fd5b505af11580156113cd573d6000803e3d6000fd5b5050505061144a565b60985460a082015182516040516323b872dd60e01b81523060048201526001600160a01b03928316602482015260448101919091529116906323b872dd90606401600060405180830381600087803b15801561143157600080fd5b505af1158015611445573d6000803e3d6000fd5b505050505b60208101511561146f57609754602082015161146f916001600160a01b0316906110b0565b60a080546001810182556000829052825160069091027f78fdc8d422c49ced035a9edf18d00d3c6a8d81df210f3e5e448e045e77b41e88810182905560208401517f78fdc8d422c49ced035a9edf18d00d3c6a8d81df210f3e5e448e045e77b41e8982018190556040808601517f78fdc8d422c49ced035a9edf18d00d3c6a8d81df210f3e5e448e045e77b41e8a84015560608601517f78fdc8d422c49ced035a9edf18d00d3c6a8d81df210f3e5e448e045e77b41e8b84015560808601517f78fdc8d422c49ced035a9edf18d00d3c6a8d81df210f3e5e448e045e77b41e8c840155938501517f78fdc8d422c49ced035a9edf18d00d3c6a8d81df210f3e5e448e045e77b41e8d909201805460c087015160e08801511515600160a81b0260ff60a81b19911515600160a01b026001600160a81b03199093166001600160a01b038716179290921716179055925191927fc9f72b276a388619c6d185d146697036241880c36654b1a3ffdad07c24038d99926116019291906001600160a01b03929092168252602082015260400190565b60405180910390a250565b60335460ff16156107a75760405162461bcd60e51b815260206004820152601060248201526f14185d5cd8589b194e881c185d5cd95960821b604482015260640161055f565b600054610100900460ff166116795760405162461bcd60e51b815260040161055f906119e0565b6033805460ff19169055565b600054610100900460ff16610be35760405162461bcd60e51b815260040161055f906119e0565b6040805160008082526020820190925281906001600160a01b038516906175309085906040516116dc9190611b47565b600060405180830381858888f193505050503d806000811461171a576040519150601f19603f3d011682016040523d82523d6000602084013e61171f565b606091505b5090925050505b92915050565b6001600160a01b0381168114610fa057600080fd5b803560ff8116811461175257600080fd5b919050565b60008060008060008060008060006101208a8c03121561177657600080fd5b89356117818161172c565b985060208a01356117918161172c565b975060408a0135965060608a013595506117ad60808b01611741565b945060a08a0135935060c08a0135925060e08a013591506101008a01356117d38161172c565b809150509295985092959850929598565b6000602082840312156117f657600080fd5b5035919050565b60006020828403121561180f57600080fd5b61181882611741565b9392505050565b60006020828403121561183157600080fd5b81356118188161172c565b805182526020810151602083015260408101516040830152606081015160608301526080810151608083015260018060a01b0360a08201511660a083015260c0810151151560c083015260e0810151151560e08301525050565b6020808252825182820181905260009190848201906040850190845b818110156118d9576118c583855161183c565b9284019261010092909201916001016118b2565b50909695505050505050565b6101008101611726828461183c565b6020808252601590820152742320a72a27a9a49d1020a1a1a2a9a9afa2a92927a960591b604082015260600190565b6020808252601f908201527f5265656e7472616e637947756172643a207265656e7472616e742063616c6c00604082015260600190565b634e487b7160e01b600052601160045260246000fd5b600081600019048311821515161561198a5761198a61195a565b500290565b6000826119ac57634e487b7160e01b600052601260045260246000fd5b500490565b600082198211156119c4576119c461195a565b500190565b6000828210156119db576119db61195a565b500390565b6020808252602b908201527f496e697469616c697a61626c653a20636f6e7472616374206973206e6f74206960408201526a6e697469616c697a696e6760a81b606082015260800190565b600060208284031215611a3d57600080fd5b5051919050565b600060033d1115611a5d5760046000803e5060005160e01c5b90565b601f8201601f1916810167ffffffffffffffff81118282101715611a9457634e487b7160e01b600052604160045260246000fd5b6040525050565b600060443d1015611aa95790565b6040516003193d81016004833e81513d67ffffffffffffffff8160248401118184111715611ad957505050505090565b8285019150815181811115611af15750505050505090565b843d8701016020828501011115611b0b5750505050505090565b611b1a60208286010187611a60565b509095945050505050565b600060208284031215611b3757600080fd5b8151801515811461181857600080fd5b6000825160005b81811015611b685760208186018101518583015201611b4e565b81811115611b77576000828501525b50919091019291505056fea2646970667358221220479fa7b662e2db3ffb4c4fabef50444c59b7497c44ce4f20b4b22860f752fe3c64736f6c634300080b0033",
  "devdoc": {
    "kind": "dev",
    "methods": {
      "paused()": {
        "details": "Returns true if the contract is paused, and false otherwise."
      }
    },
    "version": 1
  },
  "userdoc": {
    "kind": "user",
    "methods": {},
    "version": 1
  },
  "storageLayout": {
    "storage": [
      {
        "astId": 6,
        "contract": "src/FantosiAuctionHouse.sol:FantosiAuctionHouse",
        "label": "_initialized",
        "offset": 0,
        "slot": "0",
        "type": "t_uint8"
      },
      {
        "astId": 9,
        "contract": "src/FantosiAuctionHouse.sol:FantosiAuctionHouse",
        "label": "_initializing",
        "offset": 1,
        "slot": "0",
        "type": "t_bool"
      },
      {
        "astId": 620,
        "contract": "src/FantosiAuctionHouse.sol:FantosiAuctionHouse",
        "label": "__gap",
        "offset": 0,
        "slot": "1",
        "type": "t_array(t_uint256)50_storage"
      },
      {
        "astId": 171,
        "contract": "src/FantosiAuctionHouse.sol:FantosiAuctionHouse",
        "label": "_paused",
        "offset": 0,
        "slot": "51",
        "type": "t_bool"
      },
      {
        "astId": 276,
        "contract": "src/FantosiAuctionHouse.sol:FantosiAuctionHouse",
        "label": "__gap",
        "offset": 0,
        "slot": "52",
        "type": "t_array(t_uint256)49_storage"
      },
      {
        "astId": 291,
        "contract": "src/FantosiAuctionHouse.sol:FantosiAuctionHouse",
        "label": "_status",
        "offset": 0,
        "slot": "101",
        "type": "t_uint256"
      },
      {
        "astId": 335,
        "contract": "src/FantosiAuctionHouse.sol:FantosiAuctionHouse",
        "label": "__gap",
        "offset": 0,
        "slot": "102",
        "type": "t_array(t_uint256)49_storage"
      },
      {
        "astId": 10442,
        "contract": "src/FantosiAuctionHouse.sol:FantosiAuctionHouse",
        "label": "admin",
        "offset": 0,
        "slot": "151",
        "type": "t_address"
      },
      {
        "astId": 10445,
        "contract": "src/FantosiAuctionHouse.sol:FantosiAuctionHouse",
        "label": "fantosiToken",
        "offset": 0,
        "slot": "152",
        "type": "t_contract(IFantosiToken)17814"
      },
      {
        "astId": 10447,
        "contract": "src/FantosiAuctionHouse.sol:FantosiAuctionHouse",
        "label": "wBNB",
        "offset": 0,
        "slot": "153",
        "type": "t_address"
      },
      {
        "astId": 10449,
        "contract": "src/FantosiAuctionHouse.sol:FantosiAuctionHouse",
        "label": "timeBuffer",
        "offset": 0,
        "slot": "154",
        "type": "t_uint256"
      },
      {
        "astId": 10451,
        "contract": "src/FantosiAuctionHouse.sol:FantosiAuctionHouse",
        "label": "reservePrice",
        "offset": 0,
        "slot": "155",
        "type": "t_uint256"
      },
      {
        "astId": 10453,
        "contract": "src/FantosiAuctionHouse.sol:FantosiAuctionHouse",
        "label": "minBidIncrementPercentage",
        "offset": 0,
        "slot": "156",
        "type": "t_uint8"
      },
      {
        "astId": 10455,
        "contract": "src/FantosiAuctionHouse.sol:FantosiAuctionHouse",
        "label": "initialStartTime",
        "offset": 0,
        "slot": "157",
        "type": "t_uint256"
      },
      {
        "astId": 10457,
        "contract": "src/FantosiAuctionHouse.sol:FantosiAuctionHouse",
        "label": "totalDuration",
        "offset": 0,
        "slot": "158",
        "type": "t_uint256"
      },
      {
        "astId": 10459,
        "contract": "src/FantosiAuctionHouse.sol:FantosiAuctionHouse",
        "label": "finalAuctionPoint",
        "offset": 0,
        "slot": "159",
        "type": "t_uint256"
      },
      {
        "astId": 10463,
        "contract": "src/FantosiAuctionHouse.sol:FantosiAuctionHouse",
        "label": "auctionHistory",
        "offset": 0,
        "slot": "160",
        "type": "t_array(t_struct(Auction)17659_storage)dyn_storage"
      },
      {
        "astId": 10466,
        "contract": "src/FantosiAuctionHouse.sol:FantosiAuctionHouse",
        "label": "auction",
        "offset": 0,
        "slot": "161",
        "type": "t_struct(Auction)17659_storage"
      },
      {
        "astId": 10468,
        "contract": "src/FantosiAuctionHouse.sol:FantosiAuctionHouse",
        "label": "fantosiDAOExecutor",
        "offset": 0,
        "slot": "167",
        "type": "t_address"
      }
    ],
    "types": {
      "t_address": {
        "encoding": "inplace",
        "label": "address",
        "numberOfBytes": "20"
      },
      "t_address_payable": {
        "encoding": "inplace",
        "label": "address payable",
        "numberOfBytes": "20"
      },
      "t_array(t_struct(Auction)17659_storage)dyn_storage": {
        "base": "t_struct(Auction)17659_storage",
        "encoding": "dynamic_array",
        "label": "struct IFantosiAuctionHouse.Auction[]",
        "numberOfBytes": "32"
      },
      "t_array(t_uint256)49_storage": {
        "base": "t_uint256",
        "encoding": "inplace",
        "label": "uint256[49]",
        "numberOfBytes": "1568"
      },
      "t_array(t_uint256)50_storage": {
        "base": "t_uint256",
        "encoding": "inplace",
        "label": "uint256[50]",
        "numberOfBytes": "1600"
      },
      "t_bool": {
        "encoding": "inplace",
        "label": "bool",
        "numberOfBytes": "1"
      },
      "t_contract(IFantosiToken)17814": {
        "encoding": "inplace",
        "label": "contract IFantosiToken",
        "numberOfBytes": "20"
      },
      "t_struct(Auction)17659_storage": {
        "encoding": "inplace",
        "label": "struct IFantosiAuctionHouse.Auction",
        "members": [
          {
            "astId": 17644,
            "contract": "src/FantosiAuctionHouse.sol:FantosiAuctionHouse",
            "label": "photoCardId",
            "offset": 0,
            "slot": "0",
            "type": "t_uint256"
          },
          {
            "astId": 17646,
            "contract": "src/FantosiAuctionHouse.sol:FantosiAuctionHouse",
            "label": "amount",
            "offset": 0,
            "slot": "1",
            "type": "t_uint256"
          },
          {
            "astId": 17648,
            "contract": "src/FantosiAuctionHouse.sol:FantosiAuctionHouse",
            "label": "startTime",
            "offset": 0,
            "slot": "2",
            "type": "t_uint256"
          },
          {
            "astId": 17650,
            "contract": "src/FantosiAuctionHouse.sol:FantosiAuctionHouse",
            "label": "finalAuctionTime",
            "offset": 0,
            "slot": "3",
            "type": "t_uint256"
          },
          {
            "astId": 17652,
            "contract": "src/FantosiAuctionHouse.sol:FantosiAuctionHouse",
            "label": "endTime",
            "offset": 0,
            "slot": "4",
            "type": "t_uint256"
          },
          {
            "astId": 17654,
            "contract": "src/FantosiAuctionHouse.sol:FantosiAuctionHouse",
            "label": "bidder",
            "offset": 0,
            "slot": "5",
            "type": "t_address_payable"
          },
          {
            "astId": 17656,
            "contract": "src/FantosiAuctionHouse.sol:FantosiAuctionHouse",
            "label": "isFinalBid",
            "offset": 20,
            "slot": "5",
            "type": "t_bool"
          },
          {
            "astId": 17658,
            "contract": "src/FantosiAuctionHouse.sol:FantosiAuctionHouse",
            "label": "settled",
            "offset": 21,
            "slot": "5",
            "type": "t_bool"
          }
        ],
        "numberOfBytes": "192"
      },
      "t_uint256": {
        "encoding": "inplace",
        "label": "uint256",
        "numberOfBytes": "32"
      },
      "t_uint8": {
        "encoding": "inplace",
        "label": "uint8",
        "numberOfBytes": "1"
      }
    }
  }
}