{
  "address": "0xd2d8Df034F5F171acEBc8c83c6b24c943eFcDbBD",
  "abi": [
    {
      "inputs": [
        {
          "internalType": "address",
          "name": "_fantosiAdmin",
          "type": "address"
        },
        {
          "internalType": "address",
          "name": "_fantosiArtist",
          "type": "address"
        },
        {
          "internalType": "string",
          "name": "name",
          "type": "string"
        },
        {
          "internalType": "string",
          "name": "symbol",
          "type": "string"
        },
        {
          "internalType": "string",
          "name": "baseContractURIHash",
          "type": "string"
        }
      ],
      "stateMutability": "nonpayable",
      "type": "constructor"
    },
    {
      "anonymous": false,
      "inputs": [
        {
          "indexed": true,
          "internalType": "address",
          "name": "owner",
          "type": "address"
        },
        {
          "indexed": true,
          "internalType": "address",
          "name": "approved",
          "type": "address"
        },
        {
          "indexed": true,
          "internalType": "uint256",
          "name": "tokenId",
          "type": "uint256"
        }
      ],
      "name": "Approval",
      "type": "event"
    },
    {
      "anonymous": false,
      "inputs": [
        {
          "indexed": true,
          "internalType": "address",
          "name": "owner",
          "type": "address"
        },
        {
          "indexed": true,
          "internalType": "address",
          "name": "operator",
          "type": "address"
        },
        {
          "indexed": false,
          "internalType": "bool",
          "name": "approved",
          "type": "bool"
        }
      ],
      "name": "ApprovalForAll",
      "type": "event"
    },
    {
      "anonymous": false,
      "inputs": [
        {
          "indexed": true,
          "internalType": "address",
          "name": "delegator",
          "type": "address"
        },
        {
          "indexed": true,
          "internalType": "address",
          "name": "fromDelegate",
          "type": "address"
        },
        {
          "indexed": true,
          "internalType": "address",
          "name": "toDelegate",
          "type": "address"
        }
      ],
      "name": "DelegateChanged",
      "type": "event"
    },
    {
      "anonymous": false,
      "inputs": [
        {
          "indexed": true,
          "internalType": "address",
          "name": "delegate",
          "type": "address"
        },
        {
          "indexed": false,
          "internalType": "uint256",
          "name": "previousBalance",
          "type": "uint256"
        },
        {
          "indexed": false,
          "internalType": "uint256",
          "name": "newBalance",
          "type": "uint256"
        }
      ],
      "name": "DelegateVotesChanged",
      "type": "event"
    },
    {
      "anonymous": false,
      "inputs": [
        {
          "indexed": false,
          "internalType": "address",
          "name": "fantosiAdmin",
          "type": "address"
        }
      ],
      "name": "FantosiAdminUpdated",
      "type": "event"
    },
    {
      "anonymous": false,
      "inputs": [],
      "name": "MinterLocked",
      "type": "event"
    },
    {
      "anonymous": false,
      "inputs": [
        {
          "indexed": false,
          "internalType": "address",
          "name": "minter",
          "type": "address"
        }
      ],
      "name": "MinterUpdated",
      "type": "event"
    },
    {
      "anonymous": false,
      "inputs": [
        {
          "indexed": true,
          "internalType": "address",
          "name": "previousOwner",
          "type": "address"
        },
        {
          "indexed": true,
          "internalType": "address",
          "name": "newOwner",
          "type": "address"
        }
      ],
      "name": "OwnershipTransferred",
      "type": "event"
    },
    {
      "anonymous": false,
      "inputs": [
        {
          "indexed": true,
          "internalType": "uint256",
          "name": "tokenId",
          "type": "uint256"
        }
      ],
      "name": "PhotoCardBurned",
      "type": "event"
    },
    {
      "anonymous": false,
      "inputs": [
        {
          "indexed": true,
          "internalType": "uint256",
          "name": "tokenId",
          "type": "uint256"
        }
      ],
      "name": "PhotoCardCreated",
      "type": "event"
    },
    {
      "anonymous": false,
      "inputs": [
        {
          "indexed": true,
          "internalType": "address",
          "name": "from",
          "type": "address"
        },
        {
          "indexed": true,
          "internalType": "address",
          "name": "to",
          "type": "address"
        },
        {
          "indexed": true,
          "internalType": "uint256",
          "name": "tokenId",
          "type": "uint256"
        }
      ],
      "name": "Transfer",
      "type": "event"
    },
    {
      "inputs": [],
      "name": "DELEGATION_TYPEHASH",
      "outputs": [
        {
          "internalType": "bytes32",
          "name": "",
          "type": "bytes32"
        }
      ],
      "stateMutability": "view",
      "type": "function"
    },
    {
      "inputs": [],
      "name": "DOMAIN_TYPEHASH",
      "outputs": [
        {
          "internalType": "bytes32",
          "name": "",
          "type": "bytes32"
        }
      ],
      "stateMutability": "view",
      "type": "function"
    },
    {
      "inputs": [
        {
          "internalType": "address",
          "name": "to",
          "type": "address"
        },
        {
          "internalType": "uint256",
          "name": "tokenId",
          "type": "uint256"
        }
      ],
      "name": "approve",
      "outputs": [],
      "stateMutability": "nonpayable",
      "type": "function"
    },
    {
      "inputs": [
        {
          "internalType": "address",
          "name": "owner",
          "type": "address"
        }
      ],
      "name": "balanceOf",
      "outputs": [
        {
          "internalType": "uint256",
          "name": "",
          "type": "uint256"
        }
      ],
      "stateMutability": "view",
      "type": "function"
    },
    {
      "inputs": [
        {
          "internalType": "uint256",
          "name": "nounId",
          "type": "uint256"
        }
      ],
      "name": "burn",
      "outputs": [],
      "stateMutability": "nonpayable",
      "type": "function"
    },
    {
      "inputs": [
        {
          "internalType": "address",
          "name": "",
          "type": "address"
        },
        {
          "internalType": "uint32",
          "name": "",
          "type": "uint32"
        }
      ],
      "name": "checkpoints",
      "outputs": [
        {
          "internalType": "uint32",
          "name": "fromBlock",
          "type": "uint32"
        },
        {
          "internalType": "uint96",
          "name": "votes",
          "type": "uint96"
        }
      ],
      "stateMutability": "view",
      "type": "function"
    },
    {
      "inputs": [],
      "name": "contractURIHash",
      "outputs": [
        {
          "internalType": "string",
          "name": "",
          "type": "string"
        }
      ],
      "stateMutability": "view",
      "type": "function"
    },
    {
      "inputs": [],
      "name": "decimals",
      "outputs": [
        {
          "internalType": "uint8",
          "name": "",
          "type": "uint8"
        }
      ],
      "stateMutability": "view",
      "type": "function"
    },
    {
      "inputs": [
        {
          "internalType": "address",
          "name": "delegatee",
          "type": "address"
        }
      ],
      "name": "delegate",
      "outputs": [],
      "stateMutability": "nonpayable",
      "type": "function"
    },
    {
      "inputs": [
        {
          "internalType": "address",
          "name": "delegatee",
          "type": "address"
        },
        {
          "internalType": "uint256",
          "name": "nonce",
          "type": "uint256"
        },
        {
          "internalType": "uint256",
          "name": "expiry",
          "type": "uint256"
        },
        {
          "internalType": "uint8",
          "name": "v",
          "type": "uint8"
        },
        {
          "internalType": "bytes32",
          "name": "r",
          "type": "bytes32"
        },
        {
          "internalType": "bytes32",
          "name": "s",
          "type": "bytes32"
        }
      ],
      "name": "delegateBySig",
      "outputs": [],
      "stateMutability": "nonpayable",
      "type": "function"
    },
    {
      "inputs": [
        {
          "internalType": "address",
          "name": "delegator",
          "type": "address"
        }
      ],
      "name": "delegates",
      "outputs": [
        {
          "internalType": "address",
          "name": "",
          "type": "address"
        }
      ],
      "stateMutability": "view",
      "type": "function"
    },
    {
      "inputs": [],
      "name": "fantosiAdmin",
      "outputs": [
        {
          "internalType": "address",
          "name": "",
          "type": "address"
        }
      ],
      "stateMutability": "view",
      "type": "function"
    },
    {
      "inputs": [],
      "name": "fantosiArtist",
      "outputs": [
        {
          "internalType": "address",
          "name": "",
          "type": "address"
        }
      ],
      "stateMutability": "view",
      "type": "function"
    },
    {
      "inputs": [
        {
          "internalType": "uint256",
          "name": "tokenId",
          "type": "uint256"
        }
      ],
      "name": "getApproved",
      "outputs": [
        {
          "internalType": "address",
          "name": "",
          "type": "address"
        }
      ],
      "stateMutability": "view",
      "type": "function"
    },
    {
      "inputs": [
        {
          "internalType": "address",
          "name": "account",
          "type": "address"
        }
      ],
      "name": "getCurrentVotes",
      "outputs": [
        {
          "internalType": "uint96",
          "name": "",
          "type": "uint96"
        }
      ],
      "stateMutability": "view",
      "type": "function"
    },
    {
      "inputs": [
        {
          "internalType": "address",
          "name": "account",
          "type": "address"
        },
        {
          "internalType": "uint256",
          "name": "blockNumber",
          "type": "uint256"
        }
      ],
      "name": "getPriorVotes",
      "outputs": [
        {
          "internalType": "uint96",
          "name": "",
          "type": "uint96"
        }
      ],
      "stateMutability": "view",
      "type": "function"
    },
    {
      "inputs": [],
      "name": "getSymbol",
      "outputs": [
        {
          "internalType": "string",
          "name": "",
          "type": "string"
        }
      ],
      "stateMutability": "view",
      "type": "function"
    },
    {
      "inputs": [
        {
          "internalType": "uint256",
          "name": "tokenId",
          "type": "uint256"
        }
      ],
      "name": "getTokenURI",
      "outputs": [
        {
          "internalType": "string",
          "name": "",
          "type": "string"
        }
      ],
      "stateMutability": "view",
      "type": "function"
    },
    {
      "inputs": [
        {
          "internalType": "address",
          "name": "owner",
          "type": "address"
        },
        {
          "internalType": "address",
          "name": "operator",
          "type": "address"
        }
      ],
      "name": "isApprovedForAll",
      "outputs": [
        {
          "internalType": "bool",
          "name": "",
          "type": "bool"
        }
      ],
      "stateMutability": "view",
      "type": "function"
    },
    {
      "inputs": [],
      "name": "isMinterLocked",
      "outputs": [
        {
          "internalType": "bool",
          "name": "",
          "type": "bool"
        }
      ],
      "stateMutability": "view",
      "type": "function"
    },
    {
      "inputs": [],
      "name": "lockMinter",
      "outputs": [],
      "stateMutability": "nonpayable",
      "type": "function"
    },
    {
      "inputs": [],
      "name": "mint",
      "outputs": [
        {
          "internalType": "uint256",
          "name": "",
          "type": "uint256"
        }
      ],
      "stateMutability": "nonpayable",
      "type": "function"
    },
    {
      "inputs": [],
      "name": "minter",
      "outputs": [
        {
          "internalType": "address",
          "name": "",
          "type": "address"
        }
      ],
      "stateMutability": "view",
      "type": "function"
    },
    {
      "inputs": [],
      "name": "name",
      "outputs": [
        {
          "internalType": "string",
          "name": "",
          "type": "string"
        }
      ],
      "stateMutability": "view",
      "type": "function"
    },
    {
      "inputs": [
        {
          "internalType": "address",
          "name": "",
          "type": "address"
        }
      ],
      "name": "nonces",
      "outputs": [
        {
          "internalType": "uint256",
          "name": "",
          "type": "uint256"
        }
      ],
      "stateMutability": "view",
      "type": "function"
    },
    {
      "inputs": [
        {
          "internalType": "address",
          "name": "",
          "type": "address"
        }
      ],
      "name": "numCheckpoints",
      "outputs": [
        {
          "internalType": "uint32",
          "name": "",
          "type": "uint32"
        }
      ],
      "stateMutability": "view",
      "type": "function"
    },
    {
      "inputs": [],
      "name": "owner",
      "outputs": [
        {
          "internalType": "address",
          "name": "",
          "type": "address"
        }
      ],
      "stateMutability": "view",
      "type": "function"
    },
    {
      "inputs": [
        {
          "internalType": "uint256",
          "name": "tokenId",
          "type": "uint256"
        }
      ],
      "name": "ownerOf",
      "outputs": [
        {
          "internalType": "address",
          "name": "",
          "type": "address"
        }
      ],
      "stateMutability": "view",
      "type": "function"
    },
    {
      "inputs": [],
      "name": "renounceOwnership",
      "outputs": [],
      "stateMutability": "nonpayable",
      "type": "function"
    },
    {
      "inputs": [
        {
          "internalType": "address",
          "name": "from",
          "type": "address"
        },
        {
          "internalType": "address",
          "name": "to",
          "type": "address"
        },
        {
          "internalType": "uint256",
          "name": "tokenId",
          "type": "uint256"
        }
      ],
      "name": "safeTransferFrom",
      "outputs": [],
      "stateMutability": "nonpayable",
      "type": "function"
    },
    {
      "inputs": [
        {
          "internalType": "address",
          "name": "from",
          "type": "address"
        },
        {
          "internalType": "address",
          "name": "to",
          "type": "address"
        },
        {
          "internalType": "uint256",
          "name": "tokenId",
          "type": "uint256"
        },
        {
          "internalType": "bytes",
          "name": "_data",
          "type": "bytes"
        }
      ],
      "name": "safeTransferFrom",
      "outputs": [],
      "stateMutability": "nonpayable",
      "type": "function"
    },
    {
      "inputs": [
        {
          "internalType": "address",
          "name": "operator",
          "type": "address"
        },
        {
          "internalType": "bool",
          "name": "approved",
          "type": "bool"
        }
      ],
      "name": "setApprovalForAll",
      "outputs": [],
      "stateMutability": "nonpayable",
      "type": "function"
    },
    {
      "inputs": [
        {
          "internalType": "string",
          "name": "newContractURIHash",
          "type": "string"
        }
      ],
      "name": "setContractURIHash",
      "outputs": [],
      "stateMutability": "nonpayable",
      "type": "function"
    },
    {
      "inputs": [
        {
          "internalType": "address",
          "name": "_minter",
          "type": "address"
        }
      ],
      "name": "setMinter",
      "outputs": [],
      "stateMutability": "nonpayable",
      "type": "function"
    },
    {
      "inputs": [
        {
          "internalType": "address",
          "name": "_fantosiAdmin",
          "type": "address"
        }
      ],
      "name": "setfantosiAdmin",
      "outputs": [],
      "stateMutability": "nonpayable",
      "type": "function"
    },
    {
      "inputs": [
        {
          "internalType": "bytes4",
          "name": "interfaceId",
          "type": "bytes4"
        }
      ],
      "name": "supportsInterface",
      "outputs": [
        {
          "internalType": "bool",
          "name": "",
          "type": "bool"
        }
      ],
      "stateMutability": "view",
      "type": "function"
    },
    {
      "inputs": [],
      "name": "symbol",
      "outputs": [
        {
          "internalType": "string",
          "name": "",
          "type": "string"
        }
      ],
      "stateMutability": "view",
      "type": "function"
    },
    {
      "inputs": [
        {
          "internalType": "uint256",
          "name": "index",
          "type": "uint256"
        }
      ],
      "name": "tokenByIndex",
      "outputs": [
        {
          "internalType": "uint256",
          "name": "",
          "type": "uint256"
        }
      ],
      "stateMutability": "view",
      "type": "function"
    },
    {
      "inputs": [
        {
          "internalType": "address",
          "name": "owner",
          "type": "address"
        },
        {
          "internalType": "uint256",
          "name": "index",
          "type": "uint256"
        }
      ],
      "name": "tokenOfOwnerByIndex",
      "outputs": [
        {
          "internalType": "uint256",
          "name": "",
          "type": "uint256"
        }
      ],
      "stateMutability": "view",
      "type": "function"
    },
    {
      "inputs": [
        {
          "internalType": "uint256",
          "name": "tokenId",
          "type": "uint256"
        }
      ],
      "name": "tokenURI",
      "outputs": [
        {
          "internalType": "string",
          "name": "",
          "type": "string"
        }
      ],
      "stateMutability": "view",
      "type": "function"
    },
    {
      "inputs": [],
      "name": "totalSupply",
      "outputs": [
        {
          "internalType": "uint256",
          "name": "",
          "type": "uint256"
        }
      ],
      "stateMutability": "view",
      "type": "function"
    },
    {
      "inputs": [
        {
          "internalType": "address",
          "name": "from",
          "type": "address"
        },
        {
          "internalType": "address",
          "name": "to",
          "type": "address"
        },
        {
          "internalType": "uint256",
          "name": "tokenId",
          "type": "uint256"
        }
      ],
      "name": "transferFrom",
      "outputs": [],
      "stateMutability": "nonpayable",
      "type": "function"
    },
    {
      "inputs": [
        {
          "internalType": "address",
          "name": "newOwner",
          "type": "address"
        }
      ],
      "name": "transferOwnership",
      "outputs": [],
      "stateMutability": "nonpayable",
      "type": "function"
    },
    {
      "inputs": [
        {
          "internalType": "address",
          "name": "delegator",
          "type": "address"
        }
      ],
      "name": "votesToDelegate",
      "outputs": [
        {
          "internalType": "uint96",
          "name": "",
          "type": "uint96"
        }
      ],
      "stateMutability": "view",
      "type": "function"
    }
  ],
  "transactionHash": "0x78d1d2c3b8433588cb8a4af380b3f78c3a8a4c165a7d4a034f00e31a101f04a8",
  "args": [
    "0x0934D78959e4b25C7A263aCAe02077b277d57771",
    "0x3A6528E50DB65Ac99555DD45C16a14853Db0F48a",
    "NEWJEANS PHOTOCARD",
    "NEWJEANS",
    "https://jade-deliberate-partridge-706.mypinata.cloud/ipfs/QmZMcGX66GVaMFwHSH6J5m6yb2SdPokXT8p8SakrAg5V8f/"
  ],
  "numDeployments": 1,
  "solcInputHash": "a032dd21cc0a1c3d651dccf638cf77ed",
  "bytecode": "0x60806040523480156200001157600080fd5b5060405162003563380380620035638339810160408190526200003491620002a0565b82826200004133620000c0565b81516200005690600190602085019062000110565b5080516200006c90600290602084019062000110565b5050600f80546001600160a01b038089166001600160a01b0319928316179092556010805492881692909116919091179055508051620000b490601390602084019062000110565b50505050505062000395565b600080546001600160a01b038381166001600160a01b0319831681178455604051919092169283917f8be0079c531659141344cd1fd0a4f28419497f9722a3daafe3b4186f6b6457e09190a35050565b8280546200011e9062000358565b90600052602060002090601f0160209004810192826200014257600085556200018d565b82601f106200015d57805160ff19168380011785556200018d565b828001600101855582156200018d579182015b828111156200018d57825182559160200191906001019062000170565b506200019b9291506200019f565b5090565b5b808211156200019b5760008155600101620001a0565b80516001600160a01b0381168114620001ce57600080fd5b919050565b634e487b7160e01b600052604160045260246000fd5b600082601f830112620001fb57600080fd5b81516001600160401b0380821115620002185762000218620001d3565b604051601f8301601f19908116603f01168101908282118183101715620002435762000243620001d3565b816040528381526020925086838588010111156200026057600080fd5b600091505b8382101562000284578582018301518183018401529082019062000265565b83821115620002965760008385830101525b9695505050505050565b600080600080600060a08688031215620002b957600080fd5b620002c486620001b6565b9450620002d460208701620001b6565b60408701519094506001600160401b0380821115620002f257600080fd5b6200030089838a01620001e9565b945060608801519150808211156200031757600080fd5b6200032589838a01620001e9565b935060808801519150808211156200033c57600080fd5b506200034b88828901620001e9565b9150509295509295909350565b600181811c908216806200036d57607f821691505b602082108114156200038f57634e487b7160e01b600052602260045260246000fd5b50919050565b6131be80620003a56000396000f3fe608060405234801561001057600080fd5b50600436106102745760003560e01c80636fcfff4511610151578063baedc1c4116100c3578063e9580e9111610087578063e9580e91146105b8578063e985e9c5146105cb578063f1127ed814610607578063f2fde38b1461066e578063fca3b5aa14610681578063fe2a17801461069457600080fd5b8063baedc1c414610550578063c3cda52014610563578063c421793214610576578063c87b56dd1461057e578063e7a324dc1461059157600080fd5b80637ecebe00116101155780637ecebe00146104de5780638da5cb5b146104fe57806395d89b411461050f578063a22cb46514610517578063b4b5ea571461052a578063b88d4fde1461053d57600080fd5b80636fcfff451461045557806370a0823114610490578063715018a6146104a357806376daebe1146104ab578063782d6fe1146104b357600080fd5b80632579b08a116101ea57806342966c68116101ae57806342966c68146103e35780634f6ccce7146103f65780635557bf4f14610409578063587cde1e1461041c5780635c19a95c1461042f5780636352211e1461044257600080fd5b80632579b08a1461037d5780632f745c5914610390578063313ce567146103a35780633bb3a24d146103bd57806342842e0e146103d057600080fd5b80631249c58b1161023c5780631249c58b14610309578063150704011461031f57806318160ddd146103275780631e688e101461032f57806320606b701461034357806323b872dd1461036a57600080fd5b806301ffc9a71461027957806306fdde03146102a157806307546172146102b6578063081812fc146102e1578063095ea7b3146102f4575b600080fd5b61028c6102873660046129af565b6106a7565b60405190151581526020015b60405180910390f35b6102a96106d2565b6040516102989190612a24565b6011546102c9906001600160a01b031681565b6040516001600160a01b039091168152602001610298565b6102c96102ef366004612a37565b610764565b610307610302366004612a6c565b6107fe565b005b610311610914565b604051908152602001610298565b6102a96109cf565b6103116109d9565b60115461028c90600160a01b900460ff1681565b6103117f8cad95687ba82c2ce50e74f7b754645e5117c3a5bec8151c0726d5857980a86681565b610307610378366004612a96565b6109e8565b61030761038b366004612ad2565b610a19565b61031161039e366004612a6c565b610ac8565b6103ab600081565b60405160ff9091168152602001610298565b6102a96103cb366004612a37565b610b5e565b6103076103de366004612a96565b610b69565b6103076103f1366004612a37565b610b84565b610311610404366004612a37565b610c10565b6010546102c9906001600160a01b031681565b6102c961042a366004612ad2565b610ca3565b61030761043d366004612ad2565b610cd5565b6102c9610450366004612a37565b610cf3565b61047b610463366004612ad2565b600d6020526000908152604090205463ffffffff1681565b60405163ffffffff9091168152602001610298565b61031161049e366004612ad2565b610d6a565b610307610df1565b610307610e27565b6104c66104c1366004612a6c565b610edc565b6040516001600160601b039091168152602001610298565b6103116104ec366004612ad2565b600e6020526000908152604090205481565b6000546001600160a01b03166102c9565b6102a9611179565b610307610525366004612aed565b611188565b6104c6610538366004612ad2565b61124d565b61030761054b366004612bb5565b6112ca565b61030761055e366004612c31565b611302565b610307610571366004612c7a565b611343565b6102a9611641565b6102a961058c366004612a37565b6116cf565b6103117fe48329057bfd03d55e49b547132e39cffd9c1820ad7b9d4c5307691425d15adf81565b6104c66105c6366004612ad2565b611700565b61028c6105d9366004612cda565b6001600160a01b03918216600090815260066020908152604080832093909416825291909152205460ff1690565b61064a610615366004612d0d565b600c60209081526000928352604080842090915290825290205463ffffffff811690600160201b90046001600160601b031682565b6040805163ffffffff90931683526001600160601b03909116602083015201610298565b61030761067c366004612ad2565b61172c565b61030761068f366004612ad2565b6117c4565b600f546102c9906001600160a01b031681565b60006001600160e01b0319821663780e9d6360e01b14806106cc57506106cc82611889565b92915050565b6060600180546106e190612d42565b80601f016020809104026020016040519081016040528092919081815260200182805461070d90612d42565b801561075a5780601f1061072f5761010080835404028352916020019161075a565b820191906000526020600020905b81548152906001019060200180831161073d57829003601f168201915b5050505050905090565b6000818152600360205260408120546001600160a01b03166107e25760405162461bcd60e51b815260206004820152602c60248201527f4552433732313a20617070726f76656420717565727920666f72206e6f6e657860448201526b34b9ba32b73a103a37b5b2b760a11b60648201526084015b60405180910390fd5b506000908152600560205260409020546001600160a01b031690565b600061080982610cf3565b9050806001600160a01b0316836001600160a01b031614156108775760405162461bcd60e51b815260206004820152602160248201527f4552433732313a20617070726f76616c20746f2063757272656e74206f776e656044820152603960f91b60648201526084016107d9565b336001600160a01b0382161480610893575061089381336105d9565b6109055760405162461bcd60e51b815260206004820152603860248201527f4552433732313a20617070726f76652063616c6c6572206973206e6f74206f7760448201527f6e6572206e6f7220617070726f76656420666f7220616c6c000000000000000060648201526084016107d9565b61090f83836118d9565b505050565b6011546000906001600160a01b0316331461096c5760405162461bcd60e51b815260206004820152601860248201527729b2b73232b91034b9903737ba103a34329036b4b73a32b960411b60448201526064016107d9565b600a60125461097b9190612d93565b6109aa57600f54601280546109a8926001600160a01b031691600061099f83612dbd565b91905055611947565b505b601154601280546109ca926001600160a01b031691600061099f83612dbd565b905090565b60606109ca611179565b60006109e460095490565b5090565b6109f23382611996565b610a0e5760405162461bcd60e51b81526004016107d990612dd8565b61090f838383611a8d565b600f546001600160a01b03163314610a735760405162461bcd60e51b815260206004820152601e60248201527f53656e646572206973206e6f7420746865206e6f756e646572732044414f000060448201526064016107d9565b600f80546001600160a01b0319166001600160a01b0383169081179091556040519081527f3fbee62c50436a29dac237a8cb9ffe8fb25c82a7cbab59715bedce0066303db8906020015b60405180910390a150565b6000610ad383610d6a565b8210610b355760405162461bcd60e51b815260206004820152602b60248201527f455243373231456e756d657261626c653a206f776e657220696e646578206f7560448201526a74206f6620626f756e647360a81b60648201526084016107d9565b506001600160a01b03919091166000908152600760209081526040808320938352929052205490565b60606106cc826116cf565b61090f838383604051806020016040528060008152506112ca565b6011546001600160a01b03163314610bd95760405162461bcd60e51b815260206004820152601860248201527729b2b73232b91034b9903737ba103a34329036b4b73a32b960411b60448201526064016107d9565b610be281611c26565b60405181907fbb365157d2fb1bcc5f3d5c677b8080719931dd824a5a8b11f6b85a647ee4fc2190600090a250565b6000610c1b60095490565b8210610c7e5760405162461bcd60e51b815260206004820152602c60248201527f455243373231456e756d657261626c653a20676c6f62616c20696e646578206f60448201526b7574206f6620626f756e647360a01b60648201526084016107d9565b60098281548110610c9157610c91612e29565b90600052602060002001549050919050565b6001600160a01b038082166000908152600b60205260408120549091168015610ccc5780610cce565b825b9392505050565b6001600160a01b038116610ce65750335b610cf03382611cbb565b50565b6000818152600360205260408120546001600160a01b0316806106cc5760405162461bcd60e51b815260206004820152602960248201527f4552433732313a206f776e657220717565727920666f72206e6f6e657869737460448201526832b73a103a37b5b2b760b91b60648201526084016107d9565b60006001600160a01b038216610dd55760405162461bcd60e51b815260206004820152602a60248201527f4552433732313a2062616c616e636520717565727920666f7220746865207a65604482015269726f206164647265737360b01b60648201526084016107d9565b506001600160a01b031660009081526004602052604090205490565b6000546001600160a01b03163314610e1b5760405162461bcd60e51b81526004016107d990612e3f565b610e256000611d3b565b565b6000546001600160a01b03163314610e515760405162461bcd60e51b81526004016107d990612e3f565b601154600160a01b900460ff1615610e9e5760405162461bcd60e51b815260206004820152601060248201526f135a5b9d195c881a5cc81b1bd8dad95960821b60448201526064016107d9565b6011805460ff60a01b1916600160a01b1790556040517f192417b3f16b1ce69e0c59b0376549666650245ffc05e4b2569089dda8589b6690600090a1565b6000438210610f535760405162461bcd60e51b815260206004820152603760248201527f455243373231436865636b706f696e7461626c653a3a6765745072696f72566f60448201527f7465733a206e6f74207965742064657465726d696e656400000000000000000060648201526084016107d9565b6001600160a01b0383166000908152600d602052604090205463ffffffff1680610f815760009150506106cc565b6001600160a01b0384166000908152600c602052604081208491610fa6600185612e74565b63ffffffff90811682526020820192909252604001600020541611611019576001600160a01b0384166000908152600c6020526040812090610fe9600184612e74565b63ffffffff168152602081019190915260400160002054600160201b90046001600160601b031691506106cc9050565b6001600160a01b0384166000908152600c6020908152604080832083805290915290205463ffffffff168310156110545760009150506106cc565b600080611062600184612e74565b90505b8163ffffffff168163ffffffff16111561113457600060026110878484612e74565b6110919190612e99565b61109b9083612e74565b6001600160a01b0388166000908152600c6020908152604080832063ffffffff858116855290835292819020815180830190925254928316808252600160201b9093046001600160601b031691810191909152919250871415611108576020015194506106cc9350505050565b805163ffffffff1687111561111f5781935061112d565b61112a600183612e74565b92505b5050611065565b506001600160a01b0385166000908152600c6020908152604080832063ffffffff909416835292905220546001600160601b03600160201b9091041691505092915050565b6060600280546106e190612d42565b6001600160a01b0382163314156111e15760405162461bcd60e51b815260206004820152601960248201527f4552433732313a20617070726f766520746f2063616c6c65720000000000000060448201526064016107d9565b3360008181526006602090815260408083206001600160a01b03871680855290835292819020805460ff191686151590811790915590519081529192917f17307eab39ab6107e8899845ad3d59bd9653f200f220920489ca2b5937696c31910160405180910390a35050565b6001600160a01b0381166000908152600d602052604081205463ffffffff1680611278576000610cce565b6001600160a01b0383166000908152600c602052604081209061129c600184612e74565b63ffffffff168152602081019190915260400160002054600160201b90046001600160601b03169392505050565b6112d43383611996565b6112f05760405162461bcd60e51b81526004016107d990612dd8565b6112fc84848484611d8b565b50505050565b6000546001600160a01b0316331461132c5760405162461bcd60e51b81526004016107d990612e3f565b805161133f906013906020840190612909565b5050565b60007f8cad95687ba82c2ce50e74f7b754645e5117c3a5bec8151c0726d5857980a86661136e6106d2565b8051906020012061137c4690565b60408051602080820195909552808201939093526060830191909152306080808401919091528151808403909101815260a0830182528051908401207fe48329057bfd03d55e49b547132e39cffd9c1820ad7b9d4c5307691425d15adf60c08401526001600160a01b038b1660e084015261010083018a90526101208084018a90528251808503909101815261014084019092528151919093012061190160f01b610160830152610162820183905261018282018190529192506000906101a20160408051601f198184030181528282528051602091820120600080855291840180845281905260ff8a169284019290925260608301889052608083018790529092509060019060a0016020604051602081039080840390855afa1580156114a8573d6000803e3d6000fd5b5050604051601f1901519150506001600160a01b03811661152a5760405162461bcd60e51b815260206004820152603660248201527f455243373231436865636b706f696e7461626c653a3a64656c656761746542796044820152755369673a20696e76616c6964207369676e617475726560501b60648201526084016107d9565b6001600160a01b0381166000908152600e6020526040812080549161154e83612dbd565b9190505589146115bb5760405162461bcd60e51b815260206004820152603260248201527f455243373231436865636b706f696e7461626c653a3a64656c656761746542796044820152715369673a20696e76616c6964206e6f6e636560701b60648201526084016107d9565b8742111561162a5760405162461bcd60e51b815260206004820152603660248201527f455243373231436865636b706f696e7461626c653a3a64656c6567617465427960448201527514da59ce881cda59db985d1d5c9948195e1c1a5c995960521b60648201526084016107d9565b611634818b611cbb565b505050505b505050505050565b6013805461164e90612d42565b80601f016020809104026020016040519081016040528092919081815260200182805461167a90612d42565b80156116c75780601f1061169c576101008083540402835291602001916116c7565b820191906000526020600020905b8154815290600101906020018083116116aa57829003601f168201915b505050505081565b60606116da82611dbe565b6040516020016116ea9190612ebc565b6040516020818303038152906040529050919050565b60006106cc61170e83610d6a565b6040518060600160405280603d8152602001613115603d9139611e98565b6000546001600160a01b031633146117565760405162461bcd60e51b81526004016107d990612e3f565b6001600160a01b0381166117bb5760405162461bcd60e51b815260206004820152602660248201527f4f776e61626c653a206e6577206f776e657220697320746865207a65726f206160448201526564647265737360d01b60648201526084016107d9565b610cf081611d3b565b6000546001600160a01b031633146117ee5760405162461bcd60e51b81526004016107d990612e3f565b601154600160a01b900460ff161561183b5760405162461bcd60e51b815260206004820152601060248201526f135a5b9d195c881a5cc81b1bd8dad95960821b60448201526064016107d9565b601180546001600160a01b0319166001600160a01b0383169081179091556040519081527fad0f299ec81a386c98df0ac27dae11dd020ed1b56963c53a7292e7a3a314539a90602001610abd565b60006001600160e01b031982166380ac58cd60e01b14806118ba57506001600160e01b03198216635b5e139f60e01b145b806106cc57506301ffc9a760e01b6001600160e01b03198316146106cc565b600081815260056020526040902080546001600160a01b0319166001600160a01b038416908117909155819061190e82610cf3565b6001600160a01b03167f8c5be1e5ebec7d5bd14f71427d1e84f3dd0314c0f7b2291e5b200ac8c7c3b92560405160405180910390a45050565b600061196561195e6000546001600160a01b031690565b8484611ec7565b60405182907f3362e10f013cb5aa8f3927673ce91b1542a5b67dcd9a42f4af38a2728660b7d890600090a250919050565b6000818152600360205260408120546001600160a01b0316611a0f5760405162461bcd60e51b815260206004820152602c60248201527f4552433732313a206f70657261746f7220717565727920666f72206e6f6e657860448201526b34b9ba32b73a103a37b5b2b760a11b60648201526084016107d9565b6000611a1a83610cf3565b9050806001600160a01b0316846001600160a01b03161480611a555750836001600160a01b0316611a4a84610764565b6001600160a01b0316145b80611a8557506001600160a01b0380821660009081526006602090815260408083209388168352929052205460ff165b949350505050565b826001600160a01b0316611aa082610cf3565b6001600160a01b031614611b085760405162461bcd60e51b815260206004820152602960248201527f4552433732313a207472616e73666572206f6620746f6b656e2074686174206960448201526839903737ba1037bbb760b91b60648201526084016107d9565b6001600160a01b038216611b6a5760405162461bcd60e51b8152602060048201526024808201527f4552433732313a207472616e7366657220746f20746865207a65726f206164646044820152637265737360e01b60648201526084016107d9565b611b75838383612039565b611b806000826118d9565b6001600160a01b0383166000908152600460205260408120805460019290611ba9908490612ee5565b90915550506001600160a01b0382166000908152600460205260408120805460019290611bd7908490612efc565b909155505060008181526003602052604080822080546001600160a01b0319166001600160a01b0386811691821790925591518493918716916000805160206130f583398151915291a4505050565b6000611c3182610cf3565b9050611c3f81600084612039565b611c4a6000836118d9565b6001600160a01b0381166000908152600460205260408120805460019290611c73908490612ee5565b909155505060008281526003602052604080822080546001600160a01b0319169055518391906001600160a01b038416906000805160206130f5833981519152908390a45050565b6000611cc683610ca3565b6001600160a01b038481166000818152600b602052604080822080546001600160a01b031916888616908117909155905194955093928516927f3134e8a2e6d97e929a7e54011ea5485d7d196dd5f0ba4d4ef95803e8e3fc257f9190a46000611d2e84611700565b90506112fc82848361205c565b600080546001600160a01b038381166001600160a01b0319831681178455604051919092169283917f8be0079c531659141344cd1fd0a4f28419497f9722a3daafe3b4186f6b6457e09190a35050565b611d96848484611a8d565b611da284848484612208565b6112fc5760405162461bcd60e51b81526004016107d990612f14565b6000818152600360205260409020546060906001600160a01b0316611e3d5760405162461bcd60e51b815260206004820152602f60248201527f4552433732314d657461646174613a2055524920717565727920666f72206e6f60448201526e3732bc34b9ba32b73a103a37b5b2b760891b60648201526084016107d9565b6000611e47612306565b90506000815111611e675760405180602001604052806000815250610cce565b80611e7184612315565b604051602001611e82929190612f66565b6040516020818303038152906040529392505050565b600081600160601b8410611ebf5760405162461bcd60e51b81526004016107d99190612a24565b509192915050565b6001600160a01b038216611f1d5760405162461bcd60e51b815260206004820181905260248201527f4552433732313a206d696e7420746f20746865207a65726f206164647265737360448201526064016107d9565b6000818152600360205260409020546001600160a01b031615611f825760405162461bcd60e51b815260206004820152601c60248201527f4552433732313a20746f6b656e20616c7265616479206d696e7465640000000060448201526064016107d9565b611f8e60008383612039565b6001600160a01b0382166000908152600460205260408120805460019290611fb7908490612efc565b909155505060008181526003602052604080822080546001600160a01b0319166001600160a01b03868116919091179091559051839291861691906000805160206130f5833981519152908290a480826001600160a01b0316846001600160a01b03166000805160206130f583398151915260405160405180910390a4505050565b612044838383612413565b61090f61205084610ca3565b61205984610ca3565b60015b816001600160a01b0316836001600160a01b03161415801561208757506000816001600160601b0316115b1561090f576001600160a01b0383161561214c576001600160a01b0383166000908152600d602052604081205463ffffffff1690816120c7576000612113565b6001600160a01b0385166000908152600c60205260408120906120eb600185612e74565b63ffffffff168152602081019190915260400160002054600160201b90046001600160601b03165b9050600061213a8285604051806060016040528060378152602001613152603791396124cb565b90506121488684848461250d565b5050505b6001600160a01b0382161561090f576001600160a01b0382166000908152600d602052604081205463ffffffff1690816121875760006121d3565b6001600160a01b0384166000908152600c60205260408120906121ab600185612e74565b63ffffffff168152602081019190915260400160002054600160201b90046001600160601b03165b905060006121fa828560405180606001604052806036815260200161307b60369139612705565b90506116398584848461250d565b60006001600160a01b0384163b156122fb57604051630a85bd0160e11b81526001600160a01b0385169063150b7a029061224c903390899088908890600401612f95565b6020604051808303816000875af1925050508015612287575060408051601f3d908101601f1916820190925261228491810190612fd2565b60015b6122e1573d8080156122b5576040519150601f19603f3d011682016040523d82523d6000602084013e6122ba565b606091505b5080516122d95760405162461bcd60e51b81526004016107d990612f14565b805181602001fd5b6001600160e01b031916630a85bd0160e11b149050611a85565b506001949350505050565b6060601380546106e190612d42565b6060816123395750506040805180820190915260018152600360fc1b602082015290565b8160005b8115612363578061234d81612dbd565b915061235c9050600a83612fef565b915061233d565b60008167ffffffffffffffff81111561237e5761237e612b29565b6040519080825280601f01601f1916602001820160405280156123a8576020820181803683370190505b5090505b8415611a85576123bd600183612ee5565b91506123ca600a86612d93565b6123d5906030612efc565b60f81b8183815181106123ea576123ea612e29565b60200101906001600160f81b031916908160001a90535061240c600a86612fef565b94506123ac565b6001600160a01b03831661246e5761246981600980546000838152600a60205260408120829055600182018355919091527f6e1540171b6c0c960b71a7020d9f60077f6af931a8bbf590da0223dacf75c7af0155565b612491565b816001600160a01b0316836001600160a01b031614612491576124918382612752565b6001600160a01b0382166124a85761090f816127ef565b826001600160a01b0316826001600160a01b03161461090f5761090f828261289e565b6000836001600160601b0316836001600160601b0316111582906125025760405162461bcd60e51b81526004016107d99190612a24565b50611a858385613003565b6000612531436040518060800160405280604481526020016130b1604491396128e2565b905060008463ffffffff1611801561258b57506001600160a01b0385166000908152600c6020526040812063ffffffff83169161256f600188612e74565b63ffffffff908116825260208201929092526040016000205416145b156125ff576001600160a01b0385166000908152600c6020526040812083916125b5600188612e74565b63ffffffff168152602081019190915260400160002080546001600160601b0392909216600160201b026fffffffffffffffffffffffff00000000199092169190911790556126b0565b60408051808201825263ffffffff80841682526001600160601b0380861660208085019182526001600160a01b038b166000908152600c82528681208b8616825290915294909420925183549451909116600160201b026fffffffffffffffffffffffffffffffff1990941691161791909117905561267f846001613023565b6001600160a01b0386166000908152600d60205260409020805463ffffffff191663ffffffff929092169190911790555b604080516001600160601b038086168252841660208201526001600160a01b038716917fdec2bacdd2f05b59de34da9b523dff8be42e5e38e818c82fdb0bae774387a724910160405180910390a25050505050565b6000806127128486613042565b9050846001600160601b0316816001600160601b0316101583906127495760405162461bcd60e51b81526004016107d99190612a24565b50949350505050565b6000600161275f84610d6a565b6127699190612ee5565b6000838152600860205260409020549091508082146127bc576001600160a01b03841660009081526007602090815260408083208584528252808320548484528184208190558352600890915290208190555b5060009182526008602090815260408084208490556001600160a01b039094168352600781528383209183525290812055565b60095460009061280190600190612ee5565b6000838152600a60205260408120546009805493945090928490811061282957612829612e29565b90600052602060002001549050806009838154811061284a5761284a612e29565b6000918252602080832090910192909255828152600a9091526040808220849055858252812055600980548061288257612882613064565b6001900381819060005260206000200160009055905550505050565b60006128a983610d6a565b6001600160a01b039093166000908152600760209081526040808320868452825280832085905593825260089052919091209190915550565b600081600160201b8410611ebf5760405162461bcd60e51b81526004016107d99190612a24565b82805461291590612d42565b90600052602060002090601f016020900481019282612937576000855561297d565b82601f1061295057805160ff191683800117855561297d565b8280016001018555821561297d579182015b8281111561297d578251825591602001919060010190612962565b506109e49291505b808211156109e45760008155600101612985565b6001600160e01b031981168114610cf057600080fd5b6000602082840312156129c157600080fd5b8135610cce81612999565b60005b838110156129e75781810151838201526020016129cf565b838111156112fc5750506000910152565b60008151808452612a108160208601602086016129cc565b601f01601f19169290920160200192915050565b602081526000610cce60208301846129f8565b600060208284031215612a4957600080fd5b5035919050565b80356001600160a01b0381168114612a6757600080fd5b919050565b60008060408385031215612a7f57600080fd5b612a8883612a50565b946020939093013593505050565b600080600060608486031215612aab57600080fd5b612ab484612a50565b9250612ac260208501612a50565b9150604084013590509250925092565b600060208284031215612ae457600080fd5b610cce82612a50565b60008060408385031215612b0057600080fd5b612b0983612a50565b915060208301358015158114612b1e57600080fd5b809150509250929050565b634e487b7160e01b600052604160045260246000fd5b600067ffffffffffffffff80841115612b5a57612b5a612b29565b604051601f8501601f19908116603f01168101908282118183101715612b8257612b82612b29565b81604052809350858152868686011115612b9b57600080fd5b858560208301376000602087830101525050509392505050565b60008060008060808587031215612bcb57600080fd5b612bd485612a50565b9350612be260208601612a50565b925060408501359150606085013567ffffffffffffffff811115612c0557600080fd5b8501601f81018713612c1657600080fd5b612c2587823560208401612b3f565b91505092959194509250565b600060208284031215612c4357600080fd5b813567ffffffffffffffff811115612c5a57600080fd5b8201601f81018413612c6b57600080fd5b611a8584823560208401612b3f565b60008060008060008060c08789031215612c9357600080fd5b612c9c87612a50565b95506020870135945060408701359350606087013560ff81168114612cc057600080fd5b9598949750929560808101359460a0909101359350915050565b60008060408385031215612ced57600080fd5b612cf683612a50565b9150612d0460208401612a50565b90509250929050565b60008060408385031215612d2057600080fd5b612d2983612a50565b9150602083013563ffffffff81168114612b1e57600080fd5b600181811c90821680612d5657607f821691505b60208210811415612d7757634e487b7160e01b600052602260045260246000fd5b50919050565b634e487b7160e01b600052601260045260246000fd5b600082612da257612da2612d7d565b500690565b634e487b7160e01b600052601160045260246000fd5b6000600019821415612dd157612dd1612da7565b5060010190565b60208082526031908201527f4552433732313a207472616e736665722063616c6c6572206973206e6f74206f6040820152701ddb995c881b9bdc88185c1c1c9bdd9959607a1b606082015260800190565b634e487b7160e01b600052603260045260246000fd5b6020808252818101527f4f776e61626c653a2063616c6c6572206973206e6f7420746865206f776e6572604082015260600190565b600063ffffffff83811690831681811015612e9157612e91612da7565b039392505050565b600063ffffffff80841680612eb057612eb0612d7d565b92169190910492915050565b60008251612ece8184602087016129cc565b64173539b7b760d91b920191825250600501919050565b600082821015612ef757612ef7612da7565b500390565b60008219821115612f0f57612f0f612da7565b500190565b60208082526032908201527f4552433732313a207472616e7366657220746f206e6f6e20455243373231526560408201527131b2b4bb32b91034b6b83632b6b2b73a32b960711b606082015260800190565b60008351612f788184602088016129cc565b835190830190612f8c8183602088016129cc565b01949350505050565b6001600160a01b0385811682528416602082015260408101839052608060608201819052600090612fc8908301846129f8565b9695505050505050565b600060208284031215612fe457600080fd5b8151610cce81612999565b600082612ffe57612ffe612d7d565b500490565b60006001600160601b0383811690831681811015612e9157612e91612da7565b600063ffffffff808316818516808303821115612f8c57612f8c612da7565b60006001600160601b03808316818516808303821115612f8c57612f8c612da7565b634e487b7160e01b600052603160045260246000fdfe455243373231436865636b706f696e7461626c653a3a5f6d6f766544656c6567617465733a20616d6f756e74206f766572666c6f7773455243373231436865636b706f696e7461626c653a3a5f7772697465436865636b706f696e743a20626c6f636b206e756d62657220657863656564732033322062697473ddf252ad1be2c89b69c2b068fc378daa952ba7f163c4a11628f55a4df523b3ef455243373231436865636b706f696e7461626c653a3a766f746573546f44656c65676174653a20616d6f756e7420657863656564732039362062697473455243373231436865636b706f696e7461626c653a3a5f6d6f766544656c6567617465733a20616d6f756e7420756e646572666c6f7773a264697066735822122072bbe13f8fcba4d3762e71e8c8b29e377fdadf058b154298bc3f2cccadce77e964736f6c634300080b0033",
  "devdoc": {
    "kind": "dev",
    "methods": {
      "approve(address,uint256)": {
        "details": "See {IERC721-approve}."
      },
      "balanceOf(address)": {
        "details": "See {IERC721-balanceOf}."
      },
      "delegate(address)": {
        "params": {
          "delegatee": "The address to delegate votes to"
        }
      },
      "delegateBySig(address,uint256,uint256,uint8,bytes32,bytes32)": {
        "params": {
          "delegatee": "The address to delegate votes to",
          "expiry": "The time at which to expire the signature",
          "nonce": "The contract state required to match the signature",
          "r": "Half of the ECDSA signature pair",
          "s": "Half of the ECDSA signature pair",
          "v": "The recovery byte of the signature"
        }
      },
      "getApproved(uint256)": {
        "details": "See {IERC721-getApproved}."
      },
      "getCurrentVotes(address)": {
        "params": {
          "account": "The address to get votes balance"
        },
        "returns": {
          "_0": "The number of current votes for `account`"
        }
      },
      "getPriorVotes(address,uint256)": {
        "details": "Block number must be a finalized block or else this function will revert to prevent misinformation.",
        "params": {
          "account": "The address of the account to check",
          "blockNumber": "The block number to get the vote balance at"
        },
        "returns": {
          "_0": "The number of votes the account had as of the given block"
        }
      },
      "isApprovedForAll(address,address)": {
        "details": "See {IERC721-isApprovedForAll}."
      },
      "name()": {
        "details": "See {IERC721Metadata-name}."
      },
      "owner()": {
        "details": "Returns the address of the current owner."
      },
      "ownerOf(uint256)": {
        "details": "See {IERC721-ownerOf}."
      },
      "renounceOwnership()": {
        "details": "Leaves the contract without owner. It will not be possible to call `onlyOwner` functions anymore. Can only be called by the current owner. NOTE: Renouncing ownership will leave the contract without an owner, thereby removing any functionality that is only available to the owner."
      },
      "safeTransferFrom(address,address,uint256)": {
        "details": "See {IERC721-safeTransferFrom}."
      },
      "safeTransferFrom(address,address,uint256,bytes)": {
        "details": "See {IERC721-safeTransferFrom}."
      },
      "setApprovalForAll(address,bool)": {
        "details": "See {IERC721-setApprovalForAll}."
      },
      "supportsInterface(bytes4)": {
        "details": "See {IERC165-supportsInterface}."
      },
      "symbol()": {
        "details": "See {IERC721Metadata-symbol}."
      },
      "tokenByIndex(uint256)": {
        "details": "See {IERC721Enumerable-tokenByIndex}."
      },
      "tokenOfOwnerByIndex(address,uint256)": {
        "details": "See {IERC721Enumerable-tokenOfOwnerByIndex}."
      },
      "tokenURI(uint256)": {
        "details": "See {IERC721Metadata-tokenURI}."
      },
      "totalSupply()": {
        "details": "See {IERC721Enumerable-totalSupply}."
      },
      "transferFrom(address,address,uint256)": {
        "details": "See {IERC721-transferFrom}."
      },
      "transferOwnership(address)": {
        "details": "Transfers ownership of the contract to a new account (`newOwner`). Can only be called by the current owner."
      },
      "votesToDelegate(address)": {
        "details": "Used when calling `_delegate()`"
      }
    },
    "version": 1
  },
  "userdoc": {
    "events": {
      "DelegateChanged(address,address,address)": {
        "notice": "An event thats emitted when an account changes its delegate"
      },
      "DelegateVotesChanged(address,uint256,uint256)": {
        "notice": "An event thats emitted when a delegate account's vote balance changes"
      }
    },
    "kind": "user",
    "methods": {
      "DELEGATION_TYPEHASH()": {
        "notice": "The EIP-712 typehash for the delegation struct used by the contract"
      },
      "DOMAIN_TYPEHASH()": {
        "notice": "The EIP-712 typehash for the contract's domain"
      },
      "checkpoints(address,uint32)": {
        "notice": "A record of votes checkpoints for each account, by index"
      },
      "decimals()": {
        "notice": "Defines decimals as per ERC-20 convention to make integrations with 3rd party governance platforms easier"
      },
      "delegate(address)": {
        "notice": "Delegate votes from `msg.sender` to `delegatee`"
      },
      "delegateBySig(address,uint256,uint256,uint8,bytes32,bytes32)": {
        "notice": "Delegates votes from signatory to `delegatee`"
      },
      "delegates(address)": {
        "notice": "Overrides the standard `Comp.sol` delegates mapping to return the delegator's own address if they haven't delegated. This avoids having to delegate to oneself."
      },
      "getCurrentVotes(address)": {
        "notice": "Gets the current votes balance for `account`"
      },
      "getPriorVotes(address,uint256)": {
        "notice": "Determine the prior number of votes for an account as of a block number"
      },
      "nonces(address)": {
        "notice": "A record of states for signing / validating signatures"
      },
      "numCheckpoints(address)": {
        "notice": "The number of checkpoints for each account"
      },
      "votesToDelegate(address)": {
        "notice": "The votes a delegator can delegate, which is the current balance of the delegator."
      }
    },
    "version": 1
  },
  "storageLayout": {
    "storage": [
      {
        "astId": 629,
        "contract": "src/FantosiToken.sol:FantosiToken",
        "label": "_owner",
        "offset": 0,
        "slot": "0",
        "type": "t_address"
      },
      {
        "astId": 11902,
        "contract": "src/FantosiToken.sol:FantosiToken",
        "label": "_name",
        "offset": 0,
        "slot": "1",
        "type": "t_string_storage"
      },
      {
        "astId": 11904,
        "contract": "src/FantosiToken.sol:FantosiToken",
        "label": "_symbol",
        "offset": 0,
        "slot": "2",
        "type": "t_string_storage"
      },
      {
        "astId": 11908,
        "contract": "src/FantosiToken.sol:FantosiToken",
        "label": "_owners",
        "offset": 0,
        "slot": "3",
        "type": "t_mapping(t_uint256,t_address)"
      },
      {
        "astId": 11912,
        "contract": "src/FantosiToken.sol:FantosiToken",
        "label": "_balances",
        "offset": 0,
        "slot": "4",
        "type": "t_mapping(t_address,t_uint256)"
      },
      {
        "astId": 11916,
        "contract": "src/FantosiToken.sol:FantosiToken",
        "label": "_tokenApprovals",
        "offset": 0,
        "slot": "5",
        "type": "t_mapping(t_uint256,t_address)"
      },
      {
        "astId": 11922,
        "contract": "src/FantosiToken.sol:FantosiToken",
        "label": "_operatorApprovals",
        "offset": 0,
        "slot": "6",
        "type": "t_mapping(t_address,t_mapping(t_address,t_bool))"
      },
      {
        "astId": 13484,
        "contract": "src/FantosiToken.sol:FantosiToken",
        "label": "_ownedTokens",
        "offset": 0,
        "slot": "7",
        "type": "t_mapping(t_address,t_mapping(t_uint256,t_uint256))"
      },
      {
        "astId": 13488,
        "contract": "src/FantosiToken.sol:FantosiToken",
        "label": "_ownedTokensIndex",
        "offset": 0,
        "slot": "8",
        "type": "t_mapping(t_uint256,t_uint256)"
      },
      {
        "astId": 13491,
        "contract": "src/FantosiToken.sol:FantosiToken",
        "label": "_allTokens",
        "offset": 0,
        "slot": "9",
        "type": "t_array(t_uint256)dyn_storage"
      },
      {
        "astId": 13495,
        "contract": "src/FantosiToken.sol:FantosiToken",
        "label": "_allTokensIndex",
        "offset": 0,
        "slot": "10",
        "type": "t_mapping(t_uint256,t_uint256)"
      },
      {
        "astId": 12722,
        "contract": "src/FantosiToken.sol:FantosiToken",
        "label": "_delegates",
        "offset": 0,
        "slot": "11",
        "type": "t_mapping(t_address,t_address)"
      },
      {
        "astId": 12735,
        "contract": "src/FantosiToken.sol:FantosiToken",
        "label": "checkpoints",
        "offset": 0,
        "slot": "12",
        "type": "t_mapping(t_address,t_mapping(t_uint32,t_struct(Checkpoint)12727_storage))"
      },
      {
        "astId": 12740,
        "contract": "src/FantosiToken.sol:FantosiToken",
        "label": "numCheckpoints",
        "offset": 0,
        "slot": "13",
        "type": "t_mapping(t_address,t_uint32)"
      },
      {
        "astId": 12757,
        "contract": "src/FantosiToken.sol:FantosiToken",
        "label": "nonces",
        "offset": 0,
        "slot": "14",
        "type": "t_mapping(t_address,t_uint256)"
      },
      {
        "astId": 11130,
        "contract": "src/FantosiToken.sol:FantosiToken",
        "label": "fantosiAdmin",
        "offset": 0,
        "slot": "15",
        "type": "t_address"
      },
      {
        "astId": 11132,
        "contract": "src/FantosiToken.sol:FantosiToken",
        "label": "fantosiArtist",
        "offset": 0,
        "slot": "16",
        "type": "t_address"
      },
      {
        "astId": 11134,
        "contract": "src/FantosiToken.sol:FantosiToken",
        "label": "minter",
        "offset": 0,
        "slot": "17",
        "type": "t_address"
      },
      {
        "astId": 11136,
        "contract": "src/FantosiToken.sol:FantosiToken",
        "label": "isMinterLocked",
        "offset": 20,
        "slot": "17",
        "type": "t_bool"
      },
      {
        "astId": 11138,
        "contract": "src/FantosiToken.sol:FantosiToken",
        "label": "_currentPhotoCardId",
        "offset": 0,
        "slot": "18",
        "type": "t_uint256"
      },
      {
        "astId": 11140,
        "contract": "src/FantosiToken.sol:FantosiToken",
        "label": "contractURIHash",
        "offset": 0,
        "slot": "19",
        "type": "t_string_storage"
      }
    ],
    "types": {
      "t_address": {
        "encoding": "inplace",
        "label": "address",
        "numberOfBytes": "20"
      },
      "t_array(t_uint256)dyn_storage": {
        "base": "t_uint256",
        "encoding": "dynamic_array",
        "label": "uint256[]",
        "numberOfBytes": "32"
      },
      "t_bool": {
        "encoding": "inplace",
        "label": "bool",
        "numberOfBytes": "1"
      },
      "t_mapping(t_address,t_address)": {
        "encoding": "mapping",
        "key": "t_address",
        "label": "mapping(address => address)",
        "numberOfBytes": "32",
        "value": "t_address"
      },
      "t_mapping(t_address,t_bool)": {
        "encoding": "mapping",
        "key": "t_address",
        "label": "mapping(address => bool)",
        "numberOfBytes": "32",
        "value": "t_bool"
      },
      "t_mapping(t_address,t_mapping(t_address,t_bool))": {
        "encoding": "mapping",
        "key": "t_address",
        "label": "mapping(address => mapping(address => bool))",
        "numberOfBytes": "32",
        "value": "t_mapping(t_address,t_bool)"
      },
      "t_mapping(t_address,t_mapping(t_uint256,t_uint256))": {
        "encoding": "mapping",
        "key": "t_address",
        "label": "mapping(address => mapping(uint256 => uint256))",
        "numberOfBytes": "32",
        "value": "t_mapping(t_uint256,t_uint256)"
      },
      "t_mapping(t_address,t_mapping(t_uint32,t_struct(Checkpoint)12727_storage))": {
        "encoding": "mapping",
        "key": "t_address",
        "label": "mapping(address => mapping(uint32 => struct ERC721Checkpointable.Checkpoint))",
        "numberOfBytes": "32",
        "value": "t_mapping(t_uint32,t_struct(Checkpoint)12727_storage)"
      },
      "t_mapping(t_address,t_uint256)": {
        "encoding": "mapping",
        "key": "t_address",
        "label": "mapping(address => uint256)",
        "numberOfBytes": "32",
        "value": "t_uint256"
      },
      "t_mapping(t_address,t_uint32)": {
        "encoding": "mapping",
        "key": "t_address",
        "label": "mapping(address => uint32)",
        "numberOfBytes": "32",
        "value": "t_uint32"
      },
      "t_mapping(t_uint256,t_address)": {
        "encoding": "mapping",
        "key": "t_uint256",
        "label": "mapping(uint256 => address)",
        "numberOfBytes": "32",
        "value": "t_address"
      },
      "t_mapping(t_uint256,t_uint256)": {
        "encoding": "mapping",
        "key": "t_uint256",
        "label": "mapping(uint256 => uint256)",
        "numberOfBytes": "32",
        "value": "t_uint256"
      },
      "t_mapping(t_uint32,t_struct(Checkpoint)12727_storage)": {
        "encoding": "mapping",
        "key": "t_uint32",
        "label": "mapping(uint32 => struct ERC721Checkpointable.Checkpoint)",
        "numberOfBytes": "32",
        "value": "t_struct(Checkpoint)12727_storage"
      },
      "t_string_storage": {
        "encoding": "bytes",
        "label": "string",
        "numberOfBytes": "32"
      },
      "t_struct(Checkpoint)12727_storage": {
        "encoding": "inplace",
        "label": "struct ERC721Checkpointable.Checkpoint",
        "members": [
          {
            "astId": 12724,
            "contract": "src/FantosiToken.sol:FantosiToken",
            "label": "fromBlock",
            "offset": 0,
            "slot": "0",
            "type": "t_uint32"
          },
          {
            "astId": 12726,
            "contract": "src/FantosiToken.sol:FantosiToken",
            "label": "votes",
            "offset": 4,
            "slot": "0",
            "type": "t_uint96"
          }
        ],
        "numberOfBytes": "32"
      },
      "t_uint256": {
        "encoding": "inplace",
        "label": "uint256",
        "numberOfBytes": "32"
      },
      "t_uint32": {
        "encoding": "inplace",
        "label": "uint32",
        "numberOfBytes": "4"
      },
      "t_uint96": {
        "encoding": "inplace",
        "label": "uint96",
        "numberOfBytes": "12"
      }
    }
  }
}