{
  "address": "0x1BF408069F903FcFe672Fc3290996b311F38F66f",
  "abi": [
    {
      "anonymous": false,
      "inputs": [
        {
          "indexed": false,
          "internalType": "uint8",
          "name": "version",
          "type": "uint8"
        }
      ],
      "name": "Initialized",
      "type": "event"
    },
    {
      "inputs": [
        {
          "internalType": "uint256",
          "name": "",
          "type": "uint256"
        }
      ],
      "name": "artists",
      "outputs": [
        {
          "internalType": "string",
          "name": "",
          "type": "string"
        }
      ],
      "stateMutability": "view",
      "type": "function"
    },
    {
      "inputs": [
        {
          "internalType": "contract IFantosiToken",
          "name": "",
          "type": "address"
        }
      ],
      "name": "auctionMap",
      "outputs": [
        {
          "internalType": "contract IFantosiAuctionHouse",
          "name": "",
          "type": "address"
        }
      ],
      "stateMutability": "view",
      "type": "function"
    },
    {
      "inputs": [
        {
          "internalType": "string",
          "name": "",
          "type": "string"
        }
      ],
      "name": "fantosiDAOLogicList",
      "outputs": [
        {
          "internalType": "contract IFantosiDAOLogic",
          "name": "",
          "type": "address"
        }
      ],
      "stateMutability": "view",
      "type": "function"
    },
    {
      "inputs": [
        {
          "internalType": "string",
          "name": "",
          "type": "string"
        }
      ],
      "name": "fantosiTokenList",
      "outputs": [
        {
          "internalType": "contract IFantosiToken",
          "name": "",
          "type": "address"
        }
      ],
      "stateMutability": "view",
      "type": "function"
    },
    {
      "inputs": [
        {
          "internalType": "uint256",
          "name": "",
          "type": "uint256"
        }
      ],
      "name": "fantosiTokens",
      "outputs": [
        {
          "internalType": "contract IFantosiToken",
          "name": "",
          "type": "address"
        }
      ],
      "stateMutability": "view",
      "type": "function"
    },
    {
      "inputs": [],
      "name": "getAllArtistInfo",
      "outputs": [
        {
          "components": [
            {
              "internalType": "string",
              "name": "artistKey",
              "type": "string"
            },
            {
              "internalType": "contract IFantosiToken",
              "name": "fantosiTokenAddr",
              "type": "address"
            },
            {
              "internalType": "contract IFantosiAuctionHouse",
              "name": "auctionHouseAddr",
              "type": "address"
            }
          ],
          "internalType": "struct FantosiView.Artist[]",
          "name": "artistsInfo",
          "type": "tuple[]"
        }
      ],
      "stateMutability": "view",
      "type": "function"
    },
    {
      "inputs": [],
      "name": "getAllPhotoCardInfo",
      "outputs": [
        {
          "components": [
            {
              "internalType": "string",
              "name": "metadataURI",
              "type": "string"
            },
            {
              "components": [
                {
                  "internalType": "uint256",
                  "name": "photoCardId",
                  "type": "uint256"
                },
                {
                  "internalType": "uint256",
                  "name": "amount",
                  "type": "uint256"
                },
                {
                  "internalType": "uint256",
                  "name": "startTime",
                  "type": "uint256"
                },
                {
                  "internalType": "uint256",
                  "name": "finalAuctionTime",
                  "type": "uint256"
                },
                {
                  "internalType": "uint256",
                  "name": "endTime",
                  "type": "uint256"
                },
                {
                  "internalType": "address payable",
                  "name": "bidder",
                  "type": "address"
                },
                {
                  "internalType": "bool",
                  "name": "isFinalBid",
                  "type": "bool"
                },
                {
                  "internalType": "bool",
                  "name": "settled",
                  "type": "bool"
                }
              ],
              "internalType": "struct IFantosiAuctionHouse.Auction",
              "name": "currentAuction",
              "type": "tuple"
            }
          ],
          "internalType": "struct FantosiView.PhotoCardInfo[]",
          "name": "allPhotoCardInfo",
          "type": "tuple[]"
        }
      ],
      "stateMutability": "view",
      "type": "function"
    },
    {
      "inputs": [
        {
          "internalType": "string",
          "name": "key",
          "type": "string"
        }
      ],
      "name": "getArtistPhotoCardHistoryInfo",
      "outputs": [
        {
          "components": [
            {
              "internalType": "string",
              "name": "metadataURI",
              "type": "string"
            },
            {
              "components": [
                {
                  "internalType": "uint256",
                  "name": "photoCardId",
                  "type": "uint256"
                },
                {
                  "internalType": "uint256",
                  "name": "amount",
                  "type": "uint256"
                },
                {
                  "internalType": "uint256",
                  "name": "startTime",
                  "type": "uint256"
                },
                {
                  "internalType": "uint256",
                  "name": "finalAuctionTime",
                  "type": "uint256"
                },
                {
                  "internalType": "uint256",
                  "name": "endTime",
                  "type": "uint256"
                },
                {
                  "internalType": "address payable",
                  "name": "bidder",
                  "type": "address"
                },
                {
                  "internalType": "bool",
                  "name": "isFinalBid",
                  "type": "bool"
                },
                {
                  "internalType": "bool",
                  "name": "settled",
                  "type": "bool"
                }
              ],
              "internalType": "struct IFantosiAuctionHouse.Auction",
              "name": "currentAuction",
              "type": "tuple"
            }
          ],
          "internalType": "struct FantosiView.PhotoCardInfo[]",
          "name": "allPhotoCardInfo",
          "type": "tuple[]"
        }
      ],
      "stateMutability": "view",
      "type": "function"
    },
    {
      "inputs": [
        {
          "internalType": "string",
          "name": "key",
          "type": "string"
        }
      ],
      "name": "getArtistPhotoCardInfo",
      "outputs": [
        {
          "components": [
            {
              "internalType": "string",
              "name": "metadataURI",
              "type": "string"
            },
            {
              "components": [
                {
                  "internalType": "uint256",
                  "name": "photoCardId",
                  "type": "uint256"
                },
                {
                  "internalType": "uint256",
                  "name": "amount",
                  "type": "uint256"
                },
                {
                  "internalType": "uint256",
                  "name": "startTime",
                  "type": "uint256"
                },
                {
                  "internalType": "uint256",
                  "name": "finalAuctionTime",
                  "type": "uint256"
                },
                {
                  "internalType": "uint256",
                  "name": "endTime",
                  "type": "uint256"
                },
                {
                  "internalType": "address payable",
                  "name": "bidder",
                  "type": "address"
                },
                {
                  "internalType": "bool",
                  "name": "isFinalBid",
                  "type": "bool"
                },
                {
                  "internalType": "bool",
                  "name": "settled",
                  "type": "bool"
                }
              ],
              "internalType": "struct IFantosiAuctionHouse.Auction",
              "name": "currentAuction",
              "type": "tuple"
            }
          ],
          "internalType": "struct FantosiView.PhotoCardInfo",
          "name": "photoCardInfo",
          "type": "tuple"
        }
      ],
      "stateMutability": "view",
      "type": "function"
    },
    {
      "inputs": [
        {
          "internalType": "string",
          "name": "key",
          "type": "string"
        }
      ],
      "name": "getFantosiTokenAddress",
      "outputs": [
        {
          "internalType": "contract IFantosiToken",
          "name": "",
          "type": "address"
        }
      ],
      "stateMutability": "view",
      "type": "function"
    },
    {
      "inputs": [],
      "name": "initialize",
      "outputs": [],
      "stateMutability": "nonpayable",
      "type": "function"
    },
    {
      "inputs": [
        {
          "internalType": "string",
          "name": "key",
          "type": "string"
        },
        {
          "internalType": "contract IFantosiDAOLogic",
          "name": "fantosiDAOLogic",
          "type": "address"
        }
      ],
      "name": "setFantosiDAOLogic",
      "outputs": [],
      "stateMutability": "nonpayable",
      "type": "function"
    },
    {
      "inputs": [
        {
          "internalType": "string",
          "name": "key",
          "type": "string"
        },
        {
          "internalType": "contract IFantosiToken",
          "name": "fantosiToken",
          "type": "address"
        }
      ],
      "name": "setFantosiTokenAddress",
      "outputs": [],
      "stateMutability": "nonpayable",
      "type": "function"
    },
    {
      "inputs": [
        {
          "internalType": "contract IFantosiToken",
          "name": "fantosiToken",
          "type": "address"
        },
        {
          "internalType": "contract IFantosiAuctionHouse",
          "name": "fantosiAuctionHouse",
          "type": "address"
        }
      ],
      "name": "setFantosiTokenAuctionHouse",
      "outputs": [],
      "stateMutability": "nonpayable",
      "type": "function"
    }
  ],
  "transactionHash": "0xe6b7ffe5f38b02b88cdc768b9086ae81a8b79a16512efad18dc1af02084b127d",
  "args": [],
  "numDeployments": 1,
  "solcInputHash": "0897deb31d077f143108bcf3b607bfe1",
  "bytecode": "0x608060405234801561001057600080fd5b50611601806100206000396000f3fe608060405234801561001057600080fd5b50600436106100ea5760003560e01c8063b069828a1161008c578063c940f5d111610066578063c940f5d114610236578063cd7e10c11461026a578063ce69e9d31461028a578063db72d4331461029d57600080fd5b8063b069828a146101f0578063b431325514610203578063b50d521f1461021657600080fd5b80636d75d291116100c85780636d75d291146101825780638129fc1c146101c05780639034039a146101c8578063939bdac3146101db57600080fd5b80631b33a1da146100ef5780634093a8761461010d5780635922eb9f14610159575b600080fd5b6100f76102b0565b6040516101049190610f45565b60405180910390f35b61014161011b366004611099565b80516020818301810180516003825292820191909301209152546001600160a01b031681565b6040516001600160a01b039091168152602001610104565b6101416101673660046110eb565b6004602052600090815260409020546001600160a01b031681565b6101be610190366004611108565b6001600160a01b03918216600090815260046020526040902080546001600160a01b03191691909216179055565b005b6101be610552565b6101be6101d6366004611141565b6105bf565b6101e3610603565b604051610104919061120b565b6101416101fe36600461126d565b610719565b6101e3610211366004611099565b610743565b610229610224366004611099565b610a28565b6040516101049190611286565b610141610244366004611099565b80516020818301810180516005825292820191909301209152546001600160a01b031681565b61027d61027836600461126d565b610a4d565b6040516101049190611299565b6101be610298366004611141565b610af9565b6101416102ab366004611099565b610c13565b606060006001805480602002602001604051908101604052809291908181526020016000905b828210156103825783829060005260206000200180546102f5906112ac565b80601f0160208091040260200160405190810160405280929190818152602001828054610321906112ac565b801561036e5780601f106103435761010080835404028352916020019161036e565b820191906000526020600020905b81548152906001019060200180831161035157829003601f168201915b5050505050815260200190600101906102d6565b505082519293508291505067ffffffffffffffff8111156103a5576103a5610fd4565b6040519080825280602002602001820160405280156103f057816020015b60408051606080820183528152600060208083018290529282015282526000199092019101816103c35790505b50925060005b8181101561054c57828181518110610410576104106112e7565b602002602001015184828151811061042a5761042a6112e7565b602002602001015160000181905250600383828151811061044d5761044d6112e7565b602002602001015160405161046291906112fd565b9081526040519081900360200190205484516001600160a01b0390911690859083908110610492576104926112e7565b6020026020010151602001906001600160a01b031690816001600160a01b031681525050600460008583815181106104cc576104cc6112e7565b6020026020010151602001516001600160a01b03166001600160a01b0316815260200190815260200160002060009054906101000a90046001600160a01b031684828151811061051e5761051e6112e7565b60209081029190910101516001600160a01b03909116604090910152806105448161132f565b9150506103f6565b50505090565b600061055e6001610c44565b90508015610576576000805461ff0019166101001790555b80156105bc576000805461ff0019169055604051600181527f7f26b83ff96e1f2b6a682f133852f6798a09c465da95921460cefb38474024989060200160405180910390a15b50565b806005836040516105d091906112fd565b90815260405190819003602001902080546001600160a01b03929092166001600160a01b03199092169190911790555050565b60606000600280548060200260200160405190810160405280929190818152602001828054801561065d57602002820191906000526020600020905b81546001600160a01b0316815260019091019060200180831161063f575b50508351939450839250505067ffffffffffffffff81111561068157610681610fd4565b6040519080825280602002602001820160405280156106ba57816020015b6106a7610ddf565b81526020019060019003908161069f5790505b50925060005b8181101561054c576106ea8382815181106106dd576106dd6112e7565b6020026020010151610cda565b8482815181106106fc576106fc6112e7565b602090810291909101015261071260018261134a565b90506106c0565b6002818154811061072957600080fd5b6000918252602090912001546001600160a01b0316905081565b6060600061075083610c13565b6001600160a01b038082166000908152600460208181526040808420548151639eafe29f60e01b815291519697509094169492938593639eafe29f9382810193928290030181865afa1580156107aa573d6000803e3d6000fd5b505050506040513d601f19601f820116820180604052508101906107ce9190611362565b905060008167ffffffffffffffff8111156107eb576107eb610fd4565b60405190808252806020026020018201604052801561082457816020015b610811610dfe565b8152602001906001900390816108095790505b509050826001600160a01b031663acaff8776040518163ffffffff1660e01b8152600401600060405180830381865afa158015610865573d6000803e3d6000fd5b505050506040513d6000823e601f3d908101601f1916820160405261088d9190810190611435565b905061089a82600161134a565b67ffffffffffffffff8111156108b2576108b2610fd4565b6040519080825280602002602001820160405280156108eb57816020015b6108d8610ddf565b8152602001906001900390816108d05790505b50945060005b828110156109f85781818151811061090b5761090b6112e7565b6020026020010151868281518110610925576109256112e7565b602002602001015160200181905250846001600160a01b0316633bb3a24d878381518110610955576109556112e7565b602002602001015160200151600001516040518263ffffffff1660e01b815260040161098391815260200190565b600060405180830381865afa1580156109a0573d6000803e3d6000fd5b505050506040513d6000823e601f3d908101601f191682016040526109c891908101906114e9565b8682815181106109da576109da6112e7565b602090810291909101015152806109f08161132f565b9150506108f1565b50610a0284610cda565b858381518110610a1457610a146112e7565b602002602001018190525050505050919050565b610a30610ddf565b6000610a3b83610c13565b9050610a4681610cda565b9392505050565b60018181548110610a5d57600080fd5b906000526020600020016000915090508054610a78906112ac565b80601f0160208091040260200160405190810160405280929190818152602001828054610aa4906112ac565b8015610af15780601f10610ac657610100808354040283529160200191610af1565b820191906000526020600020905b815481529060010190602001808311610ad457829003601f168201915b505050505081565b80600383604051610b0a91906112fd565b9081526040805191829003602001822080546001600160a01b039485166001600160a01b0319909116179055631507040160e01b8252516001928416916315070401916004808301926000929190829003018183875af1158015610b72573d6000803e3d6000fd5b505050506040513d6000823e601f3d908101601f19168201604052610b9a91908101906114e9565b815460018101835560009283526020928390208251610bbf9491909201920190610e50565b50600280546001810182556000919091527f405787fa12a823e0f2b7631cc41b3ba8828b3321ca811111fa75cd3aa3bb5ace0180546001600160a01b0319166001600160a01b039290921691909117905550565b6000600382604051610c2591906112fd565b908152604051908190036020019020546001600160a01b031692915050565b60008054610100900460ff1615610c94578160ff166001148015610c675750303b155b610c8c5760405162461bcd60e51b8152600401610c8390611560565b60405180910390fd5b506000919050565b60005460ff808416911610610cbb5760405162461bcd60e51b8152600401610c8390611560565b506000805460ff191660ff92909216919091179055600190565b919050565b610ce2610ddf565b6001600160a01b03808316600090815260046020819052604091829020548251636e5b378960e11b81529251931692839263dcb66f129281810192610100929091908290030181865afa158015610d3d573d6000803e3d6000fd5b505050506040513d601f19601f82011682018060405250810190610d6191906115ae565b6020830181905251604051633bb3a24d60e01b815260048101919091526001600160a01b03841690633bb3a24d90602401600060405180830381865afa158015610daf573d6000803e3d6000fd5b505050506040513d6000823e601f3d908101601f19168201604052610dd791908101906114e9565b825250919050565b604051806040016040528060608152602001610df9610dfe565b905290565b604051806101000160405280600081526020016000815260200160008152602001600081526020016000815260200160006001600160a01b031681526020016000151581526020016000151581525090565b828054610e5c906112ac565b90600052602060002090601f016020900481019282610e7e5760008555610ec4565b82601f10610e9757805160ff1916838001178555610ec4565b82800160010185558215610ec4579182015b82811115610ec4578251825591602001919060010190610ea9565b50610ed0929150610ed4565b5090565b5b80821115610ed05760008155600101610ed5565b60005b83811015610f04578181015183820152602001610eec565b83811115610f13576000848401525b50505050565b60008151808452610f31816020860160208601610ee9565b601f01601f19169290920160200192915050565b60006020808301818452808551808352604092508286019150828160051b87010184880160005b83811015610fc657603f19898403018552815160608151818652610f9282870182610f19565b838b01516001600160a01b03908116888d0152938a0151909316958901959095525094870194925090860190600101610f6c565b509098975050505050505050565b634e487b7160e01b600052604160045260246000fd5b604051601f8201601f1916810167ffffffffffffffff8111828210171561101357611013610fd4565b604052919050565b600067ffffffffffffffff82111561103557611035610fd4565b50601f01601f191660200190565b600082601f83011261105457600080fd5b81356110676110628261101b565b610fea565b81815284602083860101111561107c57600080fd5b816020850160208301376000918101602001919091529392505050565b6000602082840312156110ab57600080fd5b813567ffffffffffffffff8111156110c257600080fd5b6110ce84828501611043565b949350505050565b6001600160a01b03811681146105bc57600080fd5b6000602082840312156110fd57600080fd5b8135610a46816110d6565b6000806040838503121561111b57600080fd5b8235611126816110d6565b91506020830135611136816110d6565b809150509250929050565b6000806040838503121561115457600080fd5b823567ffffffffffffffff81111561116b57600080fd5b61117785828601611043565b9250506020830135611136816110d6565b6000610120825181855261119e82860182610f19565b915050602083015180516020860152602081015160408601526040810151606086015260608101516080860152608081015160a086015260018060a01b0360a08201511660c086015260c0810151151560e086015260e08101511515610100860152508091505092915050565b6000602080830181845280855180835260408601915060408160051b870101925083870160005b8281101561126057603f1988860301845261124e858351611188565b94509285019290850190600101611232565b5092979650505050505050565b60006020828403121561127f57600080fd5b5035919050565b602081526000610a466020830184611188565b602081526000610a466020830184610f19565b600181811c908216806112c057607f821691505b602082108114156112e157634e487b7160e01b600052602260045260246000fd5b50919050565b634e487b7160e01b600052603260045260246000fd5b6000825161130f818460208701610ee9565b9190910192915050565b634e487b7160e01b600052601160045260246000fd5b600060001982141561134357611343611319565b5060010190565b6000821982111561135d5761135d611319565b500190565b60006020828403121561137457600080fd5b5051919050565b80518015158114610cd557600080fd5b600061010080838503121561139f57600080fd5b6040519081019067ffffffffffffffff821181831017156113c2576113c2610fd4565b81604052809250835181526020840151602082015260408401516040820152606084015160608201526080840151608082015260a08401519150611405826110d6565b8160a082015261141760c0850161137b565b60c082015261142860e0850161137b565b60e0820152505092915050565b6000602080838503121561144857600080fd5b825167ffffffffffffffff8082111561146057600080fd5b818501915085601f83011261147457600080fd5b81518181111561148657611486610fd4565b611494848260051b01610fea565b818152848101925060089190911b8301840190878211156114b457600080fd5b928401925b818410156114de576114cb888561138b565b83528483019250610100840193506114b9565b979650505050505050565b6000602082840312156114fb57600080fd5b815167ffffffffffffffff81111561151257600080fd5b8201601f8101841361152357600080fd5b80516115316110628261101b565b81815285602083850101111561154657600080fd5b611557826020830160208601610ee9565b95945050505050565b6020808252602e908201527f496e697469616c697a61626c653a20636f6e747261637420697320616c72656160408201526d191e481a5b9a5d1a585b1a5e995960921b606082015260800190565b600061010082840312156115c157600080fd5b610a46838361138b56fea2646970667358221220a50e3e41d058596ab7f4f0752d1d7c53200cdab8c657407728edf51ff0075ba664736f6c634300080b0033",
  "devdoc": {
    "kind": "dev",
    "methods": {},
    "version": 1
  },
  "userdoc": {
    "kind": "user",
    "methods": {},
    "version": 1
  },
  "storageLayout": {
    "storage": [
      {
        "astId": 18131,
        "contract": "src/FantosiView.sol:FantosiView",
        "label": "_initialized",
        "offset": 0,
        "slot": "0",
        "type": "t_uint8"
      },
      {
        "astId": 18134,
        "contract": "src/FantosiView.sol:FantosiView",
        "label": "_initializing",
        "offset": 1,
        "slot": "0",
        "type": "t_bool"
      },
      {
        "astId": 11419,
        "contract": "src/FantosiView.sol:FantosiView",
        "label": "artists",
        "offset": 0,
        "slot": "1",
        "type": "t_array(t_string_storage)dyn_storage"
      },
      {
        "astId": 11423,
        "contract": "src/FantosiView.sol:FantosiView",
        "label": "fantosiTokens",
        "offset": 0,
        "slot": "2",
        "type": "t_array(t_contract(IFantosiToken)17790)dyn_storage"
      },
      {
        "astId": 11428,
        "contract": "src/FantosiView.sol:FantosiView",
        "label": "fantosiTokenList",
        "offset": 0,
        "slot": "3",
        "type": "t_mapping(t_string_memory_ptr,t_contract(IFantosiToken)17790)"
      },
      {
        "astId": 11434,
        "contract": "src/FantosiView.sol:FantosiView",
        "label": "auctionMap",
        "offset": 0,
        "slot": "4",
        "type": "t_mapping(t_contract(IFantosiToken)17790,t_contract(IFantosiAuctionHouse)17730)"
      },
      {
        "astId": 11439,
        "contract": "src/FantosiView.sol:FantosiView",
        "label": "fantosiDAOLogicList",
        "offset": 0,
        "slot": "5",
        "type": "t_mapping(t_string_memory_ptr,t_contract(IFantosiDAOLogic)14806)"
      }
    ],
    "types": {
      "t_array(t_contract(IFantosiToken)17790)dyn_storage": {
        "base": "t_contract(IFantosiToken)17790",
        "encoding": "dynamic_array",
        "label": "contract IFantosiToken[]",
        "numberOfBytes": "32"
      },
      "t_array(t_string_storage)dyn_storage": {
        "base": "t_string_storage",
        "encoding": "dynamic_array",
        "label": "string[]",
        "numberOfBytes": "32"
      },
      "t_bool": {
        "encoding": "inplace",
        "label": "bool",
        "numberOfBytes": "1"
      },
      "t_contract(IFantosiAuctionHouse)17730": {
        "encoding": "inplace",
        "label": "contract IFantosiAuctionHouse",
        "numberOfBytes": "20"
      },
      "t_contract(IFantosiDAOLogic)14806": {
        "encoding": "inplace",
        "label": "contract IFantosiDAOLogic",
        "numberOfBytes": "20"
      },
      "t_contract(IFantosiToken)17790": {
        "encoding": "inplace",
        "label": "contract IFantosiToken",
        "numberOfBytes": "20"
      },
      "t_mapping(t_contract(IFantosiToken)17790,t_contract(IFantosiAuctionHouse)17730)": {
        "encoding": "mapping",
        "key": "t_contract(IFantosiToken)17790",
        "label": "mapping(contract IFantosiToken => contract IFantosiAuctionHouse)",
        "numberOfBytes": "32",
        "value": "t_contract(IFantosiAuctionHouse)17730"
      },
      "t_mapping(t_string_memory_ptr,t_contract(IFantosiDAOLogic)14806)": {
        "encoding": "mapping",
        "key": "t_string_memory_ptr",
        "label": "mapping(string => contract IFantosiDAOLogic)",
        "numberOfBytes": "32",
        "value": "t_contract(IFantosiDAOLogic)14806"
      },
      "t_mapping(t_string_memory_ptr,t_contract(IFantosiToken)17790)": {
        "encoding": "mapping",
        "key": "t_string_memory_ptr",
        "label": "mapping(string => contract IFantosiToken)",
        "numberOfBytes": "32",
        "value": "t_contract(IFantosiToken)17790"
      },
      "t_string_memory_ptr": {
        "encoding": "bytes",
        "label": "string",
        "numberOfBytes": "32"
      },
      "t_string_storage": {
        "encoding": "bytes",
        "label": "string",
        "numberOfBytes": "32"
      },
      "t_uint8": {
        "encoding": "inplace",
        "label": "uint8",
        "numberOfBytes": "1"
      }
    }
  }
}