{
  "address": "0x5dc4946547B8d9Ef64c771a5B57811a33d266117",
  "abi": [
    {
      "anonymous": false,
      "inputs": [
        {
          "indexed": false,
          "internalType": "uint8",
          "name": "version",
          "type": "uint8"
        }
      ],
      "name": "Initialized",
      "type": "event"
    },
    {
      "inputs": [
        {
          "internalType": "uint256",
          "name": "",
          "type": "uint256"
        }
      ],
      "name": "artists",
      "outputs": [
        {
          "internalType": "string",
          "name": "",
          "type": "string"
        }
      ],
      "stateMutability": "view",
      "type": "function"
    },
    {
      "inputs": [
        {
          "internalType": "contract IFantosiToken",
          "name": "",
          "type": "address"
        }
      ],
      "name": "auctionMap",
      "outputs": [
        {
          "internalType": "contract IFantosiAuctionHouse",
          "name": "",
          "type": "address"
        }
      ],
      "stateMutability": "view",
      "type": "function"
    },
    {
      "inputs": [
        {
          "internalType": "string",
          "name": "",
          "type": "string"
        }
      ],
      "name": "fantosiTokenList",
      "outputs": [
        {
          "internalType": "contract IFantosiToken",
          "name": "",
          "type": "address"
        }
      ],
      "stateMutability": "view",
      "type": "function"
    },
    {
      "inputs": [
        {
          "internalType": "uint256",
          "name": "",
          "type": "uint256"
        }
      ],
      "name": "fantosiTokens",
      "outputs": [
        {
          "internalType": "contract IFantosiToken",
          "name": "",
          "type": "address"
        }
      ],
      "stateMutability": "view",
      "type": "function"
    },
    {
      "inputs": [],
      "name": "getAllArtistInfo",
      "outputs": [
        {
          "components": [
            {
              "internalType": "string",
              "name": "artistKey",
              "type": "string"
            },
            {
              "internalType": "contract IFantosiToken",
              "name": "fantosiTokenAddr",
              "type": "address"
            },
            {
              "internalType": "contract IFantosiAuctionHouse",
              "name": "auctionHouseAddr",
              "type": "address"
            }
          ],
          "internalType": "struct FantosiView.Artist[]",
          "name": "artistsInfo",
          "type": "tuple[]"
        }
      ],
      "stateMutability": "view",
      "type": "function"
    },
    {
      "inputs": [],
      "name": "getAllPhotoCardInfo",
      "outputs": [
        {
          "components": [
            {
              "internalType": "string",
              "name": "metadataURI",
              "type": "string"
            },
            {
              "components": [
                {
                  "internalType": "uint256",
                  "name": "photoCardId",
                  "type": "uint256"
                },
                {
                  "internalType": "uint256",
                  "name": "amount",
                  "type": "uint256"
                },
                {
                  "internalType": "uint256",
                  "name": "startTime",
                  "type": "uint256"
                },
                {
                  "internalType": "uint256",
                  "name": "finalAuctionTime",
                  "type": "uint256"
                },
                {
                  "internalType": "uint256",
                  "name": "endTime",
                  "type": "uint256"
                },
                {
                  "internalType": "address payable",
                  "name": "bidder",
                  "type": "address"
                },
                {
                  "internalType": "bool",
                  "name": "isFinalBid",
                  "type": "bool"
                },
                {
                  "internalType": "bool",
                  "name": "settled",
                  "type": "bool"
                }
              ],
              "internalType": "struct IFantosiAuctionHouse.Auction",
              "name": "currentAuction",
              "type": "tuple"
            }
          ],
          "internalType": "struct FantosiView.PhotoCardInfo[]",
          "name": "allPhotoCardInfo",
          "type": "tuple[]"
        }
      ],
      "stateMutability": "view",
      "type": "function"
    },
    {
      "inputs": [
        {
          "internalType": "string",
          "name": "key",
          "type": "string"
        }
      ],
      "name": "getArtistPhotoCardHistoryInfo",
      "outputs": [
        {
          "components": [
            {
              "internalType": "string",
              "name": "metadataURI",
              "type": "string"
            },
            {
              "components": [
                {
                  "internalType": "uint256",
                  "name": "photoCardId",
                  "type": "uint256"
                },
                {
                  "internalType": "uint256",
                  "name": "amount",
                  "type": "uint256"
                },
                {
                  "internalType": "uint256",
                  "name": "startTime",
                  "type": "uint256"
                },
                {
                  "internalType": "uint256",
                  "name": "finalAuctionTime",
                  "type": "uint256"
                },
                {
                  "internalType": "uint256",
                  "name": "endTime",
                  "type": "uint256"
                },
                {
                  "internalType": "address payable",
                  "name": "bidder",
                  "type": "address"
                },
                {
                  "internalType": "bool",
                  "name": "isFinalBid",
                  "type": "bool"
                },
                {
                  "internalType": "bool",
                  "name": "settled",
                  "type": "bool"
                }
              ],
              "internalType": "struct IFantosiAuctionHouse.Auction",
              "name": "currentAuction",
              "type": "tuple"
            }
          ],
          "internalType": "struct FantosiView.PhotoCardInfo[]",
          "name": "allPhotoCardInfo",
          "type": "tuple[]"
        }
      ],
      "stateMutability": "view",
      "type": "function"
    },
    {
      "inputs": [
        {
          "internalType": "string",
          "name": "key",
          "type": "string"
        }
      ],
      "name": "getArtistPhotoCardInfo",
      "outputs": [
        {
          "components": [
            {
              "internalType": "string",
              "name": "metadataURI",
              "type": "string"
            },
            {
              "components": [
                {
                  "internalType": "uint256",
                  "name": "photoCardId",
                  "type": "uint256"
                },
                {
                  "internalType": "uint256",
                  "name": "amount",
                  "type": "uint256"
                },
                {
                  "internalType": "uint256",
                  "name": "startTime",
                  "type": "uint256"
                },
                {
                  "internalType": "uint256",
                  "name": "finalAuctionTime",
                  "type": "uint256"
                },
                {
                  "internalType": "uint256",
                  "name": "endTime",
                  "type": "uint256"
                },
                {
                  "internalType": "address payable",
                  "name": "bidder",
                  "type": "address"
                },
                {
                  "internalType": "bool",
                  "name": "isFinalBid",
                  "type": "bool"
                },
                {
                  "internalType": "bool",
                  "name": "settled",
                  "type": "bool"
                }
              ],
              "internalType": "struct IFantosiAuctionHouse.Auction",
              "name": "currentAuction",
              "type": "tuple"
            }
          ],
          "internalType": "struct FantosiView.PhotoCardInfo",
          "name": "photoCardInfo",
          "type": "tuple"
        }
      ],
      "stateMutability": "view",
      "type": "function"
    },
    {
      "inputs": [
        {
          "internalType": "string",
          "name": "key",
          "type": "string"
        }
      ],
      "name": "getFantosiTokenAddress",
      "outputs": [
        {
          "internalType": "contract IFantosiToken",
          "name": "",
          "type": "address"
        }
      ],
      "stateMutability": "view",
      "type": "function"
    },
    {
      "inputs": [],
      "name": "initialize",
      "outputs": [],
      "stateMutability": "nonpayable",
      "type": "function"
    },
    {
      "inputs": [
        {
          "internalType": "string",
          "name": "key",
          "type": "string"
        },
        {
          "internalType": "contract IFantosiToken",
          "name": "fantosiToken",
          "type": "address"
        }
      ],
      "name": "setFantosiTokenAddress",
      "outputs": [],
      "stateMutability": "nonpayable",
      "type": "function"
    },
    {
      "inputs": [
        {
          "internalType": "contract IFantosiToken",
          "name": "fantosiToken",
          "type": "address"
        },
        {
          "internalType": "contract IFantosiAuctionHouse",
          "name": "fantosiAuctionHouse",
          "type": "address"
        }
      ],
      "name": "setFantosiTokenAuctionHouse",
      "outputs": [],
      "stateMutability": "nonpayable",
      "type": "function"
    }
  ],
  "transactionHash": "0x0c970d9c17b06292c7a6f45e9e19c5c7daf5699cf5e60442e21d8e342fd91a55",
  "args": [],
  "numDeployments": 1,
  "solcInputHash": "405cf561ac3e838735a7d2c52a564dad",
  "bytecode": "0x608060405234801561001057600080fd5b50611540806100206000396000f3fe608060405234801561001057600080fd5b50600436106100b45760003560e01c8063b069828a11610071578063b069828a146101a7578063b4313255146101ba578063b50d521f146101cd578063cd7e10c1146101ed578063ce69e9d31461020d578063db72d4331461022057600080fd5b80631b33a1da146100b95780634093a876146100d75780635922eb9f146101235780636d75d2911461014c5780638129fc1c1461018a578063939bdac314610192575b600080fd5b6100c1610233565b6040516100ce9190610e84565b60405180910390f35b61010b6100e5366004610fd8565b80516020818301810180516003825292820191909301209152546001600160a01b031681565b6040516001600160a01b0390911681526020016100ce565b61010b61013136600461102a565b6004602052600090815260409020546001600160a01b031681565b61018861015a366004611047565b6001600160a01b03918216600090815260046020526040902080546001600160a01b03191691909216179055565b005b6101886104d5565b61019a610542565b6040516100ce9190611103565b61010b6101b5366004611165565b610658565b61019a6101c8366004610fd8565b610682565b6101e06101db366004610fd8565b610967565b6040516100ce919061117e565b6102006101fb366004611165565b61098c565b6040516100ce9190611191565b61018861021b3660046111a4565b610a38565b61010b61022e366004610fd8565b610b52565b606060006001805480602002602001604051908101604052809291908181526020016000905b82821015610305578382906000526020600020018054610278906111eb565b80601f01602080910402602001604051908101604052809291908181526020018280546102a4906111eb565b80156102f15780601f106102c6576101008083540402835291602001916102f1565b820191906000526020600020905b8154815290600101906020018083116102d457829003601f168201915b505050505081526020019060010190610259565b505082519293508291505067ffffffffffffffff81111561032857610328610f13565b60405190808252806020026020018201604052801561037357816020015b60408051606080820183528152600060208083018290529282015282526000199092019101816103465790505b50925060005b818110156104cf5782818151811061039357610393611226565b60200260200101518482815181106103ad576103ad611226565b60200260200101516000018190525060038382815181106103d0576103d0611226565b60200260200101516040516103e5919061123c565b9081526040519081900360200190205484516001600160a01b039091169085908390811061041557610415611226565b6020026020010151602001906001600160a01b031690816001600160a01b0316815250506004600085838151811061044f5761044f611226565b6020026020010151602001516001600160a01b03166001600160a01b0316815260200190815260200160002060009054906101000a90046001600160a01b03168482815181106104a1576104a1611226565b60209081029190910101516001600160a01b03909116604090910152806104c78161126e565b915050610379565b50505090565b60006104e16001610b83565b905080156104f9576000805461ff0019166101001790555b801561053f576000805461ff0019169055604051600181527f7f26b83ff96e1f2b6a682f133852f6798a09c465da95921460cefb38474024989060200160405180910390a15b50565b60606000600280548060200260200160405190810160405280929190818152602001828054801561059c57602002820191906000526020600020905b81546001600160a01b0316815260019091019060200180831161057e575b50508351939450839250505067ffffffffffffffff8111156105c0576105c0610f13565b6040519080825280602002602001820160405280156105f957816020015b6105e6610d1e565b8152602001906001900390816105de5790505b50925060005b818110156104cf5761062983828151811061061c5761061c611226565b6020026020010151610c19565b84828151811061063b5761063b611226565b6020908102919091010152610651600182611289565b90506105ff565b6002818154811061066857600080fd5b6000918252602090912001546001600160a01b0316905081565b6060600061068f83610b52565b6001600160a01b038082166000908152600460208181526040808420548151639eafe29f60e01b815291519697509094169492938593639eafe29f9382810193928290030181865afa1580156106e9573d6000803e3d6000fd5b505050506040513d601f19601f8201168201806040525081019061070d91906112a1565b905060008167ffffffffffffffff81111561072a5761072a610f13565b60405190808252806020026020018201604052801561076357816020015b610750610d3d565b8152602001906001900390816107485790505b509050826001600160a01b031663acaff8776040518163ffffffff1660e01b8152600401600060405180830381865afa1580156107a4573d6000803e3d6000fd5b505050506040513d6000823e601f3d908101601f191682016040526107cc9190810190611374565b90506107d9826001611289565b67ffffffffffffffff8111156107f1576107f1610f13565b60405190808252806020026020018201604052801561082a57816020015b610817610d1e565b81526020019060019003908161080f5790505b50945060005b828110156109375781818151811061084a5761084a611226565b602002602001015186828151811061086457610864611226565b602002602001015160200181905250846001600160a01b0316633bb3a24d87838151811061089457610894611226565b602002602001015160200151600001516040518263ffffffff1660e01b81526004016108c291815260200190565b600060405180830381865afa1580156108df573d6000803e3d6000fd5b505050506040513d6000823e601f3d908101601f191682016040526109079190810190611428565b86828151811061091957610919611226565b6020908102919091010151528061092f8161126e565b915050610830565b5061094184610c19565b85838151811061095357610953611226565b602002602001018190525050505050919050565b61096f610d1e565b600061097a83610b52565b905061098581610c19565b9392505050565b6001818154811061099c57600080fd5b9060005260206000200160009150905080546109b7906111eb565b80601f01602080910402602001604051908101604052809291908181526020018280546109e3906111eb565b8015610a305780601f10610a0557610100808354040283529160200191610a30565b820191906000526020600020905b815481529060010190602001808311610a1357829003601f168201915b505050505081565b80600383604051610a49919061123c565b9081526040805191829003602001822080546001600160a01b039485166001600160a01b0319909116179055631507040160e01b8252516001928416916315070401916004808301926000929190829003018183875af1158015610ab1573d6000803e3d6000fd5b505050506040513d6000823e601f3d908101601f19168201604052610ad99190810190611428565b815460018101835560009283526020928390208251610afe9491909201920190610d8f565b50600280546001810182556000919091527f405787fa12a823e0f2b7631cc41b3ba8828b3321ca811111fa75cd3aa3bb5ace0180546001600160a01b0319166001600160a01b039290921691909117905550565b6000600382604051610b64919061123c565b908152604051908190036020019020546001600160a01b031692915050565b60008054610100900460ff1615610bd3578160ff166001148015610ba65750303b155b610bcb5760405162461bcd60e51b8152600401610bc29061149f565b60405180910390fd5b506000919050565b60005460ff808416911610610bfa5760405162461bcd60e51b8152600401610bc29061149f565b506000805460ff191660ff92909216919091179055600190565b919050565b610c21610d1e565b6001600160a01b03808316600090815260046020819052604091829020548251636e5b378960e11b81529251931692839263dcb66f129281810192610100929091908290030181865afa158015610c7c573d6000803e3d6000fd5b505050506040513d601f19601f82011682018060405250810190610ca091906114ed565b6020830181905251604051633bb3a24d60e01b815260048101919091526001600160a01b03841690633bb3a24d90602401600060405180830381865afa158015610cee573d6000803e3d6000fd5b505050506040513d6000823e601f3d908101601f19168201604052610d169190810190611428565b825250919050565b604051806040016040528060608152602001610d38610d3d565b905290565b604051806101000160405280600081526020016000815260200160008152602001600081526020016000815260200160006001600160a01b031681526020016000151581526020016000151581525090565b828054610d9b906111eb565b90600052602060002090601f016020900481019282610dbd5760008555610e03565b82601f10610dd657805160ff1916838001178555610e03565b82800160010185558215610e03579182015b82811115610e03578251825591602001919060010190610de8565b50610e0f929150610e13565b5090565b5b80821115610e0f5760008155600101610e14565b60005b83811015610e43578181015183820152602001610e2b565b83811115610e52576000848401525b50505050565b60008151808452610e70816020860160208601610e28565b601f01601f19169290920160200192915050565b60006020808301818452808551808352604092508286019150828160051b87010184880160005b83811015610f0557603f19898403018552815160608151818652610ed182870182610e58565b838b01516001600160a01b03908116888d0152938a0151909316958901959095525094870194925090860190600101610eab565b509098975050505050505050565b634e487b7160e01b600052604160045260246000fd5b604051601f8201601f1916810167ffffffffffffffff81118282101715610f5257610f52610f13565b604052919050565b600067ffffffffffffffff821115610f7457610f74610f13565b50601f01601f191660200190565b600082601f830112610f9357600080fd5b8135610fa6610fa182610f5a565b610f29565b818152846020838601011115610fbb57600080fd5b816020850160208301376000918101602001919091529392505050565b600060208284031215610fea57600080fd5b813567ffffffffffffffff81111561100157600080fd5b61100d84828501610f82565b949350505050565b6001600160a01b038116811461053f57600080fd5b60006020828403121561103c57600080fd5b813561098581611015565b6000806040838503121561105a57600080fd5b823561106581611015565b9150602083013561107581611015565b809150509250929050565b6000610120825181855261109682860182610e58565b915050602083015180516020860152602081015160408601526040810151606086015260608101516080860152608081015160a086015260018060a01b0360a08201511660c086015260c0810151151560e086015260e08101511515610100860152508091505092915050565b6000602080830181845280855180835260408601915060408160051b870101925083870160005b8281101561115857603f19888603018452611146858351611080565b9450928501929085019060010161112a565b5092979650505050505050565b60006020828403121561117757600080fd5b5035919050565b6020815260006109856020830184611080565b6020815260006109856020830184610e58565b600080604083850312156111b757600080fd5b823567ffffffffffffffff8111156111ce57600080fd5b6111da85828601610f82565b925050602083013561107581611015565b600181811c908216806111ff57607f821691505b6020821081141561122057634e487b7160e01b600052602260045260246000fd5b50919050565b634e487b7160e01b600052603260045260246000fd5b6000825161124e818460208701610e28565b9190910192915050565b634e487b7160e01b600052601160045260246000fd5b600060001982141561128257611282611258565b5060010190565b6000821982111561129c5761129c611258565b500190565b6000602082840312156112b357600080fd5b5051919050565b80518015158114610c1457600080fd5b60006101008083850312156112de57600080fd5b6040519081019067ffffffffffffffff8211818310171561130157611301610f13565b81604052809250835181526020840151602082015260408401516040820152606084015160608201526080840151608082015260a0840151915061134482611015565b8160a082015261135660c085016112ba565b60c082015261136760e085016112ba565b60e0820152505092915050565b6000602080838503121561138757600080fd5b825167ffffffffffffffff8082111561139f57600080fd5b818501915085601f8301126113b357600080fd5b8151818111156113c5576113c5610f13565b6113d3848260051b01610f29565b818152848101925060089190911b8301840190878211156113f357600080fd5b928401925b8184101561141d5761140a88856112ca565b83528483019250610100840193506113f8565b979650505050505050565b60006020828403121561143a57600080fd5b815167ffffffffffffffff81111561145157600080fd5b8201601f8101841361146257600080fd5b8051611470610fa182610f5a565b81815285602083850101111561148557600080fd5b611496826020830160208601610e28565b95945050505050565b6020808252602e908201527f496e697469616c697a61626c653a20636f6e747261637420697320616c72656160408201526d191e481a5b9a5d1a585b1a5e995960921b606082015260800190565b6000610100828403121561150057600080fd5b61098583836112ca56fea264697066735822122024e92287b8a5a8fa0a42377de2966a15de1b85fafeadbdcac1d4dbfc7351b46e64736f6c634300080b0033",
  "devdoc": {
    "kind": "dev",
    "methods": {},
    "version": 1
  },
  "userdoc": {
    "kind": "user",
    "methods": {},
    "version": 1
  },
  "storageLayout": {
    "storage": [
      {
        "astId": 14652,
        "contract": "src/FantosiView.sol:FantosiView",
        "label": "_initialized",
        "offset": 0,
        "slot": "0",
        "type": "t_uint8"
      },
      {
        "astId": 14655,
        "contract": "src/FantosiView.sol:FantosiView",
        "label": "_initializing",
        "offset": 1,
        "slot": "0",
        "type": "t_bool"
      },
      {
        "astId": 11377,
        "contract": "src/FantosiView.sol:FantosiView",
        "label": "artists",
        "offset": 0,
        "slot": "1",
        "type": "t_array(t_string_storage)dyn_storage"
      },
      {
        "astId": 11381,
        "contract": "src/FantosiView.sol:FantosiView",
        "label": "fantosiTokens",
        "offset": 0,
        "slot": "2",
        "type": "t_array(t_contract(IFantosiToken)14311)dyn_storage"
      },
      {
        "astId": 11386,
        "contract": "src/FantosiView.sol:FantosiView",
        "label": "fantosiTokenList",
        "offset": 0,
        "slot": "3",
        "type": "t_mapping(t_string_memory_ptr,t_contract(IFantosiToken)14311)"
      },
      {
        "astId": 11392,
        "contract": "src/FantosiView.sol:FantosiView",
        "label": "auctionMap",
        "offset": 0,
        "slot": "4",
        "type": "t_mapping(t_contract(IFantosiToken)14311,t_contract(IFantosiAuctionHouse)14251)"
      }
    ],
    "types": {
      "t_array(t_contract(IFantosiToken)14311)dyn_storage": {
        "base": "t_contract(IFantosiToken)14311",
        "encoding": "dynamic_array",
        "label": "contract IFantosiToken[]",
        "numberOfBytes": "32"
      },
      "t_array(t_string_storage)dyn_storage": {
        "base": "t_string_storage",
        "encoding": "dynamic_array",
        "label": "string[]",
        "numberOfBytes": "32"
      },
      "t_bool": {
        "encoding": "inplace",
        "label": "bool",
        "numberOfBytes": "1"
      },
      "t_contract(IFantosiAuctionHouse)14251": {
        "encoding": "inplace",
        "label": "contract IFantosiAuctionHouse",
        "numberOfBytes": "20"
      },
      "t_contract(IFantosiToken)14311": {
        "encoding": "inplace",
        "label": "contract IFantosiToken",
        "numberOfBytes": "20"
      },
      "t_mapping(t_contract(IFantosiToken)14311,t_contract(IFantosiAuctionHouse)14251)": {
        "encoding": "mapping",
        "key": "t_contract(IFantosiToken)14311",
        "label": "mapping(contract IFantosiToken => contract IFantosiAuctionHouse)",
        "numberOfBytes": "32",
        "value": "t_contract(IFantosiAuctionHouse)14251"
      },
      "t_mapping(t_string_memory_ptr,t_contract(IFantosiToken)14311)": {
        "encoding": "mapping",
        "key": "t_string_memory_ptr",
        "label": "mapping(string => contract IFantosiToken)",
        "numberOfBytes": "32",
        "value": "t_contract(IFantosiToken)14311"
      },
      "t_string_memory_ptr": {
        "encoding": "bytes",
        "label": "string",
        "numberOfBytes": "32"
      },
      "t_string_storage": {
        "encoding": "bytes",
        "label": "string",
        "numberOfBytes": "32"
      },
      "t_uint8": {
        "encoding": "inplace",
        "label": "uint8",
        "numberOfBytes": "1"
      }
    }
  }
}