{
  "_format": "hh-sol-artifact-1",
  "contractName": "FantosiAuctionHouse",
  "sourceName": "src/FantosiAuctionHouse.sol",
  "abi": [
    {
      "anonymous": false,
      "inputs": [
        {
          "indexed": true,
          "internalType": "uint256",
          "name": "photoCardId",
          "type": "uint256"
        },
        {
          "indexed": false,
          "internalType": "address",
          "name": "sender",
          "type": "address"
        },
        {
          "indexed": false,
          "internalType": "uint256",
          "name": "value",
          "type": "uint256"
        },
        {
          "indexed": false,
          "internalType": "bool",
          "name": "extended",
          "type": "bool"
        }
      ],
      "name": "AuctionBid",
      "type": "event"
    },
    {
      "anonymous": false,
      "inputs": [
        {
          "indexed": true,
          "internalType": "uint256",
          "name": "photoCardId",
          "type": "uint256"
        },
        {
          "indexed": false,
          "internalType": "uint256",
          "name": "startTime",
          "type": "uint256"
        },
        {
          "indexed": false,
          "internalType": "uint256",
          "name": "endTime",
          "type": "uint256"
        }
      ],
      "name": "AuctionCreated",
      "type": "event"
    },
    {
      "anonymous": false,
      "inputs": [
        {
          "indexed": true,
          "internalType": "uint256",
          "name": "photoCardId",
          "type": "uint256"
        },
        {
          "indexed": false,
          "internalType": "uint256",
          "name": "endTime",
          "type": "uint256"
        }
      ],
      "name": "AuctionExtended",
      "type": "event"
    },
    {
      "anonymous": false,
      "inputs": [
        {
          "indexed": false,
          "internalType": "uint256",
          "name": "minBidIncrementPercentage",
          "type": "uint256"
        }
      ],
      "name": "AuctionMinBidIncrementPercentageUpdated",
      "type": "event"
    },
    {
      "anonymous": false,
      "inputs": [
        {
          "indexed": false,
          "internalType": "uint256",
          "name": "reservePrice",
          "type": "uint256"
        }
      ],
      "name": "AuctionReservePriceUpdated",
      "type": "event"
    },
    {
      "anonymous": false,
      "inputs": [
        {
          "indexed": true,
          "internalType": "uint256",
          "name": "photoCardId",
          "type": "uint256"
        },
        {
          "indexed": false,
          "internalType": "address",
          "name": "winner",
          "type": "address"
        },
        {
          "indexed": false,
          "internalType": "uint256",
          "name": "amount",
          "type": "uint256"
        }
      ],
      "name": "AuctionSettled",
      "type": "event"
    },
    {
      "anonymous": false,
      "inputs": [
        {
          "indexed": false,
          "internalType": "uint256",
          "name": "timeBuffer",
          "type": "uint256"
        }
      ],
      "name": "AuctionTimeBufferUpdated",
      "type": "event"
    },
    {
      "anonymous": false,
      "inputs": [
        {
          "indexed": false,
          "internalType": "uint8",
          "name": "version",
          "type": "uint8"
        }
      ],
      "name": "Initialized",
      "type": "event"
    },
    {
      "anonymous": false,
      "inputs": [
        {
          "indexed": true,
          "internalType": "address",
          "name": "previousOwner",
          "type": "address"
        },
        {
          "indexed": true,
          "internalType": "address",
          "name": "newOwner",
          "type": "address"
        }
      ],
      "name": "OwnershipTransferred",
      "type": "event"
    },
    {
      "anonymous": false,
      "inputs": [
        {
          "indexed": false,
          "internalType": "address",
          "name": "account",
          "type": "address"
        }
      ],
      "name": "Paused",
      "type": "event"
    },
    {
      "anonymous": false,
      "inputs": [
        {
          "indexed": false,
          "internalType": "address",
          "name": "account",
          "type": "address"
        }
      ],
      "name": "Unpaused",
      "type": "event"
    },
    {
      "inputs": [],
      "name": "auction",
      "outputs": [
        {
          "internalType": "uint256",
          "name": "photoCardId",
          "type": "uint256"
        },
        {
          "internalType": "uint256",
          "name": "amount",
          "type": "uint256"
        },
        {
          "internalType": "uint256",
          "name": "startTime",
          "type": "uint256"
        },
        {
          "internalType": "uint256",
          "name": "endTime",
          "type": "uint256"
        },
        {
          "internalType": "address payable",
          "name": "bidder",
          "type": "address"
        },
        {
          "internalType": "bool",
          "name": "settled",
          "type": "bool"
        }
      ],
      "stateMutability": "view",
      "type": "function"
    },
    {
      "inputs": [
        {
          "internalType": "uint256",
          "name": "photoCardId",
          "type": "uint256"
        }
      ],
      "name": "createBid",
      "outputs": [],
      "stateMutability": "payable",
      "type": "function"
    },
    {
      "inputs": [],
      "name": "duration",
      "outputs": [
        {
          "internalType": "uint256",
          "name": "",
          "type": "uint256"
        }
      ],
      "stateMutability": "view",
      "type": "function"
    },
    {
      "inputs": [],
      "name": "fantosiToken",
      "outputs": [
        {
          "internalType": "contract IFantosiToken",
          "name": "",
          "type": "address"
        }
      ],
      "stateMutability": "view",
      "type": "function"
    },
    {
      "inputs": [
        {
          "internalType": "contract IFantosiToken",
          "name": "_fantosiToken",
          "type": "address"
        },
        {
          "internalType": "address",
          "name": "_wBNB",
          "type": "address"
        },
        {
          "internalType": "uint256",
          "name": "_timeBuffer",
          "type": "uint256"
        },
        {
          "internalType": "uint256",
          "name": "_reservePrice",
          "type": "uint256"
        },
        {
          "internalType": "uint8",
          "name": "_minBidIncrementPercentage",
          "type": "uint8"
        },
        {
          "internalType": "uint256",
          "name": "_duration",
          "type": "uint256"
        }
      ],
      "name": "initialize",
      "outputs": [],
      "stateMutability": "nonpayable",
      "type": "function"
    },
    {
      "inputs": [],
      "name": "minBidIncrementPercentage",
      "outputs": [
        {
          "internalType": "uint8",
          "name": "",
          "type": "uint8"
        }
      ],
      "stateMutability": "view",
      "type": "function"
    },
    {
      "inputs": [],
      "name": "owner",
      "outputs": [
        {
          "internalType": "address",
          "name": "",
          "type": "address"
        }
      ],
      "stateMutability": "view",
      "type": "function"
    },
    {
      "inputs": [],
      "name": "pause",
      "outputs": [],
      "stateMutability": "nonpayable",
      "type": "function"
    },
    {
      "inputs": [],
      "name": "paused",
      "outputs": [
        {
          "internalType": "bool",
          "name": "",
          "type": "bool"
        }
      ],
      "stateMutability": "view",
      "type": "function"
    },
    {
      "inputs": [],
      "name": "renounceOwnership",
      "outputs": [],
      "stateMutability": "nonpayable",
      "type": "function"
    },
    {
      "inputs": [],
      "name": "reservePrice",
      "outputs": [
        {
          "internalType": "uint256",
          "name": "",
          "type": "uint256"
        }
      ],
      "stateMutability": "view",
      "type": "function"
    },
    {
      "inputs": [
        {
          "internalType": "uint8",
          "name": "_minBidIncrementPercentage",
          "type": "uint8"
        }
      ],
      "name": "setMinBidIncrementPercentage",
      "outputs": [],
      "stateMutability": "nonpayable",
      "type": "function"
    },
    {
      "inputs": [
        {
          "internalType": "uint256",
          "name": "_reservePrice",
          "type": "uint256"
        }
      ],
      "name": "setReservePrice",
      "outputs": [],
      "stateMutability": "nonpayable",
      "type": "function"
    },
    {
      "inputs": [
        {
          "internalType": "uint256",
          "name": "_timeBuffer",
          "type": "uint256"
        }
      ],
      "name": "setTimeBuffer",
      "outputs": [],
      "stateMutability": "nonpayable",
      "type": "function"
    },
    {
      "inputs": [],
      "name": "settleAuction",
      "outputs": [],
      "stateMutability": "nonpayable",
      "type": "function"
    },
    {
      "inputs": [],
      "name": "settleCurrentAndCreateNewAuction",
      "outputs": [],
      "stateMutability": "nonpayable",
      "type": "function"
    },
    {
      "inputs": [],
      "name": "timeBuffer",
      "outputs": [
        {
          "internalType": "uint256",
          "name": "",
          "type": "uint256"
        }
      ],
      "stateMutability": "view",
      "type": "function"
    },
    {
      "inputs": [
        {
          "internalType": "address",
          "name": "newOwner",
          "type": "address"
        }
      ],
      "name": "transferOwnership",
      "outputs": [],
      "stateMutability": "nonpayable",
      "type": "function"
    },
    {
      "inputs": [],
      "name": "unpause",
      "outputs": [],
      "stateMutability": "nonpayable",
      "type": "function"
    },
    {
      "inputs": [],
      "name": "wBNB",
      "outputs": [
        {
          "internalType": "address",
          "name": "",
          "type": "address"
        }
      ],
      "stateMutability": "view",
      "type": "function"
    }
  ],
  "bytecode": "0x608060405234801561001057600080fd5b50611633806100206000396000f3fe60806040526004361061011e5760003560e01c806387f49f54116100a0578063d02eb3f411610064578063d02eb3f41461034e578063db2e1eed1461036e578063ec91f2a414610384578063f25efffc1461039a578063f2fde38b146103af57600080fd5b806387f49f54146102af5780638da5cb5b146102cf578063a4d0a17e146102ed578063b296024d14610302578063ce9c7c0d1461032e57600080fd5b8063659dd2b4116100e7578063659dd2b4146101de5780637120334b146101f1578063715018a6146102115780637d9f6db5146102265780638456cb591461029a57600080fd5b80623d21d6146101235780630fb5a6b41461016057806336ebdb38146101845780633f4ba83a146101a65780635c975abb146101bb575b600080fd5b34801561012f57600080fd5b5060c954610143906001600160a01b031681565b6040516001600160a01b0390911681526020015b60405180910390f35b34801561016c57600080fd5b5061017660ce5481565b604051908152602001610157565b34801561019057600080fd5b506101a461019f3660046112d9565b6103cf565b005b3480156101b257600080fd5b506101a4610420565b3480156101c757600080fd5b5060335460ff166040519015158152602001610157565b6101a46101ec3660046112fb565b610457565b3480156101fd57600080fd5b506101a461020c3660046112fb565b610749565b34801561021d57600080fd5b506101a4610786565b34801561023257600080fd5b5060cf5460d05460d15460d25460d35461026294939291906001600160a01b03811690600160a01b900460ff1686565b6040805196875260208701959095529385019290925260608401526001600160a01b03166080830152151560a082015260c001610157565b3480156102a657600080fd5b506101a4610798565b3480156102bb57600080fd5b506101a46102ca366004611329565b6107a8565b3480156102db57600080fd5b506097546001600160a01b0316610143565b3480156102f957600080fd5b506101a4610927565b34801561030e57600080fd5b5060cd5461031c9060ff1681565b60405160ff9091168152602001610157565b34801561033a57600080fd5b506101a46103493660046112fb565b610966565b34801561035a57600080fd5b5060ca54610143906001600160a01b031681565b34801561037a57600080fd5b5061017660cc5481565b34801561039057600080fd5b5061017660cb5481565b3480156103a657600080fd5b506101a46109a3565b3480156103bb57600080fd5b506101a46103ca36600461138c565b6109e3565b6103d7610a5c565b60cd805460ff191660ff83169081179091556040519081527fec5ccd96cc77b6219e9d44143df916af68fc169339ea7de5008ff15eae13450d906020015b60405180910390a150565b610428610a5c565b610430610ab6565b60d1541580610448575060d354600160a01b900460ff165b1561045557610455610b08565b565b600260655414156104835760405162461bcd60e51b815260040161047a906113a9565b60405180910390fd5b60026065556040805160c08101825260cf5480825260d054602083015260d1549282019290925260d254606082015260d3546001600160a01b0381166080830152600160a01b900460ff16151560a08201529082146105245760405162461bcd60e51b815260206004820152601960248201527f46414e544f53493a20494e56414c49445f49445f4552524f5200000000000000604482015260640161047a565b806060015142106105775760405162461bcd60e51b815260206004820152601e60248201527f46414e544f53493a20455850495245445f41554354494f4e5f4552524f520000604482015260640161047a565b60cc543410156105c95760405162461bcd60e51b815260206004820152601c60248201527f46414e544f53493a20524553455256455f50524943455f4552524f5200000000604482015260640161047a565b60cd5460208201516064916105e39160ff909116906113f6565b6105ed9190611415565b81602001516105fc9190611437565b34101561064b5760405162461bcd60e51b815260206004820152601f60248201527f46414e544f53493a20494e4352454d454e545f414d4f554e545f4552524f5200604482015260640161047a565b60808101516001600160a01b0381161561066d5761066d818360200151610c60565b3460d05560d380546001600160a01b0319163317905560cb5460608301516000919061069a90429061144f565b10905080156106bb5760cb546106b09042611437565b6060840181905260d2555b8251604080513381523460208201528315158183015290517f1159164c56f277e6fc99c11731bd380e0347deb969b75523398734c252706ea39181900360600190a2801561073e57825160608401516040519081527f6e912a3a9105bdd2af817ba5adc14e6c127c1035b5b648faa29ca0d58ab8ff4e9060200160405180910390a25b505060016065555050565b610751610a5c565b60cb8190556040518181527f1b55d9f7002bda4490f467e326f22a4a847629c0f2d1ed421607d318d25b410d90602001610415565b61078e610a5c565b6104556000610d55565b6107a0610a5c565b610455610da7565b600054610100900460ff16158080156107c85750600054600160ff909116105b806107e25750303b1580156107e2575060005460ff166001145b6108455760405162461bcd60e51b815260206004820152602e60248201527f496e697469616c697a61626c653a20636f6e747261637420697320616c72656160448201526d191e481a5b9a5d1a585b1a5e995960921b606482015260840161047a565b6000805460ff191660011790558015610868576000805461ff0019166101001790555b610870610de4565b610878610e13565b610880610e42565b610888610da7565b60c980546001600160a01b03808a166001600160a01b03199283161790925560ca80549289169290911691909117905560cb85905560cc84905560cd805460ff851660ff1990911617905560ce829055801561091e576000805461ff0019169055604051600181527f7f26b83ff96e1f2b6a682f133852f6798a09c465da95921460cefb38474024989060200160405180910390a15b50505050505050565b61092f610e71565b600260655414156109525760405162461bcd60e51b815260040161047a906113a9565b600260655561095f610eba565b6001606555565b61096e610a5c565b60cc8190556040518181527f6ab2e127d7fdf53b8f304e59d3aab5bfe97979f52a85479691a6fab27a28a6b290602001610415565b600260655414156109c65760405162461bcd60e51b815260040161047a906113a9565b60026065556109d3611175565b6109db610eba565b61095f610b08565b6109eb610a5c565b6001600160a01b038116610a505760405162461bcd60e51b815260206004820152602660248201527f4f776e61626c653a206e6577206f776e657220697320746865207a65726f206160448201526564647265737360d01b606482015260840161047a565b610a5981610d55565b50565b6097546001600160a01b031633146104555760405162461bcd60e51b815260206004820181905260248201527f4f776e61626c653a2063616c6c6572206973206e6f7420746865206f776e6572604482015260640161047a565b610abe610e71565b6033805460ff191690557f5db9ee0a495bf2e6ff9c91a7834c1ba4fdd244a5e8aa4e537bd38aeae4b073aa335b6040516001600160a01b03909116815260200160405180910390a1565b60c960009054906101000a90046001600160a01b03166001600160a01b0316631249c58b6040518163ffffffff1660e01b81526004016020604051808303816000875af1925050508015610b79575060408051601f3d908101601f19168201909252610b7691810190611466565b60015b610bb957610b8561147f565b806308c379a01415610bad5750610b9a6114d6565b80610ba55750610baf565b610a59610da7565b505b3d6000803e3d6000fd5b60ce544290600090610bcb9083611437565b6040805160c08101825285815260006020808301829052828401879052606083018590526080830182905260a090920181905260cf87905560d05560d185905560d283905560d380546001600160a81b0319169055815185815290810183905291925084917fd6eddd1118d71820909c1197aa966dbc15ed6f508554252169cc3d5ccac756ca910160405180910390a2505050565b610c6a82826111bb565b610d515760ca60009054906101000a90046001600160a01b03166001600160a01b031663d0e30db0826040518263ffffffff1660e01b81526004016000604051808303818588803b158015610cbe57600080fd5b505af1158015610cd2573d6000803e3d6000fd5b505060ca5460405163a9059cbb60e01b81526001600160a01b03878116600483015260248201879052909116935063a9059cbb925060440190506020604051808303816000875af1158015610d2b573d6000803e3d6000fd5b505050506040513d601f19601f82011682018060405250810190610d4f9190611555565b505b5050565b609780546001600160a01b038381166001600160a01b0319831681179093556040519116919082907f8be0079c531659141344cd1fd0a4f28419497f9722a3daafe3b4186f6b6457e090600090a35050565b610daf611175565b6033805460ff191660011790557f62e78cea01bee320cd4e420270b5ea74000d11b0c9f74754ebdbfc544b05a258610aeb3390565b600054610100900460ff16610e0b5760405162461bcd60e51b815260040161047a90611577565b610455611239565b600054610100900460ff16610e3a5760405162461bcd60e51b815260040161047a90611577565b61045561126c565b600054610100900460ff16610e695760405162461bcd60e51b815260040161047a90611577565b610455611293565b60335460ff166104555760405162461bcd60e51b815260206004820152601460248201527314185d5cd8589b194e881b9bdd081c185d5cd95960621b604482015260640161047a565b6040805160c08101825260cf54815260d054602082015260d15491810182905260d254606082015260d3546001600160a01b0381166080830152600160a01b900460ff16151560a082015290610f525760405162461bcd60e51b815260206004820181905260248201527f46414e544f53493a20554e535441525445445f41554354494f4e5f4552524f52604482015260640161047a565b8060a0015115610fa45760405162461bcd60e51b815260206004820152601e60248201527f46414e544f53493a20534554544c45445f41554354494f4e5f4552524f520000604482015260640161047a565b8060600151421015610ff85760405162461bcd60e51b815260206004820152601a60248201527f46414e544f53493a20454e445f41554354494f4e5f4552524f52000000000000604482015260640161047a565b60d3805460ff60a01b1916600160a01b17905560808101516001600160a01b03166110885760c9548151604051630852cd8d60e31b81526001600160a01b03909216916342966c68916110519160040190815260200190565b600060405180830381600087803b15801561106b57600080fd5b505af115801561107f573d6000803e3d6000fd5b505050506110fc565b60c954608082015182516040516323b872dd60e01b81523060048201526001600160a01b03928316602482015260448101919091529116906323b872dd90606401600060405180830381600087803b1580156110e357600080fd5b505af11580156110f7573d6000803e3d6000fd5b505050505b6020810151156111255761112561111b6097546001600160a01b031690565b8260200151610c60565b80516080820151602080840151604080516001600160a01b039094168452918301527fc9f72b276a388619c6d185d146697036241880c36654b1a3ffdad07c24038d99910160405180910390a250565b60335460ff16156104555760405162461bcd60e51b815260206004820152601060248201526f14185d5cd8589b194e881c185d5cd95960821b604482015260640161047a565b6040805160008082526020820190925281906001600160a01b038516906175309085906040516111eb91906115c2565b600060405180830381858888f193505050503d8060008114611229576040519150601f19603f3d011682016040523d82523d6000602084013e61122e565b606091505b509095945050505050565b600054610100900460ff166112605760405162461bcd60e51b815260040161047a90611577565b6033805460ff19169055565b600054610100900460ff1661095f5760405162461bcd60e51b815260040161047a90611577565b600054610100900460ff166112ba5760405162461bcd60e51b815260040161047a90611577565b61045533610d55565b803560ff811681146112d457600080fd5b919050565b6000602082840312156112eb57600080fd5b6112f4826112c3565b9392505050565b60006020828403121561130d57600080fd5b5035919050565b6001600160a01b0381168114610a5957600080fd5b60008060008060008060c0878903121561134257600080fd5b863561134d81611314565b9550602087013561135d81611314565b94506040870135935060608701359250611379608088016112c3565b915060a087013590509295509295509295565b60006020828403121561139e57600080fd5b81356112f481611314565b6020808252601f908201527f5265656e7472616e637947756172643a207265656e7472616e742063616c6c00604082015260600190565b634e487b7160e01b600052601160045260246000fd5b6000816000190483118215151615611410576114106113e0565b500290565b60008261143257634e487b7160e01b600052601260045260246000fd5b500490565b6000821982111561144a5761144a6113e0565b500190565b600082821015611461576114616113e0565b500390565b60006020828403121561147857600080fd5b5051919050565b600060033d11156114985760046000803e5060005160e01c5b90565b601f8201601f1916810167ffffffffffffffff811182821017156114cf57634e487b7160e01b600052604160045260246000fd5b6040525050565b600060443d10156114e45790565b6040516003193d81016004833e81513d67ffffffffffffffff816024840111818411171561151457505050505090565b828501915081518181111561152c5750505050505090565b843d87010160208285010111156115465750505050505090565b61122e6020828601018761149b565b60006020828403121561156757600080fd5b815180151581146112f457600080fd5b6020808252602b908201527f496e697469616c697a61626c653a20636f6e7472616374206973206e6f74206960408201526a6e697469616c697a696e6760a81b606082015260800190565b6000825160005b818110156115e357602081860181015185830152016115c9565b818111156115f2576000828501525b50919091019291505056fea26469706673582212205fc2a9f774939ea3b88921de958712142e3d58d302489f428fd56e033aea23ba64736f6c634300080b0033",
  "linkReferences": {},
  "deployedLinkReferences": {}
}